{
  "_format": "hh-sol-artifact-1",
  "contractName": "NusaNFT",
  "sourceName": "contracts/NusaNFT.sol",
  "abi": [
    {
      "inputs": [],
      "stateMutability": "nonpayable",
      "type": "constructor"
    },
    {
      "anonymous": false,
      "inputs": [
        {
          "indexed": false,
          "internalType": "address",
          "name": "previousAdmin",
          "type": "address"
        },
        {
          "indexed": false,
          "internalType": "address",
          "name": "newAdmin",
          "type": "address"
        }
      ],
      "name": "AdminChanged",
      "type": "event"
    },
    {
      "anonymous": false,
      "inputs": [
        {
          "indexed": true,
          "internalType": "address",
          "name": "_owner",
          "type": "address"
        },
        {
          "indexed": true,
          "internalType": "address",
          "name": "_operator",
          "type": "address"
        },
        {
          "indexed": false,
          "internalType": "bool",
          "name": "_approved",
          "type": "bool"
        }
      ],
      "name": "ApprovalForAll",
      "type": "event"
    },
    {
      "anonymous": false,
      "inputs": [
        {
          "indexed": true,
          "internalType": "address",
          "name": "beacon",
          "type": "address"
        }
      ],
      "name": "BeaconUpgraded",
      "type": "event"
    },
    {
      "anonymous": false,
      "inputs": [
        {
          "indexed": false,
          "internalType": "string",
          "name": "prevURI",
          "type": "string"
        },
        {
          "indexed": false,
          "internalType": "string",
          "name": "newURI",
          "type": "string"
        }
      ],
      "name": "ContractURIUpdated",
      "type": "event"
    },
    {
      "anonymous": false,
      "inputs": [
        {
          "indexed": false,
          "internalType": "uint8",
          "name": "version",
          "type": "uint8"
        }
      ],
      "name": "Initialized",
      "type": "event"
    },
    {
      "anonymous": false,
      "inputs": [
        {
          "indexed": true,
          "internalType": "address",
          "name": "prevOwner",
          "type": "address"
        },
        {
          "indexed": true,
          "internalType": "address",
          "name": "newOwner",
          "type": "address"
        }
      ],
      "name": "OwnerUpdated",
      "type": "event"
    },
    {
      "anonymous": false,
      "inputs": [
        {
          "indexed": true,
          "internalType": "bytes32",
          "name": "role",
          "type": "bytes32"
        },
        {
          "indexed": true,
          "internalType": "bytes32",
          "name": "previousAdminRole",
          "type": "bytes32"
        },
        {
          "indexed": true,
          "internalType": "bytes32",
          "name": "newAdminRole",
          "type": "bytes32"
        }
      ],
      "name": "RoleAdminChanged",
      "type": "event"
    },
    {
      "anonymous": false,
      "inputs": [
        {
          "indexed": true,
          "internalType": "bytes32",
          "name": "role",
          "type": "bytes32"
        },
        {
          "indexed": true,
          "internalType": "address",
          "name": "account",
          "type": "address"
        },
        {
          "indexed": true,
          "internalType": "address",
          "name": "sender",
          "type": "address"
        }
      ],
      "name": "RoleGranted",
      "type": "event"
    },
    {
      "anonymous": false,
      "inputs": [
        {
          "indexed": true,
          "internalType": "bytes32",
          "name": "role",
          "type": "bytes32"
        },
        {
          "indexed": true,
          "internalType": "address",
          "name": "account",
          "type": "address"
        },
        {
          "indexed": true,
          "internalType": "address",
          "name": "sender",
          "type": "address"
        }
      ],
      "name": "RoleRevoked",
      "type": "event"
    },
    {
      "anonymous": false,
      "inputs": [
        {
          "indexed": true,
          "internalType": "uint256",
          "name": "tokenId",
          "type": "uint256"
        }
      ],
      "name": "TokenCreated",
      "type": "event"
    },
    {
      "anonymous": false,
      "inputs": [
        {
          "indexed": true,
          "internalType": "address",
          "name": "signer",
          "type": "address"
        },
        {
          "indexed": true,
          "internalType": "address",
          "name": "mintedTo",
          "type": "address"
        },
        {
          "indexed": true,
          "internalType": "uint256",
          "name": "tokenIdMinted",
          "type": "uint256"
        },
        {
          "components": [
            {
              "internalType": "address",
              "name": "to",
              "type": "address"
            },
            {
              "internalType": "address",
              "name": "royaltyRecipient",
              "type": "address"
            },
            {
              "internalType": "uint256",
              "name": "royaltyBps",
              "type": "uint256"
            },
            {
              "internalType": "address",
              "name": "primarySaleRecipient",
              "type": "address"
            },
            {
              "internalType": "uint256",
              "name": "tokenId",
              "type": "uint256"
            },
            {
              "internalType": "string",
              "name": "uri",
              "type": "string"
            },
            {
              "internalType": "uint256",
              "name": "quantity",
              "type": "uint256"
            },
            {
              "internalType": "uint256",
              "name": "pricePerToken",
              "type": "uint256"
            },
            {
              "internalType": "address",
              "name": "currency",
              "type": "address"
            },
            {
              "internalType": "uint128",
              "name": "validityStartTimestamp",
              "type": "uint128"
            },
            {
              "internalType": "uint128",
              "name": "validityEndTimestamp",
              "type": "uint128"
            },
            {
              "internalType": "bytes32",
              "name": "uid",
              "type": "bytes32"
            }
          ],
          "indexed": false,
          "internalType": "struct ISignatureMintERC1155.MintRequest",
          "name": "mintRequest",
          "type": "tuple"
        }
      ],
      "name": "TokensMintedWithSignature",
      "type": "event"
    },
    {
      "anonymous": false,
      "inputs": [
        {
          "indexed": true,
          "internalType": "address",
          "name": "_operator",
          "type": "address"
        },
        {
          "indexed": true,
          "internalType": "address",
          "name": "_from",
          "type": "address"
        },
        {
          "indexed": true,
          "internalType": "address",
          "name": "_to",
          "type": "address"
        },
        {
          "indexed": false,
          "internalType": "uint256[]",
          "name": "_ids",
          "type": "uint256[]"
        },
        {
          "indexed": false,
          "internalType": "uint256[]",
          "name": "_values",
          "type": "uint256[]"
        }
      ],
      "name": "TransferBatch",
      "type": "event"
    },
    {
      "anonymous": false,
      "inputs": [
        {
          "indexed": true,
          "internalType": "address",
          "name": "_operator",
          "type": "address"
        },
        {
          "indexed": true,
          "internalType": "address",
          "name": "_from",
          "type": "address"
        },
        {
          "indexed": true,
          "internalType": "address",
          "name": "_to",
          "type": "address"
        },
        {
          "indexed": false,
          "internalType": "uint256",
          "name": "_id",
          "type": "uint256"
        },
        {
          "indexed": false,
          "internalType": "uint256",
          "name": "_value",
          "type": "uint256"
        }
      ],
      "name": "TransferSingle",
      "type": "event"
    },
    {
      "anonymous": false,
      "inputs": [
        {
          "indexed": false,
          "internalType": "string",
          "name": "_value",
          "type": "string"
        },
        {
          "indexed": true,
          "internalType": "uint256",
          "name": "_id",
          "type": "uint256"
        }
      ],
      "name": "URI",
      "type": "event"
    },
    {
      "anonymous": false,
      "inputs": [
        {
          "indexed": true,
          "internalType": "address",
          "name": "implementation",
          "type": "address"
        }
      ],
      "name": "Upgraded",
      "type": "event"
    },
    {
      "inputs": [],
      "name": "ADMIN_MINTER_ROLE",
      "outputs": [
        {
          "internalType": "bytes32",
          "name": "",
          "type": "bytes32"
        }
      ],
      "stateMutability": "view",
      "type": "function"
    },
    {
      "inputs": [],
      "name": "DEFAULT_ADMIN_ROLE",
      "outputs": [
        {
          "internalType": "bytes32",
          "name": "",
          "type": "bytes32"
        }
      ],
      "stateMutability": "view",
      "type": "function"
    },
    {
      "inputs": [
        {
          "internalType": "uint256",
          "name": "",
          "type": "uint256"
        }
      ],
      "name": "_rootHashVoucher",
      "outputs": [
        {
          "internalType": "bytes32",
          "name": "",
          "type": "bytes32"
        }
      ],
      "stateMutability": "view",
      "type": "function"
    },
    {
      "inputs": [
        {
          "internalType": "address",
          "name": "",
          "type": "address"
        },
        {
          "internalType": "uint256",
          "name": "",
          "type": "uint256"
        }
      ],
      "name": "balanceOf",
      "outputs": [
        {
          "internalType": "uint256",
          "name": "",
          "type": "uint256"
        }
      ],
      "stateMutability": "view",
      "type": "function"
    },
    {
      "inputs": [
        {
          "internalType": "address[]",
          "name": "accounts",
          "type": "address[]"
        },
        {
          "internalType": "uint256[]",
          "name": "ids",
          "type": "uint256[]"
        }
      ],
      "name": "balanceOfBatch",
      "outputs": [
        {
          "internalType": "uint256[]",
          "name": "",
          "type": "uint256[]"
        }
      ],
      "stateMutability": "view",
      "type": "function"
    },
    {
      "inputs": [
        {
          "internalType": "address",
          "name": "_to",
          "type": "address"
        },
        {
          "internalType": "uint256[]",
          "name": "_tokenIds",
          "type": "uint256[]"
        },
        {
          "internalType": "uint256[]",
          "name": "_amounts",
          "type": "uint256[]"
        },
        {
          "internalType": "string",
          "name": "_baseURI",
          "type": "string"
        }
      ],
      "name": "batchMintTo",
      "outputs": [],
      "stateMutability": "nonpayable",
      "type": "function"
    },
    {
      "inputs": [
        {
          "internalType": "address",
          "name": "_owner",
          "type": "address"
        },
        {
          "internalType": "uint256",
          "name": "_tokenId",
          "type": "uint256"
        },
        {
          "internalType": "uint256",
          "name": "_amount",
          "type": "uint256"
        }
      ],
      "name": "burn",
      "outputs": [],
      "stateMutability": "nonpayable",
      "type": "function"
    },
    {
      "inputs": [
        {
          "internalType": "address",
          "name": "_owner",
          "type": "address"
        },
        {
          "internalType": "uint256[]",
          "name": "_tokenIds",
          "type": "uint256[]"
        },
        {
          "internalType": "uint256[]",
          "name": "_amounts",
          "type": "uint256[]"
        }
      ],
      "name": "burnBatch",
      "outputs": [],
      "stateMutability": "nonpayable",
      "type": "function"
    },
    {
      "inputs": [
        {
          "internalType": "string",
          "name": "voucher",
          "type": "string"
        },
        {
          "internalType": "uint256",
          "name": "_tokenId",
          "type": "uint256"
        },
        {
          "internalType": "address",
          "name": "_to",
          "type": "address"
        },
        {
          "internalType": "bytes32[]",
          "name": "merkleProof",
          "type": "bytes32[]"
        }
      ],
      "name": "claimVoucher",
      "outputs": [],
      "stateMutability": "nonpayable",
      "type": "function"
    },
    {
      "inputs": [],
      "name": "contractURI",
      "outputs": [
        {
          "internalType": "string",
          "name": "",
          "type": "string"
        }
      ],
      "stateMutability": "view",
      "type": "function"
    },
    {
      "inputs": [
        {
          "internalType": "address",
          "name": "_to",
          "type": "address"
        },
        {
          "internalType": "string",
          "name": "_tokenURI",
          "type": "string"
        }
      ],
      "name": "create",
      "outputs": [],
      "stateMutability": "nonpayable",
      "type": "function"
    },
    {
      "inputs": [
        {
          "internalType": "uint256",
          "name": "_tokenId",
          "type": "uint256"
        }
      ],
      "name": "creator",
      "outputs": [
        {
          "internalType": "address",
          "name": "",
          "type": "address"
        }
      ],
      "stateMutability": "view",
      "type": "function"
    },
    {
      "inputs": [],
      "name": "getBaseURICount",
      "outputs": [
        {
          "internalType": "uint256",
          "name": "",
          "type": "uint256"
        }
      ],
      "stateMutability": "view",
      "type": "function"
    },
    {
      "inputs": [
        {
          "internalType": "uint256",
          "name": "_index",
          "type": "uint256"
        }
      ],
      "name": "getBatchIdAtIndex",
      "outputs": [
        {
          "internalType": "uint256",
          "name": "",
          "type": "uint256"
        }
      ],
      "stateMutability": "view",
      "type": "function"
    },
    {
      "inputs": [
        {
          "internalType": "bytes32",
          "name": "role",
          "type": "bytes32"
        }
      ],
      "name": "getRoleAdmin",
      "outputs": [
        {
          "internalType": "bytes32",
          "name": "",
          "type": "bytes32"
        }
      ],
      "stateMutability": "view",
      "type": "function"
    },
    {
      "inputs": [
        {
          "internalType": "bytes32",
          "name": "role",
          "type": "bytes32"
        },
        {
          "internalType": "uint256",
          "name": "index",
          "type": "uint256"
        }
      ],
      "name": "getRoleMember",
      "outputs": [
        {
          "internalType": "address",
          "name": "member",
          "type": "address"
        }
      ],
      "stateMutability": "view",
      "type": "function"
    },
    {
      "inputs": [
        {
          "internalType": "bytes32",
          "name": "role",
          "type": "bytes32"
        }
      ],
      "name": "getRoleMemberCount",
      "outputs": [
        {
          "internalType": "uint256",
          "name": "count",
          "type": "uint256"
        }
      ],
      "stateMutability": "view",
      "type": "function"
    },
    {
      "inputs": [],
      "name": "getTimestamp",
      "outputs": [
        {
          "internalType": "uint256",
          "name": "",
          "type": "uint256"
        }
      ],
      "stateMutability": "view",
      "type": "function"
    },
    {
      "inputs": [
        {
          "internalType": "bytes32",
          "name": "role",
          "type": "bytes32"
        },
        {
          "internalType": "address",
          "name": "account",
          "type": "address"
        }
      ],
      "name": "grantRole",
      "outputs": [],
      "stateMutability": "nonpayable",
      "type": "function"
    },
    {
      "inputs": [
        {
          "internalType": "bytes32",
          "name": "role",
          "type": "bytes32"
        },
        {
          "internalType": "address",
          "name": "account",
          "type": "address"
        }
      ],
      "name": "hasRole",
      "outputs": [
        {
          "internalType": "bool",
          "name": "",
          "type": "bool"
        }
      ],
      "stateMutability": "view",
      "type": "function"
    },
    {
      "inputs": [
        {
          "internalType": "bytes32",
          "name": "role",
          "type": "bytes32"
        },
        {
          "internalType": "address",
          "name": "account",
          "type": "address"
        }
      ],
      "name": "hasRoleWithSwitch",
      "outputs": [
        {
          "internalType": "bool",
          "name": "",
          "type": "bool"
        }
      ],
      "stateMutability": "view",
      "type": "function"
    },
    {
      "inputs": [
        {
          "internalType": "string",
          "name": "_name",
          "type": "string"
        },
        {
          "internalType": "string",
          "name": "_symbol",
          "type": "string"
        }
      ],
      "name": "initialize",
      "outputs": [],
      "stateMutability": "nonpayable",
      "type": "function"
    },
    {
      "inputs": [
        {
          "internalType": "address",
          "name": "",
          "type": "address"
        },
        {
          "internalType": "address",
          "name": "",
          "type": "address"
        }
      ],
      "name": "isApprovedForAll",
      "outputs": [
        {
          "internalType": "bool",
          "name": "",
          "type": "bool"
        }
      ],
      "stateMutability": "view",
      "type": "function"
    },
    {
      "inputs": [
        {
          "internalType": "string",
          "name": "voucher",
          "type": "string"
        },
        {
          "internalType": "uint256",
          "name": "_tokenId",
          "type": "uint256"
        },
        {
          "internalType": "bytes32[]",
          "name": "proof",
          "type": "bytes32[]"
        }
      ],
      "name": "isValidVoucher",
      "outputs": [
        {
          "internalType": "bool",
          "name": "",
          "type": "bool"
        }
      ],
      "stateMutability": "view",
      "type": "function"
    },
    {
      "inputs": [
        {
          "internalType": "address",
          "name": "_to",
          "type": "address"
        },
        {
          "internalType": "uint256",
          "name": "_tokenId",
          "type": "uint256"
        },
        {
          "internalType": "string",
          "name": "_tokenURI",
          "type": "string"
        },
        {
          "internalType": "uint256",
          "name": "_amount",
          "type": "uint256"
        }
      ],
      "name": "mintTo",
      "outputs": [],
      "stateMutability": "nonpayable",
      "type": "function"
    },
    {
      "inputs": [
        {
          "components": [
            {
              "internalType": "address",
              "name": "to",
              "type": "address"
            },
            {
              "internalType": "address",
              "name": "royaltyRecipient",
              "type": "address"
            },
            {
              "internalType": "uint256",
              "name": "royaltyBps",
              "type": "uint256"
            },
            {
              "internalType": "address",
              "name": "primarySaleRecipient",
              "type": "address"
            },
            {
              "internalType": "uint256",
              "name": "tokenId",
              "type": "uint256"
            },
            {
              "internalType": "string",
              "name": "uri",
              "type": "string"
            },
            {
              "internalType": "uint256",
              "name": "quantity",
              "type": "uint256"
            },
            {
              "internalType": "uint256",
              "name": "pricePerToken",
              "type": "uint256"
            },
            {
              "internalType": "address",
              "name": "currency",
              "type": "address"
            },
            {
              "internalType": "uint128",
              "name": "validityStartTimestamp",
              "type": "uint128"
            },
            {
              "internalType": "uint128",
              "name": "validityEndTimestamp",
              "type": "uint128"
            },
            {
              "internalType": "bytes32",
              "name": "uid",
              "type": "bytes32"
            }
          ],
          "internalType": "struct ISignatureMintERC1155.MintRequest",
          "name": "_req",
          "type": "tuple"
        },
        {
          "internalType": "bytes",
          "name": "_signature",
          "type": "bytes"
        }
      ],
      "name": "mintWithSignature",
      "outputs": [
        {
          "internalType": "address",
          "name": "signer",
          "type": "address"
        }
      ],
      "stateMutability": "payable",
      "type": "function"
    },
    {
      "inputs": [
        {
          "internalType": "bytes[]",
          "name": "data",
          "type": "bytes[]"
        }
      ],
      "name": "multicall",
      "outputs": [
        {
          "internalType": "bytes[]",
          "name": "results",
          "type": "bytes[]"
        }
      ],
      "stateMutability": "nonpayable",
      "type": "function"
    },
    {
      "inputs": [],
      "name": "name",
      "outputs": [
        {
          "internalType": "string",
          "name": "",
          "type": "string"
        }
      ],
      "stateMutability": "view",
      "type": "function"
    },
    {
      "inputs": [],
      "name": "nextTokenIdToMint",
      "outputs": [
        {
          "internalType": "uint256",
          "name": "",
          "type": "uint256"
        }
      ],
      "stateMutability": "view",
      "type": "function"
    },
    {
      "inputs": [],
      "name": "owner",
      "outputs": [
        {
          "internalType": "address",
          "name": "",
          "type": "address"
        }
      ],
      "stateMutability": "view",
      "type": "function"
    },
    {
      "inputs": [],
      "name": "proxiableUUID",
      "outputs": [
        {
          "internalType": "bytes32",
          "name": "",
          "type": "bytes32"
        }
      ],
      "stateMutability": "view",
      "type": "function"
    },
    {
      "inputs": [
        {
          "internalType": "uint256",
          "name": "_tokenId",
          "type": "uint256"
        },
        {
          "internalType": "bytes32",
          "name": "rootHash",
          "type": "bytes32"
        }
      ],
      "name": "registerVoucher",
      "outputs": [],
      "stateMutability": "nonpayable",
      "type": "function"
    },
    {
      "inputs": [
        {
          "internalType": "string",
          "name": "_name",
          "type": "string"
        },
        {
          "internalType": "string",
          "name": "_symbol",
          "type": "string"
        },
        {
          "internalType": "uint8",
          "name": "version",
          "type": "uint8"
        }
      ],
      "name": "reinitialize",
      "outputs": [],
      "stateMutability": "nonpayable",
      "type": "function"
    },
    {
      "inputs": [
        {
          "internalType": "bytes32",
          "name": "role",
          "type": "bytes32"
        },
        {
          "internalType": "address",
          "name": "account",
          "type": "address"
        }
      ],
      "name": "renounceRole",
      "outputs": [],
      "stateMutability": "nonpayable",
      "type": "function"
    },
    {
      "inputs": [
        {
          "internalType": "bytes32",
          "name": "role",
          "type": "bytes32"
        },
        {
          "internalType": "address",
          "name": "account",
          "type": "address"
        }
      ],
      "name": "revokeRole",
      "outputs": [],
      "stateMutability": "nonpayable",
      "type": "function"
    },
    {
      "inputs": [
        {
          "internalType": "address",
          "name": "from",
          "type": "address"
        },
        {
          "internalType": "address",
          "name": "to",
          "type": "address"
        },
        {
          "internalType": "uint256[]",
          "name": "ids",
          "type": "uint256[]"
        },
        {
          "internalType": "uint256[]",
          "name": "amounts",
          "type": "uint256[]"
        },
        {
          "internalType": "bytes",
          "name": "data",
          "type": "bytes"
        }
      ],
      "name": "safeBatchTransferFrom",
      "outputs": [],
      "stateMutability": "nonpayable",
      "type": "function"
    },
    {
      "inputs": [
        {
          "internalType": "address",
          "name": "from",
          "type": "address"
        },
        {
          "internalType": "address",
          "name": "to",
          "type": "address"
        },
        {
          "internalType": "uint256",
          "name": "id",
          "type": "uint256"
        },
        {
          "internalType": "uint256",
          "name": "amount",
          "type": "uint256"
        },
        {
          "internalType": "bytes",
          "name": "data",
          "type": "bytes"
        }
      ],
      "name": "safeTransferFrom",
      "outputs": [],
      "stateMutability": "nonpayable",
      "type": "function"
    },
    {
      "inputs": [
        {
          "internalType": "address",
          "name": "operator",
          "type": "address"
        },
        {
          "internalType": "bool",
          "name": "approved",
          "type": "bool"
        }
      ],
      "name": "setApprovalForAll",
      "outputs": [],
      "stateMutability": "nonpayable",
      "type": "function"
    },
    {
      "inputs": [
        {
          "internalType": "string",
          "name": "_uri",
          "type": "string"
        }
      ],
      "name": "setContractURI",
      "outputs": [],
      "stateMutability": "nonpayable",
      "type": "function"
    },
    {
      "inputs": [
        {
          "internalType": "address",
          "name": "_newOwner",
          "type": "address"
        }
      ],
      "name": "setOwner",
      "outputs": [],
      "stateMutability": "nonpayable",
      "type": "function"
    },
    {
      "inputs": [
        {
          "internalType": "bytes4",
          "name": "interfaceId",
          "type": "bytes4"
        }
      ],
      "name": "supportsInterface",
      "outputs": [
        {
          "internalType": "bool",
          "name": "",
          "type": "bool"
        }
      ],
      "stateMutability": "view",
      "type": "function"
    },
    {
      "inputs": [],
      "name": "symbol",
      "outputs": [
        {
          "internalType": "string",
          "name": "",
          "type": "string"
        }
      ],
      "stateMutability": "view",
      "type": "function"
    },
    {
      "inputs": [
        {
          "internalType": "uint256",
          "name": "",
          "type": "uint256"
        }
      ],
      "name": "totalSupply",
      "outputs": [
        {
          "internalType": "uint256",
          "name": "",
          "type": "uint256"
        }
      ],
      "stateMutability": "view",
      "type": "function"
    },
    {
      "inputs": [
        {
          "internalType": "address",
          "name": "newImplementation",
          "type": "address"
        }
      ],
      "name": "upgradeTo",
      "outputs": [],
      "stateMutability": "nonpayable",
      "type": "function"
    },
    {
      "inputs": [
        {
          "internalType": "address",
          "name": "newImplementation",
          "type": "address"
        },
        {
          "internalType": "bytes",
          "name": "data",
          "type": "bytes"
        }
      ],
      "name": "upgradeToAndCall",
      "outputs": [],
      "stateMutability": "payable",
      "type": "function"
    },
    {
      "inputs": [
        {
          "internalType": "uint256",
          "name": "_tokenId",
          "type": "uint256"
        }
      ],
      "name": "uri",
      "outputs": [
        {
          "internalType": "string",
          "name": "",
          "type": "string"
        }
      ],
      "stateMutability": "view",
      "type": "function"
    },
    {
      "inputs": [
        {
          "components": [
            {
              "internalType": "address",
              "name": "to",
              "type": "address"
            },
            {
              "internalType": "address",
              "name": "royaltyRecipient",
              "type": "address"
            },
            {
              "internalType": "uint256",
              "name": "royaltyBps",
              "type": "uint256"
            },
            {
              "internalType": "address",
              "name": "primarySaleRecipient",
              "type": "address"
            },
            {
              "internalType": "uint256",
              "name": "tokenId",
              "type": "uint256"
            },
            {
              "internalType": "string",
              "name": "uri",
              "type": "string"
            },
            {
              "internalType": "uint256",
              "name": "quantity",
              "type": "uint256"
            },
            {
              "internalType": "uint256",
              "name": "pricePerToken",
              "type": "uint256"
            },
            {
              "internalType": "address",
              "name": "currency",
              "type": "address"
            },
            {
              "internalType": "uint128",
              "name": "validityStartTimestamp",
              "type": "uint128"
            },
            {
              "internalType": "uint128",
              "name": "validityEndTimestamp",
              "type": "uint128"
            },
            {
              "internalType": "bytes32",
              "name": "uid",
              "type": "bytes32"
            }
          ],
          "internalType": "struct ISignatureMintERC1155.MintRequest",
          "name": "_req",
          "type": "tuple"
        },
        {
          "internalType": "bytes",
          "name": "_signature",
          "type": "bytes"
        }
      ],
      "name": "verify",
      "outputs": [
        {
          "internalType": "bool",
          "name": "success",
          "type": "bool"
        },
        {
          "internalType": "address",
          "name": "signer",
          "type": "address"
        }
      ],
      "stateMutability": "view",
      "type": "function"
    }
  ],
  "bytecode": "0x61016060405230610140523480156200001757600080fd5b506040518060400160405280601481526020017f5369676e61747572654d696e7445524331313535000000000000000000000000815250604051806040016040528060018152602001603160f81b81525060405180602001604052806000815250604051806020016040528060008152508160009080519060200190620000a0929190620001ab565b508051620000b6906001906020840190620001ab565b5050825160209384012082519284019290922060e08390526101008190524660a0818152604080517f8b73c3c69bb8fe3d512ecc4cf759cc79239f7b179b0ffacaa9a75d522b39400f818901819052818301979097526060810194909452608080850193909352308483018190528151808603909301835260c0948501909152815191909601209052929092526101205250620001533362000159565b6200028e565b600680546001600160a01b038381166001600160a01b0319831681179093556040519116919082907f8292fce18fa69edf4db7b94ea2e58241df0ae57f97e0a6c9b29067028bf92d7690600090a35050565b828054620001b99062000251565b90600052602060002090601f016020900481019282620001dd576000855562000228565b82601f10620001f857805160ff191683800117855562000228565b8280016001018555821562000228579182015b82811115620002285782518255916020019190600101906200020b565b50620002369291506200023a565b5090565b5b808211156200023657600081556001016200023b565b600181811c908216806200026657607f821691505b602082108114156200028857634e487b7160e01b600052602260045260246000fd5b50919050565b60805160a05160c05160e0516101005161012051610140516158786200030560003960008181610c6e01528181610cae01528181610f3d01528181610f7d0152610ff501526000613c8101526000613cd001526000613cab01526000613c0401526000613c2e01526000613c5801526158786000f3fe6080604052600436106102175760003560e01c8062fdd58e1461021c57806301b26ad71461026757806301ffc9a71461029757806306fdde03146102b75780630e89341c146102d957806313af4035146102f9578063188ec3561461031b5780632419f51b1461032e578063248a9ca31461034e5780632eb2c2d61461037b5780632f2ff15d1461039b57806336568abe146103bb5780633659cfe6146103db5780633b1475a7146103fb57806344233613146104105780634cd88b761461043d5780634e1273f41461045d5780634f1ef2861461048a578063510b51581461049d57806352d1902d146104eb57806363b45e2d146105005780636b20c4541461051557806372ba67f714610535578063772906ac146105555780638da5cb5b146105775780639010d07c1461058c57806391d14854146105ac578063938e3d7b146105cc57806393969fff146105ec578063949c09f71461060c57806395d89b411461062c57806398a6e99314610641578063a15ab08d14610654578063a217fddf14610674578063a22cb46514610689578063a32fa5b3146106a9578063ac9650d8146106c9578063b03f4528146106f6578063b17cd86f14610716578063bd85b03914610755578063ca15c87314610782578063d547741f146107a2578063e8a3d485146107c2578063e985e9c5146107d7578063f242432a14610812578063f5298aca14610832578063f6d2e24714610852575b600080fd5b34801561022857600080fd5b5061025461023736600461435b565b600260209081526000928352604080842090915290825290205481565b6040519081526020015b60405180910390f35b34801561027357600080fd5b5061028761028236600461447e565b610872565b604051901515815260200161025e565b3480156102a357600080fd5b506102876102b2366004614503565b61088b565b3480156102c357600080fd5b506102cc6108dd565b60405161025e9190614578565b3480156102e557600080fd5b506102cc6102f436600461458b565b61096b565b34801561030557600080fd5b506103196103143660046145a4565b610a59565b005b34801561032757600080fd5b5042610254565b34801561033a57600080fd5b5061025461034936600461458b565b610a92565b34801561035a57600080fd5b5061025461036936600461458b565b6000908152600c602052604090205490565b34801561038757600080fd5b50610319610396366004614653565b610b00565b3480156103a757600080fd5b506103196103b63660046146fc565b610b6a565b3480156103c757600080fd5b506103196103d63660046146fc565b610c04565b3480156103e757600080fd5b506103196103f63660046145a4565b610c63565b34801561040757600080fd5b50600e54610254565b34801561041c57600080fd5b5061025461042b36600461458b565b60126020526000908152604090205481565b34801561044957600080fd5b50610319610458366004614728565b610d29565b34801561046957600080fd5b5061047d61047836600461478b565b610e1e565b60405161025e9190614886565b610319610498366004614899565b610f32565b3480156104a957600080fd5b506104d36104b836600461458b565b6000908152601060205260409020546001600160a01b031690565b6040516001600160a01b03909116815260200161025e565b3480156104f757600080fd5b50610254610fe8565b34801561050c57600080fd5b50600754610254565b34801561052157600080fd5b506103196105303660046148e9565b611097565b34801561054157600080fd5b5061031961055036600461499d565b6111eb565b34801561056157600080fd5b506102546000805160206157bc83398151915281565b34801561058357600080fd5b506104d361132f565b34801561059857600080fd5b506104d36105a7366004614a29565b61133e565b3480156105b857600080fd5b506102876105c73660046146fc565b61142d565b3480156105d857600080fd5b506103196105e7366004614a4b565b611458565b3480156105f857600080fd5b50610319610607366004614a29565b611485565b34801561061857600080fd5b50610319610627366004614a7f565b61150b565b34801561063857600080fd5b506102cc6116a0565b6104d361064f366004614b17565b6116ad565b34801561066057600080fd5b5061031961066f366004614899565b611894565b34801561068057600080fd5b50610254600081565b34801561069557600080fd5b506103196106a4366004614b96565b611976565b3480156106b557600080fd5b506102876106c43660046146fc565b611a2e565b3480156106d557600080fd5b506106e96106e4366004614bcd565b611a84565b60405161025e9190614c0e565b34801561070257600080fd5b50610319610711366004614c70565b611b78565b34801561072257600080fd5b50610736610731366004614b17565b611c27565b6040805192151583526001600160a01b0390911660208301520161025e565b34801561076157600080fd5b5061025461077036600461458b565b600f6020526000908152604090205481565b34801561078e57600080fd5b5061025461079d36600461458b565b611c6b565b3480156107ae57600080fd5b506103196107bd3660046146fc565b611cf4565b3480156107ce57600080fd5b506102cc611d0d565b3480156107e357600080fd5b506102876107f2366004614cce565b600360209081526000928352604080842090915290825290205460ff1681565b34801561081e57600080fd5b5061031961082d366004614cf8565b611d1a565b34801561083e57600080fd5b5061031961084d366004614d5c565b611d7d565b34801561085e57600080fd5b5061031961086d366004614d8f565b611e24565b600061088085858585611efc565b90505b949350505050565b6000636cdb3d1360e11b6001600160e01b0319831614806108bc57506303a24d0760e21b6001600160e01b03198316145b806108d757506001600160e01b0319821663152a902d60e11b145b92915050565b600080546108ea90614e0c565b80601f016020809104026020016040519081016040528092919081815260200182805461091690614e0c565b80156109635780601f1061093857610100808354040283529160200191610963565b820191906000526020600020905b81548152906001019060200180831161094657829003601f168201915b505050505081565b60008181526004602052604081208054606092919061098990614e0c565b80601f01602080910402602001604051908101604052809291908181526020018280546109b590614e0c565b8015610a025780601f106109d757610100808354040283529160200191610a02565b820191906000526020600020905b8154815290600101906020018083116109e557829003601f168201915b50505050509050600081511115610a195792915050565b6000610a2484611fc9565b905080610a3085612165565b604051602001610a41929190614e41565b60405160208183030381529060405292505050919050565b610a61612262565b610a865760405162461bcd60e51b8152600401610a7d90614e70565b60405180910390fd5b610a8f81612285565b50565b6000610a9d60075490565b8210610adb5760405162461bcd60e51b815260206004820152600d60248201526c092dcecc2d8d2c840d2dcc8caf609b1b6044820152606401610a7d565b60078281548110610aee57610aee614e98565b90600052602060002001549050919050565b6001600160a01b038516331480610b3a57506001600160a01b038516600090815260036020908152604080832033845290915290205460ff165b610b565760405162461bcd60e51b8152600401610a7d90614eae565b610b6385858585856122d7565b5050505050565b6000828152600c6020526040902054610b839033612478565b6000828152600b602090815260408083206001600160a01b038516845290915290205460ff1615610bf65760405162461bcd60e51b815260206004820152601d60248201527f43616e206f6e6c79206772616e7420746f206e6f6e20686f6c646572730000006044820152606401610a7d565b610c0082826124f8565b5050565b336001600160a01b03821614610c595760405162461bcd60e51b815260206004820152601a60248201527921b0b71037b7363c903932b737bab731b2903337b91039b2b63360311b6044820152606401610a7d565b610c00828261250c565b306001600160a01b037f0000000000000000000000000000000000000000000000000000000000000000161415610cac5760405162461bcd60e51b8152600401610a7d90614eda565b7f00000000000000000000000000000000000000000000000000000000000000006001600160a01b0316610cde612563565b6001600160a01b031614610d045760405162461bcd60e51b8152600401610a7d90614f14565b610d0d8161257f565b60408051600080825260208201909252610a8f918391906125b5565b600a54610100900460ff1615808015610d495750600a54600160ff909116105b80610d6a5750610d5830612720565b158015610d6a5750600a5460ff166001145b610d865760405162461bcd60e51b8152600401610a7d90614f4e565b600a805460ff191660011790558015610da957600a805461ff0019166101001790555b8251610dbc9060009060208601906142a6565b508151610dd09060019060208501906142a6565b50610dda33612285565b610de56000336124f8565b8015610e1957600a805461ff0019169055604051600181526000805160206157fc8339815191529060200160405180910390a15b505050565b60608151835114610e415760405162461bcd60e51b8152600401610a7d90614f9c565b600083516001600160401b03811115610e5c57610e5c614385565b604051908082528060200260200182016040528015610e85578160200160208202803683370190505b50905060005b8451811015610f2a5760026000868381518110610eaa57610eaa614e98565b60200260200101516001600160a01b03166001600160a01b031681526020019081526020016000206000858381518110610ee657610ee6614e98565b6020026020010151815260200190815260200160002054828281518110610f0f57610f0f614e98565b6020908102919091010152610f2381614fdb565b9050610e8b565b509392505050565b306001600160a01b037f0000000000000000000000000000000000000000000000000000000000000000161415610f7b5760405162461bcd60e51b8152600401610a7d90614eda565b7f00000000000000000000000000000000000000000000000000000000000000006001600160a01b0316610fad612563565b6001600160a01b031614610fd35760405162461bcd60e51b8152600401610a7d90614f14565b610fdc8261257f565b610c00828260016125b5565b6000306001600160a01b037f000000000000000000000000000000000000000000000000000000000000000016146110835760405162461bcd60e51b815260206004820152603860248201527f555550535570677261646561626c653a206d757374206e6f742062652063616c6044820152771b1959081d1a1c9bdd59da0819195b1959d85d1958d85b1b60421b6064820152608401610a7d565b506000805160206157dc8339815191525b90565b336001600160a01b0384168114806110d457506001600160a01b0380851660009081526003602090815260408083209385168352929052205460ff165b6110f05760405162461bcd60e51b8152600401610a7d90614ff6565b81518351146111335760405162461bcd60e51b815260206004820152600f60248201526e098cadccee8d040dad2e6dac2e8c6d608b1b6044820152606401610a7d565b60005b83518110156111d95782818151811061115157611151614e98565b602002602001015160026000876001600160a01b03166001600160a01b03168152602001908152602001600020600086848151811061119257611192614e98565b602002602001015181526020019081526020016000205410156111c75760405162461bcd60e51b8152600401610a7d90615021565b6111d2600182615052565b9050611136565b506111e584848461272f565b50505050565b6112036000805160206157bc8339815191523361142d565b80611226575061121161132f565b6001600160a01b0316336001600160a01b0316145b6112425760405162461bcd60e51b8152600401610a7d9061506a565b61128686868080601f016020809104026020016040519081016040528093929190818152602001838380828437600092019190915250889250869150859050611efc565b6112c65760405162461bcd60e51b8152602060048201526011602482015270159bdd58da195c881b9bdd081d985b1a59607a1b6044820152606401610a7d565b6112e28385604051806020016040528060008152506001611b78565b600086866040516020016112f79291906150c3565b60408051601f198184030181529181528151602092830120600090815260119092529020805460ff1916600117905550505050505050565b6006546001600160a01b031690565b6000828152600d602052604081205481805b82811015611424576000868152600d602090815260408083208484526001019091529020546001600160a01b0316156113cd57848214156113bb576000868152600d602090815260408083209383526001909301905220546001600160a01b031692506108d7915050565b6113c6600183615052565b9150611412565b6113d886600061142d565b80156113ff57506000868152600d6020908152604080832083805260020190915290205481145b156114125761140f600183615052565b91505b61141d600182615052565b9050611350565b50505092915050565b6000918252600b602090815260408084206001600160a01b0393909316845291905290205460ff1690565b611460612262565b61147c5760405162461bcd60e51b8152600401610a7d90614e70565b610a8f816128b1565b6000828152601060205260409020546001600160a01b03163314806114b95750336114ae61132f565b6001600160a01b0316145b6114f95760405162461bcd60e51b8152602060048201526011602482015270027b7363c9031b932b0ba37b91030b7321607d1b6044820152606401610a7d565b60009182526012602052604090912055565b600082511161152c5760405162461bcd60e51b8152600401610a7d906150d3565b81518351146115705760405162461bcd60e51b815260206004820152601060248201526f2632b733ba341036b4b9b6b0ba31b41760811b6044820152606401610a7d565b600061157b600e5490565b9050806000805b8651811015611660576000198782815181106115a0576115a0614e98565b6020026020010151141561161657838782815181106115c1576115c1614e98565b602090810291909101810191909152600085815260109091526040902080546001600160a01b0319166001600160a01b038a16179055611602600185615052565b935061160f600183615052565b915061164e565b8387828151811061162957611629614e98565b60200260200101511061164e5760405162461bcd60e51b8152600401610a7d90615101565b611659600182615052565b9050611582565b50801561167557611672828286612993565b50505b82600e8190555061169787878760405180602001604052806000815250612a00565b50505050505050565b600180546108ea90614e0c565b6000808460c00135116116d25760405162461bcd60e51b8152600401610a7d906150d3565b6000806116de600e5490565b905060001986608001351415611749579050806116fe60208701876145a4565b600083815260106020526040812080546001600160a01b0319166001600160a01b039390931692909217909155600e80546001929061173e908490615052565b909155506117749050565b8086608001351061176c5760405162461bcd60e51b8152600401610a7d90615101565b856080013591505b61177f868686612b49565b9250600061179060208801886145a4565b90506117c66117a56080890160608a016145a4565b60c08901356117bc6101208b016101008c016145a4565b8a60e00135612cdc565b6000198760800135141561181f5761181f836117e560a08a018a615125565b8080601f016020809104026020016040519081016040528093929190818152602001838380828437600092019190915250612d6e92505050565b61183e81848960c0013560405180602001604052806000815250612d8d565b82816001600160a01b0316856001600160a01b03167f0b35afaf155daeef41cc46df86f058df2855c57d30ab134647a6b587e7cc8c398a60405161188291906151fd565b60405180910390a45050509392505050565b6118ac6000805160206157bc8339815191523361142d565b806118cf57506118ba61132f565b6001600160a01b0316336001600160a01b0316145b6118eb5760405162461bcd60e51b8152600401610a7d9061506a565b6000806118f7600e5490565b90508091506001600e600082825461190f9190615052565b9091555050600081815260106020526040902080546001600160a01b0319166001600160a01b0386161790556119458284612d6e565b60405182907f5871761b381266e7e47309f0821d5b396364ebb6371d878871cac5393cb93ea890600090a250505050565b336001600160a01b0383168114156119c15760405162461bcd60e51b815260206004820152600e60248201526d20a8282927ab24a723afa9a2a62360911b6044820152606401610a7d565b6001600160a01b03818116600081815260036020908152604080832094881680845294825291829020805460ff191687151590811790915591519182527f17307eab39ab6107e8899845ad3d59bd9653f200f220920489ca2b5937696c31910160405180910390a3505050565b6000828152600b6020908152604080832083805290915281205460ff16611a7b57506000828152600b602090815260408083206001600160a01b038516845290915290205460ff166108d7565b50600192915050565b6060816001600160401b03811115611a9e57611a9e614385565b604051908082528060200260200182016040528015611ad157816020015b6060815260200190600190039081611abc5790505b50905060005b82811015611b7157611b4130858584818110611af557611af5614e98565b9050602002810190611b079190615125565b8080601f016020809104026020016040519081016040528093929190818152602001838380828437600092019190915250612e5492505050565b828281518110611b5357611b53614e98565b60200260200101819052508080611b6990614fdb565b915050611ad7565b5092915050565b600080611b84600e5490565b9050600019851415611be1578091506001600e6000828254611ba69190615052565b9091555050600081815260106020526040902080546001600160a01b0319166001600160a01b038816179055611bdc8185612d6e565b611c04565b808510611c005760405162461bcd60e51b8152600401610a7d90615101565b8491505b611c1f86838560405180602001604052806000815250612d8d565b505050505050565b600080611c35858585612e80565b61016086013560009081526009602052604090205490915060ff16158015611c615750611c6181612edc565b9150935093915050565b6000818152600d6020526040812054815b81811015611ccf576000848152600d602090815260408083208484526001019091529020546001600160a01b031615611cbd57611cba600184615052565b92505b611cc8600182615052565b9050611c7c565b50611cdb83600061142d565b15611cee57611ceb600183615052565b91505b50919050565b6000828152600c6020526040902054610c599033612478565b600580546108ea90614e0c565b6001600160a01b038516331480611d5457506001600160a01b038516600090815260036020908152604080832033845290915290205460ff165b611d705760405162461bcd60e51b8152600401610a7d90614eae565b610b638585858585612f01565b336001600160a01b038416811480611dba57506001600160a01b0380851660009081526003602090815260408083209385168352929052205460ff165b611dd65760405162461bcd60e51b8152600401610a7d90614ff6565b6001600160a01b0384166000908152600260209081526040808320868452909152902054821115611e195760405162461bcd60e51b8152600401610a7d90615021565b6111e5848484613015565b6006546001600160a01b03163314611e4e5760405162461bcd60e51b8152600401610a7d90614e70565b600a548190610100900460ff16158015611e6f5750600a5460ff8083169116105b611e8b5760405162461bcd60e51b8152600401610a7d90614f4e565b600a805461ffff191660ff8316176101001790558351611eb29060009060208701906142a6565b508251611ec69060019060208601906142a6565b50600a805461ff001916905560405160ff821681526000805160206157fc8339815191529060200160405180910390a150505050565b6000838152601060205260408120546001600160a01b0316611f2057506000610883565b600085604051602001611f339190615308565b60408051601f1981840301815291815281516020928301206000818152601190935291205490915060ff1615611f6d576000915050610883565b60005b83811015611fae57611f9a82868684818110611f8e57611f8e614e98565b90506020020135613107565b915080611fa681614fdb565b915050611f70565b50600085815260126020526040902054149050949350505050565b60606000611fd660075490565b90506000600780548060200260200160405190810160405280929190818152602001828054801561202657602002820191906000526020600020905b815481526020019060010190808311612012575b5050505050905060005b8281101561212a5781818151811061204a5761204a614e98565b6020026020010151851015612118576008600083838151811061206f5761206f614e98565b60200260200101518152602001908152602001600020805461209090614e0c565b80601f01602080910402602001604051908101604052809291908181526020018280546120bc90614e0c565b80156121095780601f106120de57610100808354040283529160200191612109565b820191906000526020600020905b8154815290600101906020018083116120ec57829003601f168201915b50505050509350505050919050565b612123600182615052565b9050612030565b5060405162461bcd60e51b815260206004820152600f60248201526e125b9d985b1a59081d1bdad95b9259608a1b6044820152606401610a7d565b6060816121895750506040805180820190915260018152600360fc1b602082015290565b8160005b81156121b3578061219d81614fdb565b91506121ac9050600a8361533a565b915061218d565b6000816001600160401b038111156121cd576121cd614385565b6040519080825280601f01601f1916602001820160405280156121f7576020820181803683370190505b5090505b84156108835761220c60018361534e565b9150612219600a86615365565b612224906030615052565b60f81b81838151811061223957612239614e98565b60200101906001600160f81b031916908160001a90535061225b600a8661533a565b94506121fb565b600061226c61132f565b6001600160a01b0316336001600160a01b031614905090565b600680546001600160a01b038381166001600160a01b0319831681179093556040519116919082907f8292fce18fa69edf4db7b94ea2e58241df0ae57f97e0a6c9b29067028bf92d7690600090a35050565b81518351146122f85760405162461bcd60e51b8152600401610a7d90614f9c565b6001600160a01b03841661231e5760405162461bcd60e51b8152600401610a7d90615379565b3361232d818787878787613136565b60005b845181101561242457600085828151811061234d5761234d614e98565b60200260200101519050600085838151811061236b5761236b614e98565b6020908102919091018101516001600160a01b038b1660009081526002835260408082208683529093529190912054909150818110156123bd5760405162461bcd60e51b8152600401610a7d9061539f565b6001600160a01b03808b16600090815260026020818152604080842088855282528084208787039055938d16835290815282822086835290529081208054849290612409908490615052565b925050819055505050508061241d90614fdb565b9050612330565b50846001600160a01b0316866001600160a01b0316826001600160a01b031660008051602061575c83398151915287876040516124629291906153c9565b60405180910390a4611c1f818787878787613242565b6000828152600b602090815260408083206001600160a01b038516845290915290205460ff16610c00576124b6816001600160a01b03166014613374565b6124c1836020613374565b6040516020016124d29291906153f7565b60408051601f198184030181529082905262461bcd60e51b8252610a7d91600401614578565b612502828261350f565b610c00828261356a565b61251682826135d7565b6000828152600d602090815260408083206001600160a01b03851680855260028201808552838620805487526001909301855292852080546001600160a01b031916905584529152555050565b6000805160206157dc833981519152546001600160a01b031690565b61258761132f565b6001600160a01b0316336001600160a01b031614806125ac57506125ac60003361142d565b610a8f57600080fd5b7f4910fdfa16fed3260ed0e7147f7cc6da11a60208b5b9406d12a635614ffd91435460ff16156125e857610e1983613639565b826001600160a01b03166352d1902d6040518163ffffffff1660e01b8152600401602060405180830381865afa925050508015612642575060408051601f3d908101601f1916820190925261263f91810190615464565b60015b6126a55760405162461bcd60e51b815260206004820152602e60248201527f45524331393637557067726164653a206e657720696d706c656d656e7461746960448201526d6f6e206973206e6f74205555505360901b6064820152608401610a7d565b6000805160206157dc83398151915281146127145760405162461bcd60e51b815260206004820152602960248201527f45524331393637557067726164653a20756e737570706f727465642070726f786044820152681a58589b195555525160ba1b6064820152608401610a7d565b50610e198383836136d3565b6001600160a01b03163b151590565b6001600160a01b0383166127555760405162461bcd60e51b8152600401610a7d9061547d565b80518251146127765760405162461bcd60e51b8152600401610a7d90614f9c565b600033905061279981856000868660405180602001604052806000815250613136565b60005b83518110156128645760008482815181106127b9576127b9614e98565b6020026020010151905060008483815181106127d7576127d7614e98565b6020908102919091018101516001600160a01b03891660009081526002835260408082208683529093529190912054909150818110156128295760405162461bcd60e51b8152600401610a7d9061539f565b6001600160a01b038816600090815260026020908152604080832095835294905292909220910390558061285c81614fdb565b91505061279c565b5060006001600160a01b0316846001600160a01b0316826001600160a01b031660008051602061575c83398151915286866040516128a39291906153c9565b60405180910390a450505050565b6000600580546128c090614e0c565b80601f01602080910402602001604051908101604052809291908181526020018280546128ec90614e0c565b80156129395780601f1061290e57610100808354040283529160200191612939565b820191906000526020600020905b81548152906001019060200180831161291c57829003601f168201915b50508551939450612955936005935060208701925090506142a6565b507fc9c7c3fe08b88b4df9d4d47ef47d2c43d55c025a0ba88ca442580ed9e7348a1681836040516129879291906154a5565b60405180910390a15050565b6000806129a08486615052565b60078054600181019091557fa66cc928b5edb82af9bd49922954155ab7b0942694bea4ce44661d9a8736c68801819055600081815260086020908152604090912085519294508493506129f79290918601906142a6565b50935093915050565b6001600160a01b038416612a265760405162461bcd60e51b8152600401610a7d90615379565b8151835114612a475760405162461bcd60e51b8152600401610a7d90614f9c565b33612a5781600087878787613136565b60005b8451811015612af357838181518110612a7557612a75614e98565b602002602001015160026000886001600160a01b03166001600160a01b031681526020019081526020016000206000878481518110612ab657612ab6614e98565b602002602001015181526020019081526020016000206000828254612adb9190615052565b90915550819050612aeb81614fdb565b915050612a5a565b50846001600160a01b031660006001600160a01b0316826001600160a01b031660008051602061575c8339815191528787604051612b329291906153c9565b60405180910390a4610b6381600087878787613242565b600080612b57858585611c27565b9250905080612b9a5760405162461bcd60e51b815260206004820152600f60248201526e125b9d985b1a59081c995c5d595cdd608a1b6044820152606401610a7d565b42612bad610140870161012088016154ca565b6001600160801b031611158015612bde5750612bd1610160860161014087016154ca565b6001600160801b03164211155b612c1c5760405162461bcd60e51b815260206004820152600f60248201526e14995c5d595cdd08195e1c1a5c9959608a1b6044820152606401610a7d565b6000612c2b60208701876145a4565b6001600160a01b03161415612c785760405162461bcd60e51b81526020600482015260136024820152721c9958da5c1a595b9d081d5b9919599a5b9959606a1b6044820152606401610a7d565b60008560c0013511612cb45760405162461bcd60e51b8152602060048201526005602482015264302071747960d81b6044820152606401610a7d565b50610160909301356000908152600960205260409020805460ff191660011790555090919050565b80612ce6576111e5565b6000612cf282856154e5565b90506001600160a01b03831673eeeeeeeeeeeeeeeeeeeeeeeeeeeeeeeeeeeeeeee1415612d6157803414612d615760405162461bcd60e51b815260206004820152601660248201527526bab9ba1039b2b732103a37ba30b610383934b1b29760511b6044820152606401610a7d565b84611c1f843383856136f8565b60008281526004602090815260409091208251610e19928401906142a6565b6001600160a01b038416612db35760405162461bcd60e51b8152600401610a7d90615379565b33612dd381600087612dc488613742565b612dcd88613742565b87613136565b6001600160a01b038516600090815260026020908152604080832087845290915281208054859290612e06908490615052565b909155505060408051858152602081018590526001600160a01b03808816926000929185169160008051602061577c833981519152910160405180910390a4610b638160008787878761378d565b6060612e79838360405180606001604052806027815260200161581c60279139613848565b9392505050565b600061088383838080601f016020809104026020016040519081016040528093929190818152602001838380828437600092019190915250612ed69250612eca9150889050613923565b80519060200120613a19565b90613a67565b6000612ee661132f565b6001600160a01b0316826001600160a01b0316149050919050565b6001600160a01b038416612f275760405162461bcd60e51b8152600401610a7d90615379565b33612f37818787612dc488613742565b6001600160a01b038616600090815260026020908152604080832087845290915290205483811015612f7b5760405162461bcd60e51b8152600401610a7d9061539f565b6001600160a01b0380881660009081526002602081815260408084208a855282528084208987039055938a16835290815282822088835290529081208054869290612fc7908490615052565b909155505060408051868152602081018690526001600160a01b03808916928a8216929186169160008051602061577c833981519152910160405180910390a461169782888888888861378d565b6001600160a01b03831661303b5760405162461bcd60e51b8152600401610a7d9061547d565b3361306a8185600061304c87613742565b61305587613742565b60405180602001604052806000815250613136565b6001600160a01b0384166000908152600260209081526040808320868452909152902054828110156130ae5760405162461bcd60e51b8152600401610a7d9061539f565b6001600160a01b038581166000818152600260209081526040808320898452825280832088870390558051898152918201889052919386169160008051602061577c833981519152910160405180910390a45050505050565b6000818310613123576000828152602084905260409020612e79565b6000838152602083905260409020612e79565b6001600160a01b0385166131bd5760005b83518110156131bb5782818151811061316257613162614e98565b6020026020010151600f600086848151811061318057613180614e98565b6020026020010151815260200190815260200160002060008282546131a59190615052565b909155506131b4905081614fdb565b9050613147565b505b6001600160a01b038416611c1f5760005b8351811015611697578281815181106131e9576131e9614e98565b6020026020010151600f600086848151811061320757613207614e98565b60200260200101518152602001908152602001600020600082825461322c919061534e565b9091555061323b905081614fdb565b90506131ce565b6001600160a01b0384163b15611c1f5760405163bc197c8160e01b81526001600160a01b0385169063bc197c81906132869089908990889088908890600401615504565b6020604051808303816000875af19250505080156132c1575060408051601f3d908101601f191682019092526132be91810190615562565b60015b613344576132cd61557f565b806308c379a0141561330757506132e261559a565b806132ed5750613309565b8060405162461bcd60e51b8152600401610a7d9190614578565b505b60405162461bcd60e51b815260206004820152601060248201526f10a2a92198989a9aa922a1a2a4ab22a960811b6044820152606401610a7d565b6001600160e01b0319811663bc197c8160e01b146116975760405162461bcd60e51b8152600401610a7d90615623565b606060006133838360026154e5565b61338e906002615052565b6001600160401b038111156133a5576133a5614385565b6040519080825280601f01601f1916602001820160405280156133cf576020820181803683370190505b509050600360fc1b816000815181106133ea576133ea614e98565b60200101906001600160f81b031916908160001a905350600f60fb1b8160018151811061341957613419614e98565b60200101906001600160f81b031916908160001a905350600061343d8460026154e5565b613448906001615052565b90505b60018111156134c0576f181899199a1a9b1b9c1cb0b131b232b360811b85600f166010811061347c5761347c614e98565b1a60f81b82828151811061349257613492614e98565b60200101906001600160f81b031916908160001a90535060049490941c936134b98161564c565b905061344b565b508315612e795760405162461bcd60e51b815260206004820181905260248201527f537472696e67733a20686578206c656e67746820696e73756666696369656e746044820152606401610a7d565b6000828152600b602090815260408083206001600160a01b0385168085529252808320805460ff1916600117905551339285917f2f8788117e7eff1d82e926ec794901d17c78024a50270940304540a733656f0d9190a45050565b6000828152600d60205260408120805491600191906135898385615052565b90915550506000928352600d6020908152604080852083865260018101835281862080546001600160a01b039096166001600160a01b03199096168617905593855260029093019052912055565b6135e18282612478565b6000828152600b602090815260408083206001600160a01b0385168085529252808320805460ff1916905551339285917ff6391f5c32d9c69d2a47ea670b442974b53935d1edc7fd64eb21e047a839171b9190a45050565b61364281612720565b6136a45760405162461bcd60e51b815260206004820152602d60248201527f455243313936373a206e657720696d706c656d656e746174696f6e206973206e60448201526c1bdd08184818dbdb9d1c9858dd609a1b6064820152608401610a7d565b6000805160206157dc83398151915280546001600160a01b0319166001600160a01b0392909216919091179055565b6136dc83613a83565b6000825111806136e95750805b15610e19576111e58383612e54565b80613702576111e5565b6001600160a01b03841673eeeeeeeeeeeeeeeeeeeeeeeeeeeeeeeeeeeeeeee1415613736576137318282613ac3565b6111e5565b6111e584848484613b65565b6040805160018082528183019092526060916000919060208083019080368337019050509050828160008151811061377c5761377c614e98565b602090810291909101015292915050565b6001600160a01b0384163b15611c1f5760405163f23a6e6160e01b81526001600160a01b0385169063f23a6e61906137d19089908990889088908890600401615663565b6020604051808303816000875af192505050801561380c575060408051601f3d908101601f1916820190925261380991810190615562565b60015b613818576132cd61557f565b6001600160e01b0319811663f23a6e6160e01b146116975760405162461bcd60e51b8152600401610a7d90615623565b606061385384612720565b6138ae5760405162461bcd60e51b815260206004820152602660248201527f416464726573733a2064656c65676174652063616c6c20746f206e6f6e2d636f6044820152651b9d1c9858dd60d21b6064820152608401610a7d565b600080856001600160a01b0316856040516138c99190615308565b600060405180830381855af49150503d8060008114613904576040519150601f19603f3d011682016040523d82523d6000602084013e613909565b606091505b5091509150613919828286613bbe565b9695505050505050565b60607fc7a95ef88f83fa833ccfce325157b7111633b181b6a27181b86415d8d501134d61395360208401846145a4565b61396360408501602086016145a4565b604085013561397860808701606088016145a4565b608087013561398a60a0890189615125565b6040516139989291906150c3565b60405190819003902060c089013560e08a01356139bd6101208c016101008d016145a4565b6139cf6101408d016101208e016154ca565b6139e16101608e016101408f016154ca565b8d6101600135604051602001613a039d9c9b9a9998979695949392919061569d565b6040516020818303038152906040529050919050565b60006108d7613a26613bf7565b8360405161190160f01b6020820152602281018390526042810182905260009060620160405160208183030381529060405280519060200120905092915050565b6000806000613a768585613d1e565b91509150610f2a81613d8e565b613a8c81613639565b6040516001600160a01b038216907fbc7cd75a20ee27fd9adebab32041f755214dbc6bffa90cc0225b39da2e5c2d3b90600090a250565b6000826001600160a01b03168260405160006040518083038185875af1925050503d8060008114613b10576040519150601f19603f3d011682016040523d82523d6000602084013e613b15565b606091505b5050905080610e195760405162461bcd60e51b815260206004820152601c60248201527b1b985d1a5d99481d1bdad95b881d1c985b9cd9995c8819985a5b195960221b6044820152606401610a7d565b816001600160a01b0316836001600160a01b03161415613b84576111e5565b6001600160a01b038316301415613ba9576137316001600160a01b0385168383613f44565b6111e56001600160a01b038516848484613fa7565b60608315613bcd575081612e79565b825115613bdd5782518084602001fd5b8160405162461bcd60e51b8152600401610a7d9190614578565b6000306001600160a01b037f000000000000000000000000000000000000000000000000000000000000000016148015613c5057507f000000000000000000000000000000000000000000000000000000000000000046145b15613c7a57507f000000000000000000000000000000000000000000000000000000000000000090565b50604080517f00000000000000000000000000000000000000000000000000000000000000006020808301919091527f0000000000000000000000000000000000000000000000000000000000000000828401527f000000000000000000000000000000000000000000000000000000000000000060608301524660808301523060a0808401919091528351808403909101815260c0909201909252805191012090565b600080825160411415613d555760208301516040840151606085015160001a613d4987828585613fdf565b94509450505050613d87565b825160401415613d7f5760208301516040840151613d748683836140c2565b935093505050613d87565b506000905060025b9250929050565b6000816004811115613da257613da2615728565b1415613dab5750565b6001816004811115613dbf57613dbf615728565b1415613e085760405162461bcd60e51b815260206004820152601860248201527745434453413a20696e76616c6964207369676e617475726560401b6044820152606401610a7d565b6002816004811115613e1c57613e1c615728565b1415613e6a5760405162461bcd60e51b815260206004820152601f60248201527f45434453413a20696e76616c6964207369676e6174757265206c656e677468006044820152606401610a7d565b6003816004811115613e7e57613e7e615728565b1415613ed75760405162461bcd60e51b815260206004820152602260248201527f45434453413a20696e76616c6964207369676e6174757265202773272076616c604482015261756560f01b6064820152608401610a7d565b6004816004811115613eeb57613eeb615728565b1415610a8f5760405162461bcd60e51b815260206004820152602260248201527f45434453413a20696e76616c6964207369676e6174757265202776272076616c604482015261756560f01b6064820152608401610a7d565b6040516001600160a01b038316602482015260448101829052610e1990849063a9059cbb60e01b906064015b60408051601f198184030181529190526020810180516001600160e01b03166001600160e01b0319909316929092179091526140fb565b6040516001600160a01b03808516602483015283166044820152606481018290526111e59085906323b872dd60e01b90608401613f70565b6000806fa2a8918ca85bafe22016d0b997e4df60600160ff1b0383111561400c57506000905060036140b9565b8460ff16601b1415801561402457508460ff16601c14155b1561403557506000905060046140b9565b6040805160008082526020820180845289905260ff881692820192909252606081018690526080810185905260019060a0016020604051602081039080840390855afa158015614089573d6000803e3d6000fd5b5050604051601f1901519150506001600160a01b0381166140b2576000600192509250506140b9565b9150600090505b94509492505050565b6000806001600160ff1b038316816140df60ff86901c601b615052565b90506140ed87828885613fdf565b935093505050935093915050565b6000614150826040518060400160405280602081526020017f5361666545524332303a206c6f772d6c6576656c2063616c6c206661696c6564815250856001600160a01b03166141cd9092919063ffffffff16565b805190915015610e19578080602001905181019061416e919061573e565b610e195760405162461bcd60e51b815260206004820152602a60248201527f5361666545524332303a204552433230206f7065726174696f6e20646964206e6044820152691bdd081cdd58d8d9595960b21b6064820152608401610a7d565b60606108838484600085856141e185612720565b61422d5760405162461bcd60e51b815260206004820152601d60248201527f416464726573733a2063616c6c20746f206e6f6e2d636f6e74726163740000006044820152606401610a7d565b600080866001600160a01b031685876040516142499190615308565b60006040518083038185875af1925050503d8060008114614286576040519150601f19603f3d011682016040523d82523d6000602084013e61428b565b606091505b509150915061429b828286613bbe565b979650505050505050565b8280546142b290614e0c565b90600052602060002090601f0160209004810192826142d4576000855561431a565b82601f106142ed57805160ff191683800117855561431a565b8280016001018555821561431a579182015b8281111561431a5782518255916020019190600101906142ff565b5061432692915061432a565b5090565b5b80821115614326576000815560010161432b565b80356001600160a01b038116811461435657600080fd5b919050565b6000806040838503121561436e57600080fd5b6143778361433f565b946020939093013593505050565b634e487b7160e01b600052604160045260246000fd5b601f8201601f191681016001600160401b03811182821017156143c0576143c0614385565b6040525050565b600082601f8301126143d857600080fd5b81356001600160401b038111156143f1576143f1614385565b604051614408601f8301601f19166020018261439b565b81815284602083860101111561441d57600080fd5b816020850160208301376000918101602001919091529392505050565b60008083601f84011261444c57600080fd5b5081356001600160401b0381111561446357600080fd5b6020830191508360208260051b8501011115613d8757600080fd5b6000806000806060858703121561449457600080fd5b84356001600160401b03808211156144ab57600080fd5b6144b7888389016143c7565b95506020870135945060408701359150808211156144d457600080fd5b506144e18782880161443a565b95989497509550505050565b6001600160e01b031981168114610a8f57600080fd5b60006020828403121561451557600080fd5b8135612e79816144ed565b60005b8381101561453b578181015183820152602001614523565b838111156111e55750506000910152565b60008151808452614564816020860160208601614520565b601f01601f19169290920160200192915050565b602081526000612e79602083018461454c565b60006020828403121561459d57600080fd5b5035919050565b6000602082840312156145b657600080fd5b612e798261433f565b60006001600160401b038211156145d8576145d8614385565b5060051b60200190565b600082601f8301126145f357600080fd5b81356020614600826145bf565b60405161460d828261439b565b83815260059390931b850182019282810191508684111561462d57600080fd5b8286015b848110156146485780358352918301918301614631565b509695505050505050565b600080600080600060a0868803121561466b57600080fd5b6146748661433f565b94506146826020870161433f565b935060408601356001600160401b038082111561469e57600080fd5b6146aa89838a016145e2565b945060608801359150808211156146c057600080fd5b6146cc89838a016145e2565b935060808801359150808211156146e257600080fd5b506146ef888289016143c7565b9150509295509295909350565b6000806040838503121561470f57600080fd5b8235915061471f6020840161433f565b90509250929050565b6000806040838503121561473b57600080fd5b82356001600160401b038082111561475257600080fd5b61475e868387016143c7565b9350602085013591508082111561477457600080fd5b50614781858286016143c7565b9150509250929050565b6000806040838503121561479e57600080fd5b82356001600160401b03808211156147b557600080fd5b818501915085601f8301126147c957600080fd5b813560206147d6826145bf565b6040516147e3828261439b565b83815260059390931b850182019282810191508984111561480357600080fd5b948201945b83861015614828576148198661433f565b82529482019490820190614808565b9650508601359250508082111561483e57600080fd5b50614781858286016145e2565b600081518084526020808501945080840160005b8381101561487b5781518752958201959082019060010161485f565b509495945050505050565b602081526000612e79602083018461484b565b600080604083850312156148ac57600080fd5b6148b58361433f565b915060208301356001600160401b038111156148d057600080fd5b614781858286016143c7565b6001600160a01b03169052565b6000806000606084860312156148fe57600080fd5b6149078461433f565b925060208401356001600160401b038082111561492357600080fd5b61492f878388016145e2565b9350604086013591508082111561494557600080fd5b50614952868287016145e2565b9150509250925092565b60008083601f84011261496e57600080fd5b5081356001600160401b0381111561498557600080fd5b602083019150836020828501011115613d8757600080fd5b600080600080600080608087890312156149b657600080fd5b86356001600160401b03808211156149cd57600080fd5b6149d98a838b0161495c565b9098509650602089013595508691506149f460408a0161433f565b94506060890135915080821115614a0a57600080fd5b50614a1789828a0161443a565b979a9699509497509295939492505050565b60008060408385031215614a3c57600080fd5b50508035926020909101359150565b600060208284031215614a5d57600080fd5b81356001600160401b03811115614a7357600080fd5b610883848285016143c7565b60008060008060808587031215614a9557600080fd5b614a9e8561433f565b935060208501356001600160401b0380821115614aba57600080fd5b614ac6888389016145e2565b94506040870135915080821115614adc57600080fd5b614ae8888389016145e2565b93506060870135915080821115614afe57600080fd5b50614b0b878288016143c7565b91505092959194509250565b600080600060408486031215614b2c57600080fd5b83356001600160401b0380821115614b4357600080fd5b908501906101808288031215614b5857600080fd5b90935060208501359080821115614b6e57600080fd5b50614b7b8682870161495c565b9497909650939450505050565b8015158114610a8f57600080fd5b60008060408385031215614ba957600080fd5b614bb28361433f565b91506020830135614bc281614b88565b809150509250929050565b60008060208385031215614be057600080fd5b82356001600160401b03811115614bf657600080fd5b614c028582860161443a565b90969095509350505050565b6000602080830181845280855180835260408601915060408160051b870101925083870160005b82811015614c6357603f19888603018452614c5185835161454c565b94509285019290850190600101614c35565b5092979650505050505050565b60008060008060808587031215614c8657600080fd5b614c8f8561433f565b93506020850135925060408501356001600160401b03811115614cb157600080fd5b614cbd878288016143c7565b949793965093946060013593505050565b60008060408385031215614ce157600080fd5b614cea8361433f565b915061471f6020840161433f565b600080600080600060a08688031215614d1057600080fd5b614d198661433f565b9450614d276020870161433f565b9350604086013592506060860135915060808601356001600160401b03811115614d5057600080fd5b6146ef888289016143c7565b600080600060608486031215614d7157600080fd5b614d7a8461433f565b95602085013595506040909401359392505050565b600080600060608486031215614da457600080fd5b83356001600160401b0380821115614dbb57600080fd5b614dc7878388016143c7565b94506020860135915080821115614ddd57600080fd5b50614dea868287016143c7565b925050604084013560ff81168114614e0157600080fd5b809150509250925092565b600181811c90821680614e2057607f821691505b60208210811415611cee57634e487b7160e01b600052602260045260246000fd5b60008351614e53818460208801614520565b835190830190614e67818360208801614520565b01949350505050565b6020808252600e908201526d139bdd08185d5d1a1bdc9a5e995960921b604082015260600190565b634e487b7160e01b600052603260045260246000fd5b6020808252601290820152710853d5d3915497d3d497d054141493d5915160721b604082015260600190565b6020808252602c9082015260008051602061579c83398151915260408201526b19195b1959d85d1958d85b1b60a21b606082015260800190565b6020808252602c9082015260008051602061579c83398151915260408201526b6163746976652070726f787960a01b606082015260800190565b6020808252602e908201527f496e697469616c697a61626c653a20636f6e747261637420697320616c72656160408201526d191e481a5b9a5d1a585b1a5e995960921b606082015260800190565b6020808252600f908201526e0988a9c8ea890be9a92a69a82a8869608b1b604082015260600190565b634e487b7160e01b600052601160045260246000fd5b6000600019821415614fef57614fef614fc5565b5060010190565b6020808252601190820152702ab730b8383937bb32b21031b0b63632b960791b604082015260600190565b602080825260179082015276139bdd08195b9bdd59da081d1bdad95b9cc81bdddb9959604a1b604082015260600190565b6000821982111561506557615065614fc5565b500190565b60208082526039908201527f4e7573614e46543a6d696e746572734f724f776e65724f6e6c793a204f4e4c5960408201527817d3525395115494d7d3d497d3d5d3915497d0531313d5d151603a1b606082015260800190565b8183823760009101908152919050565b60208082526014908201527326b4b73a34b733903d32b937903a37b5b2b7399760611b604082015260600190565b6020808252600a90820152691a5b9d985b1a59081a5960b21b604082015260600190565b6000808335601e1984360301811261513c57600080fd5b8301803591506001600160401b0382111561515657600080fd5b602001915036819003821315613d8757600080fd5b6000808335601e1984360301811261518257600080fd5b83016020810192503590506001600160401b038111156151a157600080fd5b803603831315613d8757600080fd5b81835281816020850137506000828201602090810191909152601f909101601f19169091010190565b80356001600160801b038116811461435657600080fd5b6001600160801b03169052565b60208152615216602082016152118461433f565b6148dc565b60006152246020840161433f565b61523160408401826148dc565b50604083013560608301526152486060840161433f565b61525560808401826148dc565b50608083013560a083015261526d60a084018461516b565b6101808060c08601526152856101a0860183856151b0565b925060c086013560e0860152610100915060e0860135828601526152aa82870161433f565b91506101206152bb818701846148dc565b6152c68188016151d9565b9250506101406152d8818701846151f0565b6152e38188016151d9565b9250506101606152f5818701846151f0565b9590950135939094019290925250919050565b6000825161531a818460208701614520565b9190910192915050565b634e487b7160e01b600052601260045260246000fd5b60008261534957615349615324565b500490565b60008282101561536057615360614fc5565b500390565b60008261537457615374615324565b500690565b6020808252600c908201526b2a27afad22a927afa0a2222960a11b604082015260600190565b60208082526010908201526f125394d551919250d251539517d0905360821b604082015260600190565b6040815260006153dc604083018561484b565b82810360208401526153ee818561484b565b95945050505050565b7402832b936b4b9b9b4b7b7399d1030b1b1b7bab73a1605d1b815260008351615427816015850160208801614520565b7001034b99036b4b9b9b4b733903937b6329607d1b6015918401918201528351615458816026840160208801614520565b01602601949350505050565b60006020828403121561547657600080fd5b5051919050565b6020808252600e908201526d232927a6afad22a927afa0a2222960911b604082015260600190565b6040815260006154b8604083018561454c565b82810360208401526153ee818561454c565b6000602082840312156154dc57600080fd5b612e79826151d9565b60008160001904831182151516156154ff576154ff614fc5565b500290565b6001600160a01b0386811682528516602082015260a0604082018190526000906155309083018661484b565b8281036060840152615542818661484b565b90508281036080840152615556818561454c565b98975050505050505050565b60006020828403121561557457600080fd5b8151612e79816144ed565b600060033d11156110945760046000803e5060005160e01c90565b600060443d10156155a85790565b6040516003193d81016004833e81513d6001600160401b0380831160248401831017156155d757505050505090565b82850191508151818111156155ef5750505050505090565b843d87010160208285010111156156095750505050505090565b6156186020828601018761439b565b509095945050505050565b6020808252600f908201526e1513d2d15394d7d491529150d51151608a1b604082015260600190565b60008161565b5761565b614fc5565b506000190190565b6001600160a01b03868116825285166020820152604081018490526060810183905260a06080820181905260009061429b9083018461454c565b8d81526001600160a01b038d811660208301528c81166040830152606082018c90528a8116608083015260a082018a905260c0820189905260e08201889052610100820187905285166101208201526001600160801b0384166101408201526101a0810161570f6101608301856151f0565b826101808301529e9d5050505050505050505050505050565b634e487b7160e01b600052602160045260246000fd5b60006020828403121561575057600080fd5b8151612e7981614b8856fe4a39dc06d4c0dbc64b70af90fd698a233a518aa5d07e595d983b8c0526c8f7fbc3d58168c5ae7397731d063d5bbf3d657854427343f4c083240f7aacaa2d0f6246756e6374696f6e206d7573742062652063616c6c6564207468726f75676820be6a453fdd049461aaa0af9a3f749ab4b8f74b99e5f20df66f381f07e8a3cf5b360894a13ba1a3210667c828492db98dca3e2076cc3735a920a3ca505d382bbc7f26b83ff96e1f2b6a682f133852f6798a09c465da95921460cefb3847402498416464726573733a206c6f772d6c6576656c2064656c65676174652063616c6c206661696c6564a2646970667358221220ad02df39a2abe765a98e4833d0987ab6eff327af5075ce2e1429cfbb0f1b08bd64736f6c634300080b0033",
  "linkReferences": {},
  "deployedLinkReferences": {}
}