{
  "_format": "hh-sol-artifact-1",
  "contractName": "NusaNFT",
  "sourceName": "contracts/NusaNFT.sol",
  "abi": [
    {
      "inputs": [],
      "stateMutability": "nonpayable",
      "type": "constructor"
    },
    {
      "anonymous": false,
      "inputs": [
        {
          "indexed": false,
          "internalType": "address",
          "name": "previousAdmin",
          "type": "address"
        },
        {
          "indexed": false,
          "internalType": "address",
          "name": "newAdmin",
          "type": "address"
        }
      ],
      "name": "AdminChanged",
      "type": "event"
    },
    {
      "anonymous": false,
      "inputs": [
        {
          "indexed": true,
          "internalType": "address",
          "name": "_owner",
          "type": "address"
        },
        {
          "indexed": true,
          "internalType": "address",
          "name": "_operator",
          "type": "address"
        },
        {
          "indexed": false,
          "internalType": "bool",
          "name": "_approved",
          "type": "bool"
        }
      ],
      "name": "ApprovalForAll",
      "type": "event"
    },
    {
      "anonymous": false,
      "inputs": [
        {
          "indexed": true,
          "internalType": "address",
          "name": "beacon",
          "type": "address"
        }
      ],
      "name": "BeaconUpgraded",
      "type": "event"
    },
    {
      "anonymous": false,
      "inputs": [
        {
          "indexed": false,
          "internalType": "string",
          "name": "prevURI",
          "type": "string"
        },
        {
          "indexed": false,
          "internalType": "string",
          "name": "newURI",
          "type": "string"
        }
      ],
      "name": "ContractURIUpdated",
      "type": "event"
    },
    {
      "anonymous": false,
      "inputs": [
        {
          "indexed": false,
          "internalType": "uint8",
          "name": "version",
          "type": "uint8"
        }
      ],
      "name": "Initialized",
      "type": "event"
    },
    {
      "anonymous": false,
      "inputs": [
        {
          "indexed": true,
          "internalType": "address",
          "name": "prevOwner",
          "type": "address"
        },
        {
          "indexed": true,
          "internalType": "address",
          "name": "newOwner",
          "type": "address"
        }
      ],
      "name": "OwnerUpdated",
      "type": "event"
    },
    {
      "anonymous": false,
      "inputs": [
        {
          "indexed": true,
          "internalType": "bytes32",
          "name": "role",
          "type": "bytes32"
        },
        {
          "indexed": true,
          "internalType": "bytes32",
          "name": "previousAdminRole",
          "type": "bytes32"
        },
        {
          "indexed": true,
          "internalType": "bytes32",
          "name": "newAdminRole",
          "type": "bytes32"
        }
      ],
      "name": "RoleAdminChanged",
      "type": "event"
    },
    {
      "anonymous": false,
      "inputs": [
        {
          "indexed": true,
          "internalType": "bytes32",
          "name": "role",
          "type": "bytes32"
        },
        {
          "indexed": true,
          "internalType": "address",
          "name": "account",
          "type": "address"
        },
        {
          "indexed": true,
          "internalType": "address",
          "name": "sender",
          "type": "address"
        }
      ],
      "name": "RoleGranted",
      "type": "event"
    },
    {
      "anonymous": false,
      "inputs": [
        {
          "indexed": true,
          "internalType": "bytes32",
          "name": "role",
          "type": "bytes32"
        },
        {
          "indexed": true,
          "internalType": "address",
          "name": "account",
          "type": "address"
        },
        {
          "indexed": true,
          "internalType": "address",
          "name": "sender",
          "type": "address"
        }
      ],
      "name": "RoleRevoked",
      "type": "event"
    },
    {
      "anonymous": false,
      "inputs": [
        {
          "indexed": true,
          "internalType": "address",
          "name": "signer",
          "type": "address"
        },
        {
          "indexed": true,
          "internalType": "address",
          "name": "mintedTo",
          "type": "address"
        },
        {
          "indexed": true,
          "internalType": "uint256",
          "name": "tokenIdMinted",
          "type": "uint256"
        },
        {
          "components": [
            {
              "internalType": "address",
              "name": "to",
              "type": "address"
            },
            {
              "internalType": "address",
              "name": "royaltyRecipient",
              "type": "address"
            },
            {
              "internalType": "uint256",
              "name": "royaltyBps",
              "type": "uint256"
            },
            {
              "internalType": "address",
              "name": "primarySaleRecipient",
              "type": "address"
            },
            {
              "internalType": "uint256",
              "name": "tokenId",
              "type": "uint256"
            },
            {
              "internalType": "string",
              "name": "uri",
              "type": "string"
            },
            {
              "internalType": "uint256",
              "name": "quantity",
              "type": "uint256"
            },
            {
              "internalType": "uint256",
              "name": "pricePerToken",
              "type": "uint256"
            },
            {
              "internalType": "address",
              "name": "currency",
              "type": "address"
            },
            {
              "internalType": "uint128",
              "name": "validityStartTimestamp",
              "type": "uint128"
            },
            {
              "internalType": "uint128",
              "name": "validityEndTimestamp",
              "type": "uint128"
            },
            {
              "internalType": "bytes32",
              "name": "uid",
              "type": "bytes32"
            }
          ],
          "indexed": false,
          "internalType": "struct ISignatureMintERC1155.MintRequest",
          "name": "mintRequest",
          "type": "tuple"
        }
      ],
      "name": "TokensMintedWithSignature",
      "type": "event"
    },
    {
      "anonymous": false,
      "inputs": [
        {
          "indexed": true,
          "internalType": "address",
          "name": "_operator",
          "type": "address"
        },
        {
          "indexed": true,
          "internalType": "address",
          "name": "_from",
          "type": "address"
        },
        {
          "indexed": true,
          "internalType": "address",
          "name": "_to",
          "type": "address"
        },
        {
          "indexed": false,
          "internalType": "uint256[]",
          "name": "_ids",
          "type": "uint256[]"
        },
        {
          "indexed": false,
          "internalType": "uint256[]",
          "name": "_values",
          "type": "uint256[]"
        }
      ],
      "name": "TransferBatch",
      "type": "event"
    },
    {
      "anonymous": false,
      "inputs": [
        {
          "indexed": true,
          "internalType": "address",
          "name": "_operator",
          "type": "address"
        },
        {
          "indexed": true,
          "internalType": "address",
          "name": "_from",
          "type": "address"
        },
        {
          "indexed": true,
          "internalType": "address",
          "name": "_to",
          "type": "address"
        },
        {
          "indexed": false,
          "internalType": "uint256",
          "name": "_id",
          "type": "uint256"
        },
        {
          "indexed": false,
          "internalType": "uint256",
          "name": "_value",
          "type": "uint256"
        }
      ],
      "name": "TransferSingle",
      "type": "event"
    },
    {
      "anonymous": false,
      "inputs": [
        {
          "indexed": false,
          "internalType": "string",
          "name": "_value",
          "type": "string"
        },
        {
          "indexed": true,
          "internalType": "uint256",
          "name": "_id",
          "type": "uint256"
        }
      ],
      "name": "URI",
      "type": "event"
    },
    {
      "anonymous": false,
      "inputs": [
        {
          "indexed": true,
          "internalType": "address",
          "name": "implementation",
          "type": "address"
        }
      ],
      "name": "Upgraded",
      "type": "event"
    },
    {
      "inputs": [],
      "name": "ADMIN_MINTER_ROLE",
      "outputs": [
        {
          "internalType": "bytes32",
          "name": "",
          "type": "bytes32"
        }
      ],
      "stateMutability": "view",
      "type": "function"
    },
    {
      "inputs": [],
      "name": "DEFAULT_ADMIN_ROLE",
      "outputs": [
        {
          "internalType": "bytes32",
          "name": "",
          "type": "bytes32"
        }
      ],
      "stateMutability": "view",
      "type": "function"
    },
    {
      "inputs": [
        {
          "internalType": "uint256",
          "name": "",
          "type": "uint256"
        }
      ],
      "name": "_rootHashVoucher",
      "outputs": [
        {
          "internalType": "bytes32",
          "name": "",
          "type": "bytes32"
        }
      ],
      "stateMutability": "view",
      "type": "function"
    },
    {
      "inputs": [
        {
          "internalType": "address",
          "name": "",
          "type": "address"
        },
        {
          "internalType": "uint256",
          "name": "",
          "type": "uint256"
        }
      ],
      "name": "balanceOf",
      "outputs": [
        {
          "internalType": "uint256",
          "name": "",
          "type": "uint256"
        }
      ],
      "stateMutability": "view",
      "type": "function"
    },
    {
      "inputs": [
        {
          "internalType": "address[]",
          "name": "accounts",
          "type": "address[]"
        },
        {
          "internalType": "uint256[]",
          "name": "ids",
          "type": "uint256[]"
        }
      ],
      "name": "balanceOfBatch",
      "outputs": [
        {
          "internalType": "uint256[]",
          "name": "",
          "type": "uint256[]"
        }
      ],
      "stateMutability": "view",
      "type": "function"
    },
    {
      "inputs": [
        {
          "internalType": "address",
          "name": "_to",
          "type": "address"
        },
        {
          "internalType": "uint256[]",
          "name": "_tokenIds",
          "type": "uint256[]"
        },
        {
          "internalType": "uint256[]",
          "name": "_amounts",
          "type": "uint256[]"
        },
        {
          "internalType": "string",
          "name": "_baseURI",
          "type": "string"
        }
      ],
      "name": "batchMintTo",
      "outputs": [],
      "stateMutability": "nonpayable",
      "type": "function"
    },
    {
      "inputs": [
        {
          "internalType": "address",
          "name": "_owner",
          "type": "address"
        },
        {
          "internalType": "uint256",
          "name": "_tokenId",
          "type": "uint256"
        },
        {
          "internalType": "uint256",
          "name": "_amount",
          "type": "uint256"
        }
      ],
      "name": "burn",
      "outputs": [],
      "stateMutability": "nonpayable",
      "type": "function"
    },
    {
      "inputs": [
        {
          "internalType": "address",
          "name": "_owner",
          "type": "address"
        },
        {
          "internalType": "uint256[]",
          "name": "_tokenIds",
          "type": "uint256[]"
        },
        {
          "internalType": "uint256[]",
          "name": "_amounts",
          "type": "uint256[]"
        }
      ],
      "name": "burnBatch",
      "outputs": [],
      "stateMutability": "nonpayable",
      "type": "function"
    },
    {
      "inputs": [
        {
          "internalType": "string",
          "name": "voucher",
          "type": "string"
        },
        {
          "internalType": "uint256",
          "name": "_tokenId",
          "type": "uint256"
        },
        {
          "internalType": "uint256",
          "name": "exp",
          "type": "uint256"
        },
        {
          "internalType": "address",
          "name": "_to",
          "type": "address"
        },
        {
          "internalType": "bytes",
          "name": "sig",
          "type": "bytes"
        },
        {
          "internalType": "bytes32[]",
          "name": "merkleProof",
          "type": "bytes32[]"
        }
      ],
      "name": "claimVoucher",
      "outputs": [],
      "stateMutability": "nonpayable",
      "type": "function"
    },
    {
      "inputs": [],
      "name": "contractURI",
      "outputs": [
        {
          "internalType": "string",
          "name": "",
          "type": "string"
        }
      ],
      "stateMutability": "view",
      "type": "function"
    },
    {
      "inputs": [
        {
          "internalType": "address",
          "name": "_to",
          "type": "address"
        },
        {
          "internalType": "string",
          "name": "_tokenURI",
          "type": "string"
        }
      ],
      "name": "create",
      "outputs": [],
      "stateMutability": "nonpayable",
      "type": "function"
    },
    {
      "inputs": [
        {
          "internalType": "uint256",
          "name": "_tokenId",
          "type": "uint256"
        }
      ],
      "name": "creator",
      "outputs": [
        {
          "internalType": "address",
          "name": "",
          "type": "address"
        }
      ],
      "stateMutability": "view",
      "type": "function"
    },
    {
      "inputs": [],
      "name": "getBaseURICount",
      "outputs": [
        {
          "internalType": "uint256",
          "name": "",
          "type": "uint256"
        }
      ],
      "stateMutability": "view",
      "type": "function"
    },
    {
      "inputs": [
        {
          "internalType": "uint256",
          "name": "_index",
          "type": "uint256"
        }
      ],
      "name": "getBatchIdAtIndex",
      "outputs": [
        {
          "internalType": "uint256",
          "name": "",
          "type": "uint256"
        }
      ],
      "stateMutability": "view",
      "type": "function"
    },
    {
      "inputs": [
        {
          "internalType": "bytes32",
          "name": "role",
          "type": "bytes32"
        }
      ],
      "name": "getRoleAdmin",
      "outputs": [
        {
          "internalType": "bytes32",
          "name": "",
          "type": "bytes32"
        }
      ],
      "stateMutability": "view",
      "type": "function"
    },
    {
      "inputs": [
        {
          "internalType": "bytes32",
          "name": "role",
          "type": "bytes32"
        },
        {
          "internalType": "uint256",
          "name": "index",
          "type": "uint256"
        }
      ],
      "name": "getRoleMember",
      "outputs": [
        {
          "internalType": "address",
          "name": "member",
          "type": "address"
        }
      ],
      "stateMutability": "view",
      "type": "function"
    },
    {
      "inputs": [
        {
          "internalType": "bytes32",
          "name": "role",
          "type": "bytes32"
        }
      ],
      "name": "getRoleMemberCount",
      "outputs": [
        {
          "internalType": "uint256",
          "name": "count",
          "type": "uint256"
        }
      ],
      "stateMutability": "view",
      "type": "function"
    },
    {
      "inputs": [],
      "name": "getTimestamp",
      "outputs": [
        {
          "internalType": "uint256",
          "name": "",
          "type": "uint256"
        }
      ],
      "stateMutability": "view",
      "type": "function"
    },
    {
      "inputs": [
        {
          "internalType": "bytes32",
          "name": "role",
          "type": "bytes32"
        },
        {
          "internalType": "address",
          "name": "account",
          "type": "address"
        }
      ],
      "name": "grantRole",
      "outputs": [],
      "stateMutability": "nonpayable",
      "type": "function"
    },
    {
      "inputs": [
        {
          "internalType": "bytes32",
          "name": "role",
          "type": "bytes32"
        },
        {
          "internalType": "address",
          "name": "account",
          "type": "address"
        }
      ],
      "name": "hasRole",
      "outputs": [
        {
          "internalType": "bool",
          "name": "",
          "type": "bool"
        }
      ],
      "stateMutability": "view",
      "type": "function"
    },
    {
      "inputs": [
        {
          "internalType": "bytes32",
          "name": "role",
          "type": "bytes32"
        },
        {
          "internalType": "address",
          "name": "account",
          "type": "address"
        }
      ],
      "name": "hasRoleWithSwitch",
      "outputs": [
        {
          "internalType": "bool",
          "name": "",
          "type": "bool"
        }
      ],
      "stateMutability": "view",
      "type": "function"
    },
    {
      "inputs": [
        {
          "internalType": "string",
          "name": "_name",
          "type": "string"
        },
        {
          "internalType": "string",
          "name": "_symbol",
          "type": "string"
        }
      ],
      "name": "initialize",
      "outputs": [],
      "stateMutability": "nonpayable",
      "type": "function"
    },
    {
      "inputs": [
        {
          "internalType": "address",
          "name": "",
          "type": "address"
        },
        {
          "internalType": "address",
          "name": "",
          "type": "address"
        }
      ],
      "name": "isApprovedForAll",
      "outputs": [
        {
          "internalType": "bool",
          "name": "",
          "type": "bool"
        }
      ],
      "stateMutability": "view",
      "type": "function"
    },
    {
      "inputs": [
        {
          "internalType": "string",
          "name": "voucher",
          "type": "string"
        },
        {
          "internalType": "uint256",
          "name": "_tokenId",
          "type": "uint256"
        },
        {
          "internalType": "uint256",
          "name": "exp",
          "type": "uint256"
        },
        {
          "internalType": "bytes32[]",
          "name": "proof",
          "type": "bytes32[]"
        }
      ],
      "name": "isValidVoucher",
      "outputs": [
        {
          "internalType": "bool",
          "name": "",
          "type": "bool"
        }
      ],
      "stateMutability": "view",
      "type": "function"
    },
    {
      "inputs": [
        {
          "internalType": "address",
          "name": "_to",
          "type": "address"
        },
        {
          "internalType": "uint256",
          "name": "_tokenId",
          "type": "uint256"
        },
        {
          "internalType": "string",
          "name": "_tokenURI",
          "type": "string"
        },
        {
          "internalType": "uint256",
          "name": "_amount",
          "type": "uint256"
        }
      ],
      "name": "mintTo",
      "outputs": [],
      "stateMutability": "nonpayable",
      "type": "function"
    },
    {
      "inputs": [
        {
          "components": [
            {
              "internalType": "address",
              "name": "to",
              "type": "address"
            },
            {
              "internalType": "address",
              "name": "royaltyRecipient",
              "type": "address"
            },
            {
              "internalType": "uint256",
              "name": "royaltyBps",
              "type": "uint256"
            },
            {
              "internalType": "address",
              "name": "primarySaleRecipient",
              "type": "address"
            },
            {
              "internalType": "uint256",
              "name": "tokenId",
              "type": "uint256"
            },
            {
              "internalType": "string",
              "name": "uri",
              "type": "string"
            },
            {
              "internalType": "uint256",
              "name": "quantity",
              "type": "uint256"
            },
            {
              "internalType": "uint256",
              "name": "pricePerToken",
              "type": "uint256"
            },
            {
              "internalType": "address",
              "name": "currency",
              "type": "address"
            },
            {
              "internalType": "uint128",
              "name": "validityStartTimestamp",
              "type": "uint128"
            },
            {
              "internalType": "uint128",
              "name": "validityEndTimestamp",
              "type": "uint128"
            },
            {
              "internalType": "bytes32",
              "name": "uid",
              "type": "bytes32"
            }
          ],
          "internalType": "struct ISignatureMintERC1155.MintRequest",
          "name": "_req",
          "type": "tuple"
        },
        {
          "internalType": "bytes",
          "name": "_signature",
          "type": "bytes"
        }
      ],
      "name": "mintWithSignature",
      "outputs": [
        {
          "internalType": "address",
          "name": "signer",
          "type": "address"
        }
      ],
      "stateMutability": "payable",
      "type": "function"
    },
    {
      "inputs": [
        {
          "internalType": "bytes[]",
          "name": "data",
          "type": "bytes[]"
        }
      ],
      "name": "multicall",
      "outputs": [
        {
          "internalType": "bytes[]",
          "name": "results",
          "type": "bytes[]"
        }
      ],
      "stateMutability": "nonpayable",
      "type": "function"
    },
    {
      "inputs": [],
      "name": "name",
      "outputs": [
        {
          "internalType": "string",
          "name": "",
          "type": "string"
        }
      ],
      "stateMutability": "view",
      "type": "function"
    },
    {
      "inputs": [],
      "name": "nextTokenIdToMint",
      "outputs": [
        {
          "internalType": "uint256",
          "name": "",
          "type": "uint256"
        }
      ],
      "stateMutability": "view",
      "type": "function"
    },
    {
      "inputs": [],
      "name": "owner",
      "outputs": [
        {
          "internalType": "address",
          "name": "",
          "type": "address"
        }
      ],
      "stateMutability": "view",
      "type": "function"
    },
    {
      "inputs": [],
      "name": "proxiableUUID",
      "outputs": [
        {
          "internalType": "bytes32",
          "name": "",
          "type": "bytes32"
        }
      ],
      "stateMutability": "view",
      "type": "function"
    },
    {
      "inputs": [
        {
          "internalType": "uint256",
          "name": "_tokenId",
          "type": "uint256"
        },
        {
          "internalType": "bytes32",
          "name": "rootHash",
          "type": "bytes32"
        }
      ],
      "name": "registerVoucher",
      "outputs": [],
      "stateMutability": "nonpayable",
      "type": "function"
    },
    {
      "inputs": [
        {
          "internalType": "string",
          "name": "_name",
          "type": "string"
        },
        {
          "internalType": "string",
          "name": "_symbol",
          "type": "string"
        },
        {
          "internalType": "uint8",
          "name": "version",
          "type": "uint8"
        }
      ],
      "name": "reinitialize",
      "outputs": [],
      "stateMutability": "nonpayable",
      "type": "function"
    },
    {
      "inputs": [
        {
          "internalType": "bytes32",
          "name": "role",
          "type": "bytes32"
        },
        {
          "internalType": "address",
          "name": "account",
          "type": "address"
        }
      ],
      "name": "renounceRole",
      "outputs": [],
      "stateMutability": "nonpayable",
      "type": "function"
    },
    {
      "inputs": [
        {
          "internalType": "bytes32",
          "name": "role",
          "type": "bytes32"
        },
        {
          "internalType": "address",
          "name": "account",
          "type": "address"
        }
      ],
      "name": "revokeRole",
      "outputs": [],
      "stateMutability": "nonpayable",
      "type": "function"
    },
    {
      "inputs": [
        {
          "internalType": "address",
          "name": "from",
          "type": "address"
        },
        {
          "internalType": "address",
          "name": "to",
          "type": "address"
        },
        {
          "internalType": "uint256[]",
          "name": "ids",
          "type": "uint256[]"
        },
        {
          "internalType": "uint256[]",
          "name": "amounts",
          "type": "uint256[]"
        },
        {
          "internalType": "bytes",
          "name": "data",
          "type": "bytes"
        }
      ],
      "name": "safeBatchTransferFrom",
      "outputs": [],
      "stateMutability": "nonpayable",
      "type": "function"
    },
    {
      "inputs": [
        {
          "internalType": "address",
          "name": "from",
          "type": "address"
        },
        {
          "internalType": "address",
          "name": "to",
          "type": "address"
        },
        {
          "internalType": "uint256",
          "name": "id",
          "type": "uint256"
        },
        {
          "internalType": "uint256",
          "name": "amount",
          "type": "uint256"
        },
        {
          "internalType": "bytes",
          "name": "data",
          "type": "bytes"
        }
      ],
      "name": "safeTransferFrom",
      "outputs": [],
      "stateMutability": "nonpayable",
      "type": "function"
    },
    {
      "inputs": [
        {
          "internalType": "address",
          "name": "operator",
          "type": "address"
        },
        {
          "internalType": "bool",
          "name": "approved",
          "type": "bool"
        }
      ],
      "name": "setApprovalForAll",
      "outputs": [],
      "stateMutability": "nonpayable",
      "type": "function"
    },
    {
      "inputs": [
        {
          "internalType": "string",
          "name": "_uri",
          "type": "string"
        }
      ],
      "name": "setContractURI",
      "outputs": [],
      "stateMutability": "nonpayable",
      "type": "function"
    },
    {
      "inputs": [
        {
          "internalType": "address",
          "name": "_newOwner",
          "type": "address"
        }
      ],
      "name": "setOwner",
      "outputs": [],
      "stateMutability": "nonpayable",
      "type": "function"
    },
    {
      "inputs": [
        {
          "internalType": "bytes4",
          "name": "interfaceId",
          "type": "bytes4"
        }
      ],
      "name": "supportsInterface",
      "outputs": [
        {
          "internalType": "bool",
          "name": "",
          "type": "bool"
        }
      ],
      "stateMutability": "view",
      "type": "function"
    },
    {
      "inputs": [],
      "name": "symbol",
      "outputs": [
        {
          "internalType": "string",
          "name": "",
          "type": "string"
        }
      ],
      "stateMutability": "view",
      "type": "function"
    },
    {
      "inputs": [
        {
          "internalType": "uint256",
          "name": "",
          "type": "uint256"
        }
      ],
      "name": "totalSupply",
      "outputs": [
        {
          "internalType": "uint256",
          "name": "",
          "type": "uint256"
        }
      ],
      "stateMutability": "view",
      "type": "function"
    },
    {
      "inputs": [
        {
          "internalType": "address",
          "name": "newImplementation",
          "type": "address"
        }
      ],
      "name": "upgradeTo",
      "outputs": [],
      "stateMutability": "nonpayable",
      "type": "function"
    },
    {
      "inputs": [
        {
          "internalType": "address",
          "name": "newImplementation",
          "type": "address"
        },
        {
          "internalType": "bytes",
          "name": "data",
          "type": "bytes"
        }
      ],
      "name": "upgradeToAndCall",
      "outputs": [],
      "stateMutability": "payable",
      "type": "function"
    },
    {
      "inputs": [
        {
          "internalType": "uint256",
          "name": "_tokenId",
          "type": "uint256"
        }
      ],
      "name": "uri",
      "outputs": [
        {
          "internalType": "string",
          "name": "",
          "type": "string"
        }
      ],
      "stateMutability": "view",
      "type": "function"
    },
    {
      "inputs": [
        {
          "components": [
            {
              "internalType": "address",
              "name": "to",
              "type": "address"
            },
            {
              "internalType": "address",
              "name": "royaltyRecipient",
              "type": "address"
            },
            {
              "internalType": "uint256",
              "name": "royaltyBps",
              "type": "uint256"
            },
            {
              "internalType": "address",
              "name": "primarySaleRecipient",
              "type": "address"
            },
            {
              "internalType": "uint256",
              "name": "tokenId",
              "type": "uint256"
            },
            {
              "internalType": "string",
              "name": "uri",
              "type": "string"
            },
            {
              "internalType": "uint256",
              "name": "quantity",
              "type": "uint256"
            },
            {
              "internalType": "uint256",
              "name": "pricePerToken",
              "type": "uint256"
            },
            {
              "internalType": "address",
              "name": "currency",
              "type": "address"
            },
            {
              "internalType": "uint128",
              "name": "validityStartTimestamp",
              "type": "uint128"
            },
            {
              "internalType": "uint128",
              "name": "validityEndTimestamp",
              "type": "uint128"
            },
            {
              "internalType": "bytes32",
              "name": "uid",
              "type": "bytes32"
            }
          ],
          "internalType": "struct ISignatureMintERC1155.MintRequest",
          "name": "_req",
          "type": "tuple"
        },
        {
          "internalType": "bytes",
          "name": "_signature",
          "type": "bytes"
        }
      ],
      "name": "verify",
      "outputs": [
        {
          "internalType": "bool",
          "name": "success",
          "type": "bool"
        },
        {
          "internalType": "address",
          "name": "signer",
          "type": "address"
        }
      ],
      "stateMutability": "view",
      "type": "function"
    }
  ],
  "bytecode": "0x61016060405230610140523480156200001757600080fd5b506040518060400160405280601481526020017f5369676e61747572654d696e7445524331313535000000000000000000000000815250604051806040016040528060018152602001603160f81b81525060405180602001604052806000815250604051806020016040528060008152508160009080519060200190620000a09291906200014e565b508051620000b69060019060208401906200014e565b5050825160209384012082519284019290922060e08390526101008190524660a0818152604080517f8b73c3c69bb8fe3d512ecc4cf759cc79239f7b179b0ffacaa9a75d522b39400f818901819052818301979097526060810194909452608080850193909352308483018190528151808603909301835260c094850190915281519190960120905292909252610120525062000231565b8280546200015c90620001f4565b90600052602060002090601f016020900481019282620001805760008555620001cb565b82601f106200019b57805160ff1916838001178555620001cb565b82800160010185558215620001cb579182015b82811115620001cb578251825591602001919060010190620001ae565b50620001d9929150620001dd565b5090565b5b80821115620001d95760008155600101620001de565b600181811c908216806200020957607f821691505b602082108114156200022b57634e487b7160e01b600052602260045260246000fd5b50919050565b60805160a05160c05160e051610100516101205161014051615b6b620002a860003960008181610c5501528181610c9501528181610f3d01528181610f7d0152610ff501526000613eaa01526000613ef901526000613ed401526000613e2d01526000613e5701526000613e810152615b6b6000f3fe6080604052600436106102175760003560e01c8062fdd58e1461021c57806301ffc9a71461026757806306fdde03146102975780630e89341c146102b957806313af4035146102d9578063188ec356146102fb5780632419f51b1461030e578063248a9ca31461032e5780632eb2c2d61461035b5780632f2ff15d1461037b57806336568abe1461039b5780633659cfe6146103bb5780633b1475a7146103db57806344233613146103f05780634cd88b761461041d5780634db55f441461043d5780634e1273f41461045d5780634f1ef2861461048a578063510b51581461049d57806352d1902d146104eb57806363b45e2d146105005780636b20c454146105155780636cc09d1014610535578063772906ac146105555780638da5cb5b146105775780639010d07c1461058c57806391d14854146105ac578063938e3d7b146105cc57806393969fff146105ec578063949c09f71461060c57806395d89b411461062c57806398a6e99314610641578063a15ab08d14610654578063a217fddf14610674578063a22cb46514610689578063a32fa5b3146106a9578063ac9650d8146106c9578063b03f4528146106f6578063b17cd86f14610716578063bd85b03914610755578063ca15c87314610782578063d547741f146107a2578063e8a3d485146107c2578063e985e9c5146107d7578063f242432a14610812578063f5298aca14610832578063f6d2e24714610852575b600080fd5b34801561022857600080fd5b50610254610237366004614577565b600260209081526000928352604080842090915290825290205481565b6040519081526020015b60405180910390f35b34801561027357600080fd5b506102876102823660046145b7565b610872565b604051901515815260200161025e565b3480156102a357600080fd5b506102ac6108c4565b60405161025e919061462c565b3480156102c557600080fd5b506102ac6102d436600461463f565b610952565b3480156102e557600080fd5b506102f96102f4366004614658565b610a40565b005b34801561030757600080fd5b5042610254565b34801561031a57600080fd5b5061025461032936600461463f565b610a79565b34801561033a57600080fd5b5061025461034936600461463f565b6000908152600c602052604090205490565b34801561036757600080fd5b506102f96103763660046147bc565b610ae7565b34801561038757600080fd5b506102f9610396366004614865565b610b51565b3480156103a757600080fd5b506102f96103b6366004614865565b610beb565b3480156103c757600080fd5b506102f96103d6366004614658565b610c4a565b3480156103e757600080fd5b50600e54610254565b3480156103fc57600080fd5b5061025461040b36600461463f565b60126020526000908152604090205481565b34801561042957600080fd5b506102f9610438366004614891565b610d10565b34801561044957600080fd5b50610287610458366004614938565b610e05565b34801561046957600080fd5b5061047d6104783660046149b5565b610e1e565b60405161025e9190614ab0565b6102f9610498366004614ac3565b610f32565b3480156104a957600080fd5b506104d36104b836600461463f565b6000908152601060205260409020546001600160a01b031690565b6040516001600160a01b03909116815260200161025e565b3480156104f757600080fd5b50610254610fe8565b34801561050c57600080fd5b50600754610254565b34801561052157600080fd5b506102f9610530366004614b13565b611097565b34801561054157600080fd5b506102f9610550366004614bc7565b6111eb565b34801561056157600080fd5b50610254600080516020615aaf83398151915281565b34801561058357600080fd5b506104d361136e565b34801561059857600080fd5b506104d36105a7366004614c89565b61137d565b3480156105b857600080fd5b506102876105c7366004614865565b61146c565b3480156105d857600080fd5b506102f96105e7366004614cab565b611497565b3480156105f857600080fd5b506102f9610607366004614c89565b6114c4565b34801561061857600080fd5b506102f9610627366004614cdf565b61154a565b34801561063857600080fd5b506102ac6116df565b6104d361064f366004614d77565b6116ec565b34801561066057600080fd5b506102f961066f366004614ac3565b6118d3565b34801561068057600080fd5b50610254600081565b34801561069557600080fd5b506102f96106a4366004614df6565b611984565b3480156106b557600080fd5b506102876106c4366004614865565b611a3c565b3480156106d557600080fd5b506106e96106e4366004614e2d565b611a92565b60405161025e9190614e6e565b34801561070257600080fd5b506102f9610711366004614ed0565b611b86565b34801561072257600080fd5b50610736610731366004614d77565b611c35565b6040805192151583526001600160a01b0390911660208301520161025e565b34801561076157600080fd5b5061025461077036600461463f565b600f6020526000908152604090205481565b34801561078e57600080fd5b5061025461079d36600461463f565b611c79565b3480156107ae57600080fd5b506102f96107bd366004614865565b611d02565b3480156107ce57600080fd5b506102ac611d1b565b3480156107e357600080fd5b506102876107f2366004614f2e565b600360209081526000928352604080842090915290825290205460ff1681565b34801561081e57600080fd5b506102f961082d366004614f58565b611d28565b34801561083e57600080fd5b506102f961084d366004614fbc565b611d8b565b34801561085e57600080fd5b506102f961086d366004614fef565b611e32565b6000636cdb3d1360e11b6001600160e01b0319831614806108a357506303a24d0760e21b6001600160e01b03198316145b806108be57506001600160e01b0319821663152a902d60e11b145b92915050565b600080546108d19061506c565b80601f01602080910402602001604051908101604052809291908181526020018280546108fd9061506c565b801561094a5780601f1061091f5761010080835404028352916020019161094a565b820191906000526020600020905b81548152906001019060200180831161092d57829003601f168201915b505050505081565b6000818152600460205260408120805460609291906109709061506c565b80601f016020809104026020016040519081016040528092919081815260200182805461099c9061506c565b80156109e95780601f106109be576101008083540402835291602001916109e9565b820191906000526020600020905b8154815290600101906020018083116109cc57829003601f168201915b50505050509050600081511115610a005792915050565b6000610a0b84611f0a565b905080610a17856120a6565b604051602001610a289291906150a1565b60405160208183030381529060405292505050919050565b610a486121ab565b610a6d5760405162461bcd60e51b8152600401610a64906150d0565b60405180910390fd5b610a76816121ce565b50565b6000610a8460075490565b8210610ac25760405162461bcd60e51b815260206004820152600d60248201526c092dcecc2d8d2c840d2dcc8caf609b1b6044820152606401610a64565b60078281548110610ad557610ad56150f8565b90600052602060002001549050919050565b6001600160a01b038516331480610b2157506001600160a01b038516600090815260036020908152604080832033845290915290205460ff165b610b3d5760405162461bcd60e51b8152600401610a649061510e565b610b4a8585858585612220565b5050505050565b6000828152600c6020526040902054610b6a90336123c1565b6000828152600b602090815260408083206001600160a01b038516845290915290205460ff1615610bdd5760405162461bcd60e51b815260206004820152601d60248201527f43616e206f6e6c79206772616e7420746f206e6f6e20686f6c646572730000006044820152606401610a64565b610be78282612441565b5050565b336001600160a01b03821614610c405760405162461bcd60e51b815260206004820152601a60248201527921b0b71037b7363c903932b737bab731b2903337b91039b2b63360311b6044820152606401610a64565b610be78282612455565b306001600160a01b037f0000000000000000000000000000000000000000000000000000000000000000161415610c935760405162461bcd60e51b8152600401610a649061513a565b7f00000000000000000000000000000000000000000000000000000000000000006001600160a01b0316610cc56124ac565b6001600160a01b031614610ceb5760405162461bcd60e51b8152600401610a6490615174565b610cf4816124c8565b60408051600080825260208201909252610a76918391906124fe565b600a54610100900460ff1615808015610d305750600a54600160ff909116105b80610d515750610d3f30612669565b158015610d515750600a5460ff166001145b610d6d5760405162461bcd60e51b8152600401610a64906151ae565b600a805460ff191660011790558015610d9057600a805461ff0019166101001790555b8251610da39060009060208601906144c2565b508151610db79060019060208501906144c2565b50610dc1336121ce565b610dcc600033612441565b8015610e0057600a805461ff001916905560405160018152600080516020615aef8339815191529060200160405180910390a15b505050565b6000610e148686868686612678565b9695505050505050565b60608151835114610e415760405162461bcd60e51b8152600401610a64906151fc565b600083516001600160401b03811115610e5c57610e5c614673565b604051908082528060200260200182016040528015610e85578160200160208202803683370190505b50905060005b8451811015610f2a5760026000868381518110610eaa57610eaa6150f8565b60200260200101516001600160a01b03166001600160a01b031681526020019081526020016000206000858381518110610ee657610ee66150f8565b6020026020010151815260200190815260200160002054828281518110610f0f57610f0f6150f8565b6020908102919091010152610f238161523b565b9050610e8b565b509392505050565b306001600160a01b037f0000000000000000000000000000000000000000000000000000000000000000161415610f7b5760405162461bcd60e51b8152600401610a649061513a565b7f00000000000000000000000000000000000000000000000000000000000000006001600160a01b0316610fad6124ac565b6001600160a01b031614610fd35760405162461bcd60e51b8152600401610a6490615174565b610fdc826124c8565b610be7828260016124fe565b6000306001600160a01b037f000000000000000000000000000000000000000000000000000000000000000016146110835760405162461bcd60e51b815260206004820152603860248201527f555550535570677261646561626c653a206d757374206e6f742062652063616c6044820152771b1959081d1a1c9bdd59da0819195b1959d85d1958d85b1b60421b6064820152608401610a64565b50600080516020615acf8339815191525b90565b336001600160a01b0384168114806110d457506001600160a01b0380851660009081526003602090815260408083209385168352929052205460ff165b6110f05760405162461bcd60e51b8152600401610a6490615256565b81518351146111335760405162461bcd60e51b815260206004820152600f60248201526e098cadccee8d040dad2e6dac2e8c6d608b1b6044820152606401610a64565b60005b83518110156111d957828181518110611151576111516150f8565b602002602001015160026000876001600160a01b03166001600160a01b031681526020019081526020016000206000868481518110611192576111926150f8565b602002602001015181526020019081526020016000205410156111c75760405162461bcd60e51b8152600401610a6490615281565b6111d26001826152b2565b9050611136565b506111e58484846127f6565b50505050565b611203600080516020615aaf8339815191523361146c565b80611226575061121161136e565b6001600160a01b0316336001600160a01b0316145b6112425760405162461bcd60e51b8152600401610a64906152ca565b61128789898080601f0160208091040260200160405190810160405280939291908181526020018383808284376000920191909152508b92508a915086905085612678565b5061131a6113028a8a8080601f01602080910402602001604051908101604052809392919081815260200183838082843760009201919091525050604080516020601f8b018190048102820181019092528981528d93508b9250908a908a908190840183828082843760009201919091525061297892505050565b88604051806020016040528060008152506001611b86565b6000898989896040516020016113339493929190615323565b60408051601f198184030181529181528151602092830120600090815260119092529020805460ff1916600117905550505050505050505050565b6006546001600160a01b031690565b6000828152600d602052604081205481805b82811015611463576000868152600d602090815260408083208484526001019091529020546001600160a01b03161561140c57848214156113fa576000868152600d602090815260408083209383526001909301905220546001600160a01b031692506108be915050565b6114056001836152b2565b9150611451565b61141786600061146c565b801561143e57506000868152600d6020908152604080832083805260020190915290205481145b156114515761144e6001836152b2565b91505b61145c6001826152b2565b905061138f565b50505092915050565b6000918252600b602090815260408084206001600160a01b0393909316845291905290205460ff1690565b61149f6121ab565b6114bb5760405162461bcd60e51b8152600401610a64906150d0565b610a76816129e3565b6000828152601060205260409020546001600160a01b03163314806114f85750336114ed61136e565b6001600160a01b0316145b6115385760405162461bcd60e51b8152602060048201526011602482015270027b7363c9031b932b0ba37b91030b7321607d1b6044820152606401610a64565b60009182526012602052604090912055565b600082511161156b5760405162461bcd60e51b8152600401610a649061533d565b81518351146115af5760405162461bcd60e51b815260206004820152601060248201526f2632b733ba341036b4b9b6b0ba31b41760811b6044820152606401610a64565b60006115ba600e5490565b9050806000805b865181101561169f576000198782815181106115df576115df6150f8565b602002602001015114156116555783878281518110611600576116006150f8565b602090810291909101810191909152600085815260109091526040902080546001600160a01b0319166001600160a01b038a161790556116416001856152b2565b935061164e6001836152b2565b915061168d565b83878281518110611668576116686150f8565b60200260200101511061168d5760405162461bcd60e51b8152600401610a649061536b565b6116986001826152b2565b90506115c1565b5080156116b4576116b1828286612ac5565b50505b82600e819055506116d687878760405180602001604052806000815250612b32565b50505050505050565b600180546108d19061506c565b6000808460c00135116117115760405162461bcd60e51b8152600401610a649061533d565b60008061171d600e5490565b9050600019866080013514156117885790508061173d6020870187614658565b600083815260106020526040812080546001600160a01b0319166001600160a01b039390931692909217909155600e80546001929061177d9084906152b2565b909155506117b39050565b808660800135106117ab5760405162461bcd60e51b8152600401610a649061536b565b856080013591505b6117be868686612c7b565b925060006117cf6020880188614658565b90506118056117e46080890160608a01614658565b60c08901356117fb6101208b016101008c01614658565b8a60e00135612e0e565b6000198760800135141561185e5761185e8361182460a08a018a61538f565b8080601f016020809104026020016040519081016040528093929190818152602001838380828437600092019190915250612ea092505050565b61187d81848960c0013560405180602001604052806000815250612ebf565b82816001600160a01b0316856001600160a01b03167f0b35afaf155daeef41cc46df86f058df2855c57d30ab134647a6b587e7cc8c398a6040516118c19190615467565b60405180910390a45050509392505050565b6118eb600080516020615aaf8339815191523361146c565b8061190e57506118f961136e565b6001600160a01b0316336001600160a01b0316145b61192a5760405162461bcd60e51b8152600401610a64906152ca565b600080611936600e5490565b90508091506001600e600082825461194e91906152b2565b9091555050600081815260106020526040902080546001600160a01b0319166001600160a01b0386161790556111e58284612ea0565b336001600160a01b0383168114156119cf5760405162461bcd60e51b815260206004820152600e60248201526d20a8282927ab24a723afa9a2a62360911b6044820152606401610a64565b6001600160a01b03818116600081815260036020908152604080832094881680845294825291829020805460ff191687151590811790915591519182527f17307eab39ab6107e8899845ad3d59bd9653f200f220920489ca2b5937696c31910160405180910390a3505050565b6000828152600b6020908152604080832083805290915281205460ff16611a8957506000828152600b602090815260408083206001600160a01b038516845290915290205460ff166108be565b50600192915050565b6060816001600160401b03811115611aac57611aac614673565b604051908082528060200260200182016040528015611adf57816020015b6060815260200190600190039081611aca5790505b50905060005b82811015611b7f57611b4f30858584818110611b0357611b036150f8565b9050602002810190611b15919061538f565b8080601f016020809104026020016040519081016040528093929190818152602001838380828437600092019190915250612f8692505050565b828281518110611b6157611b616150f8565b60200260200101819052508080611b779061523b565b915050611ae5565b5092915050565b600080611b92600e5490565b9050600019851415611bef578091506001600e6000828254611bb491906152b2565b9091555050600081815260106020526040902080546001600160a01b0319166001600160a01b038816179055611bea8185612ea0565b611c12565b808510611c0e5760405162461bcd60e51b8152600401610a649061536b565b8491505b611c2d86838560405180602001604052806000815250612ebf565b505050505050565b600080611c43858585612fb2565b61016086013560009081526009602052604090205490915060ff16158015611c6f5750611c6f8161300e565b9150935093915050565b6000818152600d6020526040812054815b81811015611cdd576000848152600d602090815260408083208484526001019091529020546001600160a01b031615611ccb57611cc86001846152b2565b92505b611cd66001826152b2565b9050611c8a565b50611ce983600061146c565b15611cfc57611cf96001836152b2565b91505b50919050565b6000828152600c6020526040902054610c4090336123c1565b600580546108d19061506c565b6001600160a01b038516331480611d6257506001600160a01b038516600090815260036020908152604080832033845290915290205460ff165b611d7e5760405162461bcd60e51b8152600401610a649061510e565b610b4a8585858585613033565b336001600160a01b038416811480611dc857506001600160a01b0380851660009081526003602090815260408083209385168352929052205460ff165b611de45760405162461bcd60e51b8152600401610a6490615256565b6001600160a01b0384166000908152600260209081526040808320868452909152902054821115611e275760405162461bcd60e51b8152600401610a6490615281565b6111e5848484613147565b6006546001600160a01b03163314611e5c5760405162461bcd60e51b8152600401610a64906150d0565b600a548190610100900460ff16158015611e7d5750600a5460ff8083169116105b611e995760405162461bcd60e51b8152600401610a64906151ae565b600a805461ffff191660ff8316176101001790558351611ec09060009060208701906144c2565b508251611ed49060019060208601906144c2565b50600a805461ff001916905560405160ff82168152600080516020615aef8339815191529060200160405180910390a150505050565b60606000611f1760075490565b905060006007805480602002602001604051908101604052809291908181526020018280548015611f6757602002820191906000526020600020905b815481526020019060010190808311611f53575b5050505050905060005b8281101561206b57818181518110611f8b57611f8b6150f8565b60200260200101518510156120595760086000838381518110611fb057611fb06150f8565b602002602001015181526020019081526020016000208054611fd19061506c565b80601f0160208091040260200160405190810160405280929190818152602001828054611ffd9061506c565b801561204a5780601f1061201f5761010080835404028352916020019161204a565b820191906000526020600020905b81548152906001019060200180831161202d57829003601f168201915b50505050509350505050919050565b6120646001826152b2565b9050611f71565b5060405162461bcd60e51b815260206004820152600f60248201526e125b9d985b1a59081d1bdad95b9259608a1b6044820152606401610a64565b6060816120ca5750506040805180820190915260018152600360fc1b602082015290565b8160005b81156120f457806120de8161523b565b91506120ed9050600a83615588565b91506120ce565b6000816001600160401b0381111561210e5761210e614673565b6040519080825280601f01601f191660200182016040528015612138576020820181803683370190505b5090505b84156121a35761214d60018361559c565b915061215a600a866155b3565b6121659060306152b2565b60f81b81838151811061217a5761217a6150f8565b60200101906001600160f81b031916908160001a90535061219c600a86615588565b945061213c565b949350505050565b60006121b561136e565b6001600160a01b0316336001600160a01b031614905090565b600680546001600160a01b038381166001600160a01b0319831681179093556040519116919082907f8292fce18fa69edf4db7b94ea2e58241df0ae57f97e0a6c9b29067028bf92d7690600090a35050565b81518351146122415760405162461bcd60e51b8152600401610a64906151fc565b6001600160a01b0384166122675760405162461bcd60e51b8152600401610a64906155c7565b33612276818787878787613239565b60005b845181101561236d576000858281518110612296576122966150f8565b6020026020010151905060008583815181106122b4576122b46150f8565b6020908102919091018101516001600160a01b038b1660009081526002835260408082208683529093529190912054909150818110156123065760405162461bcd60e51b8152600401610a64906155ed565b6001600160a01b03808b16600090815260026020818152604080842088855282528084208787039055938d168352908152828220868352905290812080548492906123529084906152b2565b92505081905550505050806123669061523b565b9050612279565b50846001600160a01b0316866001600160a01b0316826001600160a01b0316600080516020615a4f83398151915287876040516123ab929190615617565b60405180910390a4611c2d818787878787613345565b6000828152600b602090815260408083206001600160a01b038516845290915290205460ff16610be7576123ff816001600160a01b03166014613477565b61240a836020613477565b60405160200161241b929190615645565b60408051601f198184030181529082905262461bcd60e51b8252610a649160040161462c565b61244b8282613612565b610be7828261366d565b61245f82826136da565b6000828152600d602090815260408083206001600160a01b03851680855260028201808552838620805487526001909301855292852080546001600160a01b031916905584529152555050565b600080516020615acf833981519152546001600160a01b031690565b6124d061136e565b6001600160a01b0316336001600160a01b031614806124f557506124f560003361146c565b610a7657600080fd5b7f4910fdfa16fed3260ed0e7147f7cc6da11a60208b5b9406d12a635614ffd91435460ff161561253157610e008361373c565b826001600160a01b03166352d1902d6040518163ffffffff1660e01b8152600401602060405180830381865afa92505050801561258b575060408051601f3d908101601f19168201909252612588918101906156b2565b60015b6125ee5760405162461bcd60e51b815260206004820152602e60248201527f45524331393637557067726164653a206e657720696d706c656d656e7461746960448201526d6f6e206973206e6f74205555505360901b6064820152608401610a64565b600080516020615acf833981519152811461265d5760405162461bcd60e51b815260206004820152602960248201527f45524331393637557067726164653a20756e737570706f727465642070726f786044820152681a58589b195555525160ba1b6064820152608401610a64565b50610e008383836137d6565b6001600160a01b03163b151590565b6000428410156126bc5760405162461bcd60e51b815260206004820152600f60248201526e159bdd58da195c88195e1c1a5c9959608a1b6044820152606401610a64565b6000858152601060205260409020546001600160a01b03166127125760405162461bcd60e51b815260206004820152600f60248201526e151bdad95b881b9bdd081d985b1a59608a1b6044820152606401610a64565b6000868686604051602001612729939291906156cb565b60408051601f1981840301815291815281516020928301206000818152601190935291205490915060ff16156127975760405162461bcd60e51b8152602060048201526013602482015272566f756368657220616c72656164792075736560681b6044820152606401610a64565b8060005b848110156127d9576127c5828787848181106127b9576127b96150f8565b905060200201356137fb565b9150806127d18161523b565b91505061279b565b506000878152601260205260409020541491505095945050505050565b6001600160a01b03831661281c5760405162461bcd60e51b8152600401610a64906156f2565b805182511461283d5760405162461bcd60e51b8152600401610a64906151fc565b600033905061286081856000868660405180602001604052806000815250613239565b60005b835181101561292b576000848281518110612880576128806150f8565b60200260200101519050600084838151811061289e5761289e6150f8565b6020908102919091018101516001600160a01b03891660009081526002835260408082208683529093529190912054909150818110156128f05760405162461bcd60e51b8152600401610a64906155ed565b6001600160a01b03881660009081526002602090815260408083209583529490529290922091039055806129238161523b565b915050612863565b5060006001600160a01b0316846001600160a01b0316826001600160a01b0316600080516020615a4f833981519152868660405161296a929190615617565b60405180910390a450505050565b6000826001600160a01b03166129908686868661382a565b6001600160a01b0316146129da5760405162461bcd60e51b81526020600482015260116024820152701059191c995cdcc81b9bdd081d985b1a59607a1b6044820152606401610a64565b50909392505050565b6000600580546129f29061506c565b80601f0160208091040260200160405190810160405280929190818152602001828054612a1e9061506c565b8015612a6b5780601f10612a4057610100808354040283529160200191612a6b565b820191906000526020600020905b815481529060010190602001808311612a4e57829003601f168201915b50508551939450612a87936005935060208701925090506144c2565b507fc9c7c3fe08b88b4df9d4d47ef47d2c43d55c025a0ba88ca442580ed9e7348a168183604051612ab992919061571a565b60405180910390a15050565b600080612ad284866152b2565b60078054600181019091557fa66cc928b5edb82af9bd49922954155ab7b0942694bea4ce44661d9a8736c6880181905560008181526008602090815260409091208551929450849350612b299290918601906144c2565b50935093915050565b6001600160a01b038416612b585760405162461bcd60e51b8152600401610a64906155c7565b8151835114612b795760405162461bcd60e51b8152600401610a64906151fc565b33612b8981600087878787613239565b60005b8451811015612c2557838181518110612ba757612ba76150f8565b602002602001015160026000886001600160a01b03166001600160a01b031681526020019081526020016000206000878481518110612be857612be86150f8565b602002602001015181526020019081526020016000206000828254612c0d91906152b2565b90915550819050612c1d8161523b565b915050612b8c565b50846001600160a01b031660006001600160a01b0316826001600160a01b0316600080516020615a4f8339815191528787604051612c64929190615617565b60405180910390a4610b4a81600087878787613345565b600080612c89858585611c35565b9250905080612ccc5760405162461bcd60e51b815260206004820152600f60248201526e125b9d985b1a59081c995c5d595cdd608a1b6044820152606401610a64565b42612cdf6101408701610120880161573f565b6001600160801b031611158015612d105750612d036101608601610140870161573f565b6001600160801b03164211155b612d4e5760405162461bcd60e51b815260206004820152600f60248201526e14995c5d595cdd08195e1c1a5c9959608a1b6044820152606401610a64565b6000612d5d6020870187614658565b6001600160a01b03161415612daa5760405162461bcd60e51b81526020600482015260136024820152721c9958da5c1a595b9d081d5b9919599a5b9959606a1b6044820152606401610a64565b60008560c0013511612de65760405162461bcd60e51b8152602060048201526005602482015264302071747960d81b6044820152606401610a64565b50610160909301356000908152600960205260409020805460ff191660011790555090919050565b80612e18576111e5565b6000612e24828561575a565b90506001600160a01b03831673eeeeeeeeeeeeeeeeeeeeeeeeeeeeeeeeeeeeeeee1415612e9357803414612e935760405162461bcd60e51b815260206004820152601660248201527526bab9ba1039b2b732103a37ba30b610383934b1b29760511b6044820152606401610a64565b84611c2d8433838561392b565b60008281526004602090815260409091208251610e00928401906144c2565b6001600160a01b038416612ee55760405162461bcd60e51b8152600401610a64906155c7565b33612f0581600087612ef688613975565b612eff88613975565b87613239565b6001600160a01b038516600090815260026020908152604080832087845290915281208054859290612f389084906152b2565b909155505060408051858152602081018590526001600160a01b038088169260009291851691600080516020615a6f833981519152910160405180910390a4610b4a816000878787876139c0565b6060612fab8383604051806060016040528060278152602001615b0f60279139613a7b565b9392505050565b60006121a383838080601f0160208091040260200160405190810160405280939291908181526020018383808284376000920191909152506130089250612ffc9150889050613b4c565b80519060200120613c42565b90613c90565b600061301861136e565b6001600160a01b0316826001600160a01b0316149050919050565b6001600160a01b0384166130595760405162461bcd60e51b8152600401610a64906155c7565b33613069818787612ef688613975565b6001600160a01b0386166000908152600260209081526040808320878452909152902054838110156130ad5760405162461bcd60e51b8152600401610a64906155ed565b6001600160a01b0380881660009081526002602081815260408084208a855282528084208987039055938a168352908152828220888352905290812080548692906130f99084906152b2565b909155505060408051868152602081018690526001600160a01b03808916928a82169291861691600080516020615a6f833981519152910160405180910390a46116d68288888888886139c0565b6001600160a01b03831661316d5760405162461bcd60e51b8152600401610a64906156f2565b3361319c8185600061317e87613975565b61318787613975565b60405180602001604052806000815250613239565b6001600160a01b0384166000908152600260209081526040808320868452909152902054828110156131e05760405162461bcd60e51b8152600401610a64906155ed565b6001600160a01b0385811660008181526002602090815260408083208984528252808320888703905580518981529182018890529193861691600080516020615a6f833981519152910160405180910390a45050505050565b6001600160a01b0385166132c05760005b83518110156132be57828181518110613265576132656150f8565b6020026020010151600f6000868481518110613283576132836150f8565b6020026020010151815260200190815260200160002060008282546132a891906152b2565b909155506132b790508161523b565b905061324a565b505b6001600160a01b038416611c2d5760005b83518110156116d6578281815181106132ec576132ec6150f8565b6020026020010151600f600086848151811061330a5761330a6150f8565b60200260200101518152602001908152602001600020600082825461332f919061559c565b9091555061333e90508161523b565b90506132d1565b6001600160a01b0384163b15611c2d5760405163bc197c8160e01b81526001600160a01b0385169063bc197c81906133899089908990889088908890600401615779565b6020604051808303816000875af19250505080156133c4575060408051601f3d908101601f191682019092526133c1918101906157d7565b60015b613447576133d06157f4565b806308c379a0141561340a57506133e561580f565b806133f0575061340c565b8060405162461bcd60e51b8152600401610a64919061462c565b505b60405162461bcd60e51b815260206004820152601060248201526f10a2a92198989a9aa922a1a2a4ab22a960811b6044820152606401610a64565b6001600160e01b0319811663bc197c8160e01b146116d65760405162461bcd60e51b8152600401610a6490615898565b6060600061348683600261575a565b6134919060026152b2565b6001600160401b038111156134a8576134a8614673565b6040519080825280601f01601f1916602001820160405280156134d2576020820181803683370190505b509050600360fc1b816000815181106134ed576134ed6150f8565b60200101906001600160f81b031916908160001a905350600f60fb1b8160018151811061351c5761351c6150f8565b60200101906001600160f81b031916908160001a905350600061354084600261575a565b61354b9060016152b2565b90505b60018111156135c3576f181899199a1a9b1b9c1cb0b131b232b360811b85600f166010811061357f5761357f6150f8565b1a60f81b828281518110613595576135956150f8565b60200101906001600160f81b031916908160001a90535060049490941c936135bc816158c1565b905061354e565b508315612fab5760405162461bcd60e51b815260206004820181905260248201527f537472696e67733a20686578206c656e67746820696e73756666696369656e746044820152606401610a64565b6000828152600b602090815260408083206001600160a01b0385168085529252808320805460ff1916600117905551339285917f2f8788117e7eff1d82e926ec794901d17c78024a50270940304540a733656f0d9190a45050565b6000828152600d602052604081208054916001919061368c83856152b2565b90915550506000928352600d6020908152604080852083865260018101835281862080546001600160a01b039096166001600160a01b03199096168617905593855260029093019052912055565b6136e482826123c1565b6000828152600b602090815260408083206001600160a01b0385168085529252808320805460ff1916905551339285917ff6391f5c32d9c69d2a47ea670b442974b53935d1edc7fd64eb21e047a839171b9190a45050565b61374581612669565b6137a75760405162461bcd60e51b815260206004820152602d60248201527f455243313936373a206e657720696d706c656d656e746174696f6e206973206e60448201526c1bdd08184818dbdb9d1c9858dd609a1b6064820152608401610a64565b600080516020615acf83398151915280546001600160a01b0319166001600160a01b0392909216919091179055565b6137df83613cac565b6000825111806137ec5750805b15610e00576111e58383612f86565b6000818310613817576000828152602084905260409020612fab565b6000838152602083905260409020612fab565b600080858585604051602001613842939291906158d8565b60405160208183030381529060405280519060200120905060008160405160200161389891907b0ca2ba3432b932bab69029b4b3b732b21026b2b9b9b0b3b29d05199960211b8152601c810191909152603c0190565b60405160208183030381529060405280519060200120905060008060006020870151925060408701519150606087015160001a9050600184828585604051600081526020016040526040516138f0949392919061590c565b6020604051602081039080840390855afa158015613912573d6000803e3d6000fd5b5050604051601f1901519b9a5050505050505050505050565b80613935576111e5565b6001600160a01b03841673eeeeeeeeeeeeeeeeeeeeeeeeeeeeeeeeeeeeeeee1415613969576139648282613cec565b6111e5565b6111e584848484613d8e565b604080516001808252818301909252606091600091906020808301908036833701905050905082816000815181106139af576139af6150f8565b602090810291909101015292915050565b6001600160a01b0384163b15611c2d5760405163f23a6e6160e01b81526001600160a01b0385169063f23a6e6190613a04908990899088908890889060040161592a565b6020604051808303816000875af1925050508015613a3f575060408051601f3d908101601f19168201909252613a3c918101906157d7565b60015b613a4b576133d06157f4565b6001600160e01b0319811663f23a6e6160e01b146116d65760405162461bcd60e51b8152600401610a6490615898565b6060613a8684612669565b613ae15760405162461bcd60e51b815260206004820152602660248201527f416464726573733a2064656c65676174652063616c6c20746f206e6f6e2d636f6044820152651b9d1c9858dd60d21b6064820152608401610a64565b600080856001600160a01b031685604051613afc9190615964565b600060405180830381855af49150503d8060008114613b37576040519150601f19603f3d011682016040523d82523d6000602084013e613b3c565b606091505b5091509150610e14828286613de7565b60607fc7a95ef88f83fa833ccfce325157b7111633b181b6a27181b86415d8d501134d613b7c6020840184614658565b613b8c6040850160208601614658565b6040850135613ba16080870160608801614658565b6080870135613bb360a089018961538f565b604051613bc1929190615980565b60405190819003902060c089013560e08a0135613be66101208c016101008d01614658565b613bf86101408d016101208e0161573f565b613c0a6101608e016101408f0161573f565b8d6101600135604051602001613c2c9d9c9b9a99989796959493929190615990565b6040516020818303038152906040529050919050565b60006108be613c4f613e20565b8360405161190160f01b6020820152602281018390526042810182905260009060620160405160208183030381529060405280519060200120905092915050565b6000806000613c9f8585613f47565b91509150610f2a81613fb7565b613cb58161373c565b6040516001600160a01b038216907fbc7cd75a20ee27fd9adebab32041f755214dbc6bffa90cc0225b39da2e5c2d3b90600090a250565b6000826001600160a01b03168260405160006040518083038185875af1925050503d8060008114613d39576040519150601f19603f3d011682016040523d82523d6000602084013e613d3e565b606091505b5050905080610e005760405162461bcd60e51b815260206004820152601c60248201527b1b985d1a5d99481d1bdad95b881d1c985b9cd9995c8819985a5b195960221b6044820152606401610a64565b816001600160a01b0316836001600160a01b03161415613dad576111e5565b6001600160a01b038316301415613dd2576139646001600160a01b038516838361416d565b6111e56001600160a01b0385168484846141d0565b60608315613df6575081612fab565b825115613e065782518084602001fd5b8160405162461bcd60e51b8152600401610a64919061462c565b6000306001600160a01b037f000000000000000000000000000000000000000000000000000000000000000016148015613e7957507f000000000000000000000000000000000000000000000000000000000000000046145b15613ea357507f000000000000000000000000000000000000000000000000000000000000000090565b50604080517f00000000000000000000000000000000000000000000000000000000000000006020808301919091527f0000000000000000000000000000000000000000000000000000000000000000828401527f000000000000000000000000000000000000000000000000000000000000000060608301524660808301523060a0808401919091528351808403909101815260c0909201909252805191012090565b600080825160411415613f7e5760208301516040840151606085015160001a613f7287828585614208565b94509450505050613fb0565b825160401415613fa85760208301516040840151613f9d8683836142de565b935093505050613fb0565b506000905060025b9250929050565b6000816004811115613fcb57613fcb615a1b565b1415613fd45750565b6001816004811115613fe857613fe8615a1b565b14156140315760405162461bcd60e51b815260206004820152601860248201527745434453413a20696e76616c6964207369676e617475726560401b6044820152606401610a64565b600281600481111561404557614045615a1b565b14156140935760405162461bcd60e51b815260206004820152601f60248201527f45434453413a20696e76616c6964207369676e6174757265206c656e677468006044820152606401610a64565b60038160048111156140a7576140a7615a1b565b14156141005760405162461bcd60e51b815260206004820152602260248201527f45434453413a20696e76616c6964207369676e6174757265202773272076616c604482015261756560f01b6064820152608401610a64565b600481600481111561411457614114615a1b565b1415610a765760405162461bcd60e51b815260206004820152602260248201527f45434453413a20696e76616c6964207369676e6174757265202776272076616c604482015261756560f01b6064820152608401610a64565b6040516001600160a01b038316602482015260448101829052610e0090849063a9059cbb60e01b906064015b60408051601f198184030181529190526020810180516001600160e01b03166001600160e01b031990931692909217909152614317565b6040516001600160a01b03808516602483015283166044820152606481018290526111e59085906323b872dd60e01b90608401614199565b6000806fa2a8918ca85bafe22016d0b997e4df60600160ff1b0383111561423557506000905060036142d5565b8460ff16601b1415801561424d57508460ff16601c14155b1561425e57506000905060046142d5565b600060018787878760405160008152602001604052604051614283949392919061590c565b6020604051602081039080840390855afa1580156142a5573d6000803e3d6000fd5b5050604051601f1901519150506001600160a01b0381166142ce576000600192509250506142d5565b9150600090505b94509492505050565b6000806001600160ff1b038316816142fb60ff86901c601b6152b2565b905061430987828885614208565b935093505050935093915050565b600061436c826040518060400160405280602081526020017f5361666545524332303a206c6f772d6c6576656c2063616c6c206661696c6564815250856001600160a01b03166143e99092919063ffffffff16565b805190915015610e00578080602001905181019061438a9190615a31565b610e005760405162461bcd60e51b815260206004820152602a60248201527f5361666545524332303a204552433230206f7065726174696f6e20646964206e6044820152691bdd081cdd58d8d9595960b21b6064820152608401610a64565b60606121a38484600085856143fd85612669565b6144495760405162461bcd60e51b815260206004820152601d60248201527f416464726573733a2063616c6c20746f206e6f6e2d636f6e74726163740000006044820152606401610a64565b600080866001600160a01b031685876040516144659190615964565b60006040518083038185875af1925050503d80600081146144a2576040519150601f19603f3d011682016040523d82523d6000602084013e6144a7565b606091505b50915091506144b7828286613de7565b979650505050505050565b8280546144ce9061506c565b90600052602060002090601f0160209004810192826144f05760008555614536565b82601f1061450957805160ff1916838001178555614536565b82800160010185558215614536579182015b8281111561453657825182559160200191906001019061451b565b50614542929150614546565b5090565b5b808211156145425760008155600101614547565b80356001600160a01b038116811461457257600080fd5b919050565b6000806040838503121561458a57600080fd5b6145938361455b565b946020939093013593505050565b6001600160e01b031981168114610a7657600080fd5b6000602082840312156145c957600080fd5b8135612fab816145a1565b60005b838110156145ef5781810151838201526020016145d7565b838111156111e55750506000910152565b600081518084526146188160208601602086016145d4565b601f01601f19169290920160200192915050565b602081526000612fab6020830184614600565b60006020828403121561465157600080fd5b5035919050565b60006020828403121561466a57600080fd5b612fab8261455b565b634e487b7160e01b600052604160045260246000fd5b601f8201601f191681016001600160401b03811182821017156146ae576146ae614673565b6040525050565b60006001600160401b038211156146ce576146ce614673565b5060051b60200190565b600082601f8301126146e957600080fd5b813560206146f6826146b5565b6040516147038282614689565b83815260059390931b850182019282810191508684111561472357600080fd5b8286015b8481101561473e5780358352918301918301614727565b509695505050505050565b600082601f83011261475a57600080fd5b81356001600160401b0381111561477357614773614673565b60405161478a601f8301601f191660200182614689565b81815284602083860101111561479f57600080fd5b816020850160208301376000918101602001919091529392505050565b600080600080600060a086880312156147d457600080fd5b6147dd8661455b565b94506147eb6020870161455b565b935060408601356001600160401b038082111561480757600080fd5b61481389838a016146d8565b9450606088013591508082111561482957600080fd5b61483589838a016146d8565b9350608088013591508082111561484b57600080fd5b5061485888828901614749565b9150509295509295909350565b6000806040838503121561487857600080fd5b823591506148886020840161455b565b90509250929050565b600080604083850312156148a457600080fd5b82356001600160401b03808211156148bb57600080fd5b6148c786838701614749565b935060208501359150808211156148dd57600080fd5b506148ea85828601614749565b9150509250929050565b60008083601f84011261490657600080fd5b5081356001600160401b0381111561491d57600080fd5b6020830191508360208260051b8501011115613fb057600080fd5b60008060008060006080868803121561495057600080fd5b85356001600160401b038082111561496757600080fd5b61497389838a01614749565b96506020880135955060408801359450606088013591508082111561499757600080fd5b506149a4888289016148f4565b969995985093965092949392505050565b600080604083850312156149c857600080fd5b82356001600160401b03808211156149df57600080fd5b818501915085601f8301126149f357600080fd5b81356020614a00826146b5565b604051614a0d8282614689565b83815260059390931b8501820192828101915089841115614a2d57600080fd5b948201945b83861015614a5257614a438661455b565b82529482019490820190614a32565b96505086013592505080821115614a6857600080fd5b506148ea858286016146d8565b600081518084526020808501945080840160005b83811015614aa557815187529582019590820190600101614a89565b509495945050505050565b602081526000612fab6020830184614a75565b60008060408385031215614ad657600080fd5b614adf8361455b565b915060208301356001600160401b03811115614afa57600080fd5b6148ea85828601614749565b6001600160a01b03169052565b600080600060608486031215614b2857600080fd5b614b318461455b565b925060208401356001600160401b0380821115614b4d57600080fd5b614b59878388016146d8565b93506040860135915080821115614b6f57600080fd5b50614b7c868287016146d8565b9150509250925092565b60008083601f840112614b9857600080fd5b5081356001600160401b03811115614baf57600080fd5b602083019150836020828501011115613fb057600080fd5b600080600080600080600080600060c08a8c031215614be557600080fd5b89356001600160401b0380821115614bfc57600080fd5b614c088d838e01614b86565b909b50995060208c0135985060408c01359750899150614c2a60608d0161455b565b965060808c0135915080821115614c4057600080fd5b614c4c8d838e01614b86565b909650945060a08c0135915080821115614c6557600080fd5b50614c728c828d016148f4565b915080935050809150509295985092959850929598565b60008060408385031215614c9c57600080fd5b50508035926020909101359150565b600060208284031215614cbd57600080fd5b81356001600160401b03811115614cd357600080fd5b6121a384828501614749565b60008060008060808587031215614cf557600080fd5b614cfe8561455b565b935060208501356001600160401b0380821115614d1a57600080fd5b614d26888389016146d8565b94506040870135915080821115614d3c57600080fd5b614d48888389016146d8565b93506060870135915080821115614d5e57600080fd5b50614d6b87828801614749565b91505092959194509250565b600080600060408486031215614d8c57600080fd5b83356001600160401b0380821115614da357600080fd5b908501906101808288031215614db857600080fd5b90935060208501359080821115614dce57600080fd5b50614ddb86828701614b86565b9497909650939450505050565b8015158114610a7657600080fd5b60008060408385031215614e0957600080fd5b614e128361455b565b91506020830135614e2281614de8565b809150509250929050565b60008060208385031215614e4057600080fd5b82356001600160401b03811115614e5657600080fd5b614e62858286016148f4565b90969095509350505050565b6000602080830181845280855180835260408601915060408160051b870101925083870160005b82811015614ec357603f19888603018452614eb1858351614600565b94509285019290850190600101614e95565b5092979650505050505050565b60008060008060808587031215614ee657600080fd5b614eef8561455b565b93506020850135925060408501356001600160401b03811115614f1157600080fd5b614f1d87828801614749565b949793965093946060013593505050565b60008060408385031215614f4157600080fd5b614f4a8361455b565b91506148886020840161455b565b600080600080600060a08688031215614f7057600080fd5b614f798661455b565b9450614f876020870161455b565b9350604086013592506060860135915060808601356001600160401b03811115614fb057600080fd5b61485888828901614749565b600080600060608486031215614fd157600080fd5b614fda8461455b565b95602085013595506040909401359392505050565b60008060006060848603121561500457600080fd5b83356001600160401b038082111561501b57600080fd5b61502787838801614749565b9450602086013591508082111561503d57600080fd5b5061504a86828701614749565b925050604084013560ff8116811461506157600080fd5b809150509250925092565b600181811c9082168061508057607f821691505b60208210811415611cfc57634e487b7160e01b600052602260045260246000fd5b600083516150b38184602088016145d4565b8351908301906150c78183602088016145d4565b01949350505050565b6020808252600e908201526d139bdd08185d5d1a1bdc9a5e995960921b604082015260600190565b634e487b7160e01b600052603260045260246000fd5b6020808252601290820152710853d5d3915497d3d497d054141493d5915160721b604082015260600190565b6020808252602c90820152600080516020615a8f83398151915260408201526b19195b1959d85d1958d85b1b60a21b606082015260800190565b6020808252602c90820152600080516020615a8f83398151915260408201526b6163746976652070726f787960a01b606082015260800190565b6020808252602e908201527f496e697469616c697a61626c653a20636f6e747261637420697320616c72656160408201526d191e481a5b9a5d1a585b1a5e995960921b606082015260800190565b6020808252600f908201526e0988a9c8ea890be9a92a69a82a8869608b1b604082015260600190565b634e487b7160e01b600052601160045260246000fd5b600060001982141561524f5761524f615225565b5060010190565b6020808252601190820152702ab730b8383937bb32b21031b0b63632b960791b604082015260600190565b602080825260179082015276139bdd08195b9bdd59da081d1bdad95b9cc81bdddb9959604a1b604082015260600190565b600082198211156152c5576152c5615225565b500190565b60208082526039908201527f4e7573614e46543a6d696e746572734f724f776e65724f6e6c793a204f4e4c5960408201527817d3525395115494d7d3d497d3d5d3915497d0531313d5d151603a1b606082015260800190565b838582379092019081526020810191909152604001919050565b60208082526014908201527326b4b73a34b733903d32b937903a37b5b2b7399760611b604082015260600190565b6020808252600a90820152691a5b9d985b1a59081a5960b21b604082015260600190565b6000808335601e198436030181126153a657600080fd5b8301803591506001600160401b038211156153c057600080fd5b602001915036819003821315613fb057600080fd5b6000808335601e198436030181126153ec57600080fd5b83016020810192503590506001600160401b0381111561540b57600080fd5b803603831315613fb057600080fd5b81835281816020850137506000828201602090810191909152601f909101601f19169091010190565b80356001600160801b038116811461457257600080fd5b6001600160801b03169052565b602081526154806020820161547b8461455b565b614b06565b600061548e6020840161455b565b61549b6040840182614b06565b50604083013560608301526154b26060840161455b565b6154bf6080840182614b06565b50608083013560a08301526154d760a08401846153d5565b6101808060c08601526154ef6101a08601838561541a565b925060c086013560e0860152610100915060e08601358286015261551482870161455b565b915061012061552581870184614b06565b615530818801615443565b9250506101406155428187018461545a565b61554d818801615443565b92505061016061555f8187018461545a565b9590950135939094019290925250919050565b634e487b7160e01b600052601260045260246000fd5b60008261559757615597615572565b500490565b6000828210156155ae576155ae615225565b500390565b6000826155c2576155c2615572565b500690565b6020808252600c908201526b2a27afad22a927afa0a2222960a11b604082015260600190565b60208082526010908201526f125394d551919250d251539517d0905360821b604082015260600190565b60408152600061562a6040830185614a75565b828103602084015261563c8185614a75565b95945050505050565b7402832b936b4b9b9b4b7b7399d1030b1b1b7bab73a1605d1b8152600083516156758160158501602088016145d4565b7001034b99036b4b9b9b4b733903937b6329607d1b60159184019182015283516156a68160268401602088016145d4565b01602601949350505050565b6000602082840312156156c457600080fd5b5051919050565b600084516156dd8184602089016145d4565b91909101928352506020820152604001919050565b6020808252600e908201526d232927a6afad22a927afa0a2222960911b604082015260600190565b60408152600061572d6040830185614600565b828103602084015261563c8185614600565b60006020828403121561575157600080fd5b612fab82615443565b600081600019048311821515161561577457615774615225565b500290565b6001600160a01b0386811682528516602082015260a0604082018190526000906157a590830186614a75565b82810360608401526157b78186614a75565b905082810360808401526157cb8185614600565b98975050505050505050565b6000602082840312156157e957600080fd5b8151612fab816145a1565b600060033d11156110945760046000803e5060005160e01c90565b600060443d101561581d5790565b6040516003193d81016004833e81513d6001600160401b03808311602484018310171561584c57505050505090565b82850191508151818111156158645750505050505090565b843d870101602082850101111561587e5750505050505090565b61588d60208286010187614689565b509095945050505050565b6020808252600f908201526e1513d2d15394d7d491529150d51151608a1b604082015260600190565b6000816158d0576158d0615225565b506000190190565b600084516158ea8184602089016145d4565b919091019283525060601b6001600160601b0319166020820152603401919050565b93845260ff9290921660208401526040830152606082015260800190565b6001600160a01b03868116825285166020820152604081018490526060810183905260a0608082018190526000906144b790830184614600565b600082516159768184602087016145d4565b9190910192915050565b8183823760009101908152919050565b8d81526001600160a01b038d811660208301528c81166040830152606082018c90528a8116608083015260a082018a905260c0820189905260e08201889052610100820187905285166101208201526001600160801b0384166101408201526101a08101615a0261016083018561545a565b826101808301529e9d5050505050505050505050505050565b634e487b7160e01b600052602160045260246000fd5b600060208284031215615a4357600080fd5b8151612fab81614de856fe4a39dc06d4c0dbc64b70af90fd698a233a518aa5d07e595d983b8c0526c8f7fbc3d58168c5ae7397731d063d5bbf3d657854427343f4c083240f7aacaa2d0f6246756e6374696f6e206d7573742062652063616c6c6564207468726f75676820be6a453fdd049461aaa0af9a3f749ab4b8f74b99e5f20df66f381f07e8a3cf5b360894a13ba1a3210667c828492db98dca3e2076cc3735a920a3ca505d382bbc7f26b83ff96e1f2b6a682f133852f6798a09c465da95921460cefb3847402498416464726573733a206c6f772d6c6576656c2064656c65676174652063616c6c206661696c6564a2646970667358221220b4c0b10016ca177cb373b339220ec2d80b89ef2ed186b917c10bfcc6d3e5f2fd64736f6c634300080b0033",
  "linkReferences": {},
  "deployedLinkReferences": {}
}