{
  "_format": "hh-sol-artifact-1",
  "contractName": "NusaNFT",
  "sourceName": "contracts/NusaNFT.sol",
  "abi": [
    {
      "inputs": [],
      "stateMutability": "nonpayable",
      "type": "constructor"
    },
    {
      "anonymous": false,
      "inputs": [
        {
          "indexed": false,
          "internalType": "address",
          "name": "previousAdmin",
          "type": "address"
        },
        {
          "indexed": false,
          "internalType": "address",
          "name": "newAdmin",
          "type": "address"
        }
      ],
      "name": "AdminChanged",
      "type": "event"
    },
    {
      "anonymous": false,
      "inputs": [
        {
          "indexed": true,
          "internalType": "address",
          "name": "_owner",
          "type": "address"
        },
        {
          "indexed": true,
          "internalType": "address",
          "name": "_operator",
          "type": "address"
        },
        {
          "indexed": false,
          "internalType": "bool",
          "name": "_approved",
          "type": "bool"
        }
      ],
      "name": "ApprovalForAll",
      "type": "event"
    },
    {
      "anonymous": false,
      "inputs": [
        {
          "indexed": true,
          "internalType": "address",
          "name": "beacon",
          "type": "address"
        }
      ],
      "name": "BeaconUpgraded",
      "type": "event"
    },
    {
      "anonymous": false,
      "inputs": [
        {
          "indexed": false,
          "internalType": "string",
          "name": "prevURI",
          "type": "string"
        },
        {
          "indexed": false,
          "internalType": "string",
          "name": "newURI",
          "type": "string"
        }
      ],
      "name": "ContractURIUpdated",
      "type": "event"
    },
    {
      "anonymous": false,
      "inputs": [
        {
          "indexed": false,
          "internalType": "uint8",
          "name": "version",
          "type": "uint8"
        }
      ],
      "name": "Initialized",
      "type": "event"
    },
    {
      "anonymous": false,
      "inputs": [
        {
          "indexed": true,
          "internalType": "address",
          "name": "prevOwner",
          "type": "address"
        },
        {
          "indexed": true,
          "internalType": "address",
          "name": "newOwner",
          "type": "address"
        }
      ],
      "name": "OwnerUpdated",
      "type": "event"
    },
    {
      "anonymous": false,
      "inputs": [
        {
          "indexed": true,
          "internalType": "bytes32",
          "name": "role",
          "type": "bytes32"
        },
        {
          "indexed": true,
          "internalType": "bytes32",
          "name": "previousAdminRole",
          "type": "bytes32"
        },
        {
          "indexed": true,
          "internalType": "bytes32",
          "name": "newAdminRole",
          "type": "bytes32"
        }
      ],
      "name": "RoleAdminChanged",
      "type": "event"
    },
    {
      "anonymous": false,
      "inputs": [
        {
          "indexed": true,
          "internalType": "bytes32",
          "name": "role",
          "type": "bytes32"
        },
        {
          "indexed": true,
          "internalType": "address",
          "name": "account",
          "type": "address"
        },
        {
          "indexed": true,
          "internalType": "address",
          "name": "sender",
          "type": "address"
        }
      ],
      "name": "RoleGranted",
      "type": "event"
    },
    {
      "anonymous": false,
      "inputs": [
        {
          "indexed": true,
          "internalType": "bytes32",
          "name": "role",
          "type": "bytes32"
        },
        {
          "indexed": true,
          "internalType": "address",
          "name": "account",
          "type": "address"
        },
        {
          "indexed": true,
          "internalType": "address",
          "name": "sender",
          "type": "address"
        }
      ],
      "name": "RoleRevoked",
      "type": "event"
    },
    {
      "anonymous": false,
      "inputs": [
        {
          "indexed": true,
          "internalType": "uint256",
          "name": "tokenId",
          "type": "uint256"
        }
      ],
      "name": "TokenCreated",
      "type": "event"
    },
    {
      "anonymous": false,
      "inputs": [
        {
          "indexed": true,
          "internalType": "address",
          "name": "signer",
          "type": "address"
        },
        {
          "indexed": true,
          "internalType": "address",
          "name": "mintedTo",
          "type": "address"
        },
        {
          "indexed": true,
          "internalType": "uint256",
          "name": "tokenIdMinted",
          "type": "uint256"
        },
        {
          "components": [
            {
              "internalType": "address",
              "name": "to",
              "type": "address"
            },
            {
              "internalType": "address",
              "name": "royaltyRecipient",
              "type": "address"
            },
            {
              "internalType": "uint256",
              "name": "royaltyBps",
              "type": "uint256"
            },
            {
              "internalType": "address",
              "name": "primarySaleRecipient",
              "type": "address"
            },
            {
              "internalType": "uint256",
              "name": "tokenId",
              "type": "uint256"
            },
            {
              "internalType": "string",
              "name": "uri",
              "type": "string"
            },
            {
              "internalType": "uint256",
              "name": "quantity",
              "type": "uint256"
            },
            {
              "internalType": "uint256",
              "name": "pricePerToken",
              "type": "uint256"
            },
            {
              "internalType": "address",
              "name": "currency",
              "type": "address"
            },
            {
              "internalType": "uint128",
              "name": "validityStartTimestamp",
              "type": "uint128"
            },
            {
              "internalType": "uint128",
              "name": "validityEndTimestamp",
              "type": "uint128"
            },
            {
              "internalType": "bytes32",
              "name": "uid",
              "type": "bytes32"
            }
          ],
          "indexed": false,
          "internalType": "struct ISignatureMintERC1155.MintRequest",
          "name": "mintRequest",
          "type": "tuple"
        }
      ],
      "name": "TokensMintedWithSignature",
      "type": "event"
    },
    {
      "anonymous": false,
      "inputs": [
        {
          "indexed": true,
          "internalType": "address",
          "name": "_operator",
          "type": "address"
        },
        {
          "indexed": true,
          "internalType": "address",
          "name": "_from",
          "type": "address"
        },
        {
          "indexed": true,
          "internalType": "address",
          "name": "_to",
          "type": "address"
        },
        {
          "indexed": false,
          "internalType": "uint256[]",
          "name": "_ids",
          "type": "uint256[]"
        },
        {
          "indexed": false,
          "internalType": "uint256[]",
          "name": "_values",
          "type": "uint256[]"
        }
      ],
      "name": "TransferBatch",
      "type": "event"
    },
    {
      "anonymous": false,
      "inputs": [
        {
          "indexed": true,
          "internalType": "address",
          "name": "_operator",
          "type": "address"
        },
        {
          "indexed": true,
          "internalType": "address",
          "name": "_from",
          "type": "address"
        },
        {
          "indexed": true,
          "internalType": "address",
          "name": "_to",
          "type": "address"
        },
        {
          "indexed": false,
          "internalType": "uint256",
          "name": "_id",
          "type": "uint256"
        },
        {
          "indexed": false,
          "internalType": "uint256",
          "name": "_value",
          "type": "uint256"
        }
      ],
      "name": "TransferSingle",
      "type": "event"
    },
    {
      "anonymous": false,
      "inputs": [
        {
          "indexed": false,
          "internalType": "string",
          "name": "_value",
          "type": "string"
        },
        {
          "indexed": true,
          "internalType": "uint256",
          "name": "_id",
          "type": "uint256"
        }
      ],
      "name": "URI",
      "type": "event"
    },
    {
      "anonymous": false,
      "inputs": [
        {
          "indexed": true,
          "internalType": "address",
          "name": "implementation",
          "type": "address"
        }
      ],
      "name": "Upgraded",
      "type": "event"
    },
    {
      "inputs": [],
      "name": "ADMIN_MINTER_ROLE",
      "outputs": [
        {
          "internalType": "bytes32",
          "name": "",
          "type": "bytes32"
        }
      ],
      "stateMutability": "view",
      "type": "function"
    },
    {
      "inputs": [],
      "name": "DEFAULT_ADMIN_ROLE",
      "outputs": [
        {
          "internalType": "bytes32",
          "name": "",
          "type": "bytes32"
        }
      ],
      "stateMutability": "view",
      "type": "function"
    },
    {
      "inputs": [
        {
          "internalType": "uint256",
          "name": "",
          "type": "uint256"
        }
      ],
      "name": "_rootHashVoucher",
      "outputs": [
        {
          "internalType": "bytes32",
          "name": "",
          "type": "bytes32"
        }
      ],
      "stateMutability": "view",
      "type": "function"
    },
    {
      "inputs": [
        {
          "internalType": "address",
          "name": "",
          "type": "address"
        },
        {
          "internalType": "uint256",
          "name": "",
          "type": "uint256"
        }
      ],
      "name": "balanceOf",
      "outputs": [
        {
          "internalType": "uint256",
          "name": "",
          "type": "uint256"
        }
      ],
      "stateMutability": "view",
      "type": "function"
    },
    {
      "inputs": [
        {
          "internalType": "address[]",
          "name": "accounts",
          "type": "address[]"
        },
        {
          "internalType": "uint256[]",
          "name": "ids",
          "type": "uint256[]"
        }
      ],
      "name": "balanceOfBatch",
      "outputs": [
        {
          "internalType": "uint256[]",
          "name": "",
          "type": "uint256[]"
        }
      ],
      "stateMutability": "view",
      "type": "function"
    },
    {
      "inputs": [
        {
          "internalType": "address",
          "name": "_to",
          "type": "address"
        },
        {
          "internalType": "uint256[]",
          "name": "_tokenIds",
          "type": "uint256[]"
        },
        {
          "internalType": "uint256[]",
          "name": "_amounts",
          "type": "uint256[]"
        },
        {
          "internalType": "string",
          "name": "_baseURI",
          "type": "string"
        }
      ],
      "name": "batchMintTo",
      "outputs": [],
      "stateMutability": "nonpayable",
      "type": "function"
    },
    {
      "inputs": [
        {
          "internalType": "address",
          "name": "_owner",
          "type": "address"
        },
        {
          "internalType": "uint256",
          "name": "_tokenId",
          "type": "uint256"
        },
        {
          "internalType": "uint256",
          "name": "_amount",
          "type": "uint256"
        }
      ],
      "name": "burn",
      "outputs": [],
      "stateMutability": "nonpayable",
      "type": "function"
    },
    {
      "inputs": [
        {
          "internalType": "address",
          "name": "_owner",
          "type": "address"
        },
        {
          "internalType": "uint256[]",
          "name": "_tokenIds",
          "type": "uint256[]"
        },
        {
          "internalType": "uint256[]",
          "name": "_amounts",
          "type": "uint256[]"
        }
      ],
      "name": "burnBatch",
      "outputs": [],
      "stateMutability": "nonpayable",
      "type": "function"
    },
    {
      "inputs": [
        {
          "internalType": "string",
          "name": "voucher",
          "type": "string"
        },
        {
          "internalType": "uint256",
          "name": "_tokenId",
          "type": "uint256"
        },
        {
          "internalType": "address",
          "name": "_to",
          "type": "address"
        },
        {
          "internalType": "bytes32[]",
          "name": "merkleProof",
          "type": "bytes32[]"
        }
      ],
      "name": "claimVoucher",
      "outputs": [],
      "stateMutability": "nonpayable",
      "type": "function"
    },
    {
      "inputs": [],
      "name": "contractURI",
      "outputs": [
        {
          "internalType": "string",
          "name": "",
          "type": "string"
        }
      ],
      "stateMutability": "view",
      "type": "function"
    },
    {
      "inputs": [
        {
          "internalType": "address",
          "name": "_to",
          "type": "address"
        },
        {
          "internalType": "string",
          "name": "_tokenURI",
          "type": "string"
        }
      ],
      "name": "create",
      "outputs": [],
      "stateMutability": "nonpayable",
      "type": "function"
    },
    {
      "inputs": [
        {
          "internalType": "uint256",
          "name": "_tokenId",
          "type": "uint256"
        }
      ],
      "name": "creator",
      "outputs": [
        {
          "internalType": "address",
          "name": "",
          "type": "address"
        }
      ],
      "stateMutability": "view",
      "type": "function"
    },
    {
      "inputs": [],
      "name": "getBaseURICount",
      "outputs": [
        {
          "internalType": "uint256",
          "name": "",
          "type": "uint256"
        }
      ],
      "stateMutability": "view",
      "type": "function"
    },
    {
      "inputs": [
        {
          "internalType": "uint256",
          "name": "_index",
          "type": "uint256"
        }
      ],
      "name": "getBatchIdAtIndex",
      "outputs": [
        {
          "internalType": "uint256",
          "name": "",
          "type": "uint256"
        }
      ],
      "stateMutability": "view",
      "type": "function"
    },
    {
      "inputs": [
        {
          "internalType": "bytes32",
          "name": "role",
          "type": "bytes32"
        }
      ],
      "name": "getRoleAdmin",
      "outputs": [
        {
          "internalType": "bytes32",
          "name": "",
          "type": "bytes32"
        }
      ],
      "stateMutability": "view",
      "type": "function"
    },
    {
      "inputs": [
        {
          "internalType": "bytes32",
          "name": "role",
          "type": "bytes32"
        },
        {
          "internalType": "uint256",
          "name": "index",
          "type": "uint256"
        }
      ],
      "name": "getRoleMember",
      "outputs": [
        {
          "internalType": "address",
          "name": "member",
          "type": "address"
        }
      ],
      "stateMutability": "view",
      "type": "function"
    },
    {
      "inputs": [
        {
          "internalType": "bytes32",
          "name": "role",
          "type": "bytes32"
        }
      ],
      "name": "getRoleMemberCount",
      "outputs": [
        {
          "internalType": "uint256",
          "name": "count",
          "type": "uint256"
        }
      ],
      "stateMutability": "view",
      "type": "function"
    },
    {
      "inputs": [],
      "name": "getTimestamp",
      "outputs": [
        {
          "internalType": "uint256",
          "name": "",
          "type": "uint256"
        }
      ],
      "stateMutability": "view",
      "type": "function"
    },
    {
      "inputs": [
        {
          "internalType": "bytes32",
          "name": "role",
          "type": "bytes32"
        },
        {
          "internalType": "address",
          "name": "account",
          "type": "address"
        }
      ],
      "name": "grantRole",
      "outputs": [],
      "stateMutability": "nonpayable",
      "type": "function"
    },
    {
      "inputs": [
        {
          "internalType": "bytes32",
          "name": "role",
          "type": "bytes32"
        },
        {
          "internalType": "address",
          "name": "account",
          "type": "address"
        }
      ],
      "name": "hasRole",
      "outputs": [
        {
          "internalType": "bool",
          "name": "",
          "type": "bool"
        }
      ],
      "stateMutability": "view",
      "type": "function"
    },
    {
      "inputs": [
        {
          "internalType": "bytes32",
          "name": "role",
          "type": "bytes32"
        },
        {
          "internalType": "address",
          "name": "account",
          "type": "address"
        }
      ],
      "name": "hasRoleWithSwitch",
      "outputs": [
        {
          "internalType": "bool",
          "name": "",
          "type": "bool"
        }
      ],
      "stateMutability": "view",
      "type": "function"
    },
    {
      "inputs": [
        {
          "internalType": "string",
          "name": "_name",
          "type": "string"
        },
        {
          "internalType": "string",
          "name": "_symbol",
          "type": "string"
        }
      ],
      "name": "initialize",
      "outputs": [],
      "stateMutability": "nonpayable",
      "type": "function"
    },
    {
      "inputs": [
        {
          "internalType": "address",
          "name": "",
          "type": "address"
        },
        {
          "internalType": "address",
          "name": "",
          "type": "address"
        }
      ],
      "name": "isApprovedForAll",
      "outputs": [
        {
          "internalType": "bool",
          "name": "",
          "type": "bool"
        }
      ],
      "stateMutability": "view",
      "type": "function"
    },
    {
      "inputs": [
        {
          "internalType": "string",
          "name": "voucher",
          "type": "string"
        },
        {
          "internalType": "uint256",
          "name": "_tokenId",
          "type": "uint256"
        },
        {
          "internalType": "bytes32[]",
          "name": "proof",
          "type": "bytes32[]"
        }
      ],
      "name": "isValidVoucher",
      "outputs": [
        {
          "internalType": "bool",
          "name": "",
          "type": "bool"
        }
      ],
      "stateMutability": "view",
      "type": "function"
    },
    {
      "inputs": [
        {
          "internalType": "address",
          "name": "_to",
          "type": "address"
        },
        {
          "internalType": "uint256",
          "name": "_tokenId",
          "type": "uint256"
        },
        {
          "internalType": "string",
          "name": "_tokenURI",
          "type": "string"
        },
        {
          "internalType": "uint256",
          "name": "_amount",
          "type": "uint256"
        }
      ],
      "name": "mintTo",
      "outputs": [],
      "stateMutability": "nonpayable",
      "type": "function"
    },
    {
      "inputs": [
        {
          "components": [
            {
              "internalType": "address",
              "name": "to",
              "type": "address"
            },
            {
              "internalType": "address",
              "name": "royaltyRecipient",
              "type": "address"
            },
            {
              "internalType": "uint256",
              "name": "royaltyBps",
              "type": "uint256"
            },
            {
              "internalType": "address",
              "name": "primarySaleRecipient",
              "type": "address"
            },
            {
              "internalType": "uint256",
              "name": "tokenId",
              "type": "uint256"
            },
            {
              "internalType": "string",
              "name": "uri",
              "type": "string"
            },
            {
              "internalType": "uint256",
              "name": "quantity",
              "type": "uint256"
            },
            {
              "internalType": "uint256",
              "name": "pricePerToken",
              "type": "uint256"
            },
            {
              "internalType": "address",
              "name": "currency",
              "type": "address"
            },
            {
              "internalType": "uint128",
              "name": "validityStartTimestamp",
              "type": "uint128"
            },
            {
              "internalType": "uint128",
              "name": "validityEndTimestamp",
              "type": "uint128"
            },
            {
              "internalType": "bytes32",
              "name": "uid",
              "type": "bytes32"
            }
          ],
          "internalType": "struct ISignatureMintERC1155.MintRequest",
          "name": "_req",
          "type": "tuple"
        },
        {
          "internalType": "bytes",
          "name": "_signature",
          "type": "bytes"
        }
      ],
      "name": "mintWithSignature",
      "outputs": [
        {
          "internalType": "address",
          "name": "signer",
          "type": "address"
        }
      ],
      "stateMutability": "payable",
      "type": "function"
    },
    {
      "inputs": [
        {
          "internalType": "bytes[]",
          "name": "data",
          "type": "bytes[]"
        }
      ],
      "name": "multicall",
      "outputs": [
        {
          "internalType": "bytes[]",
          "name": "results",
          "type": "bytes[]"
        }
      ],
      "stateMutability": "nonpayable",
      "type": "function"
    },
    {
      "inputs": [],
      "name": "name",
      "outputs": [
        {
          "internalType": "string",
          "name": "",
          "type": "string"
        }
      ],
      "stateMutability": "view",
      "type": "function"
    },
    {
      "inputs": [],
      "name": "nextTokenIdToMint",
      "outputs": [
        {
          "internalType": "uint256",
          "name": "",
          "type": "uint256"
        }
      ],
      "stateMutability": "view",
      "type": "function"
    },
    {
      "inputs": [],
      "name": "owner",
      "outputs": [
        {
          "internalType": "address",
          "name": "",
          "type": "address"
        }
      ],
      "stateMutability": "view",
      "type": "function"
    },
    {
      "inputs": [],
      "name": "proxiableUUID",
      "outputs": [
        {
          "internalType": "bytes32",
          "name": "",
          "type": "bytes32"
        }
      ],
      "stateMutability": "view",
      "type": "function"
    },
    {
      "inputs": [
        {
          "internalType": "uint256",
          "name": "_tokenId",
          "type": "uint256"
        },
        {
          "internalType": "bytes32",
          "name": "rootHash",
          "type": "bytes32"
        }
      ],
      "name": "registerVoucher",
      "outputs": [],
      "stateMutability": "nonpayable",
      "type": "function"
    },
    {
      "inputs": [
        {
          "internalType": "string",
          "name": "_name",
          "type": "string"
        },
        {
          "internalType": "string",
          "name": "_symbol",
          "type": "string"
        },
        {
          "internalType": "uint8",
          "name": "version",
          "type": "uint8"
        }
      ],
      "name": "reinitialize",
      "outputs": [],
      "stateMutability": "nonpayable",
      "type": "function"
    },
    {
      "inputs": [
        {
          "internalType": "bytes32",
          "name": "role",
          "type": "bytes32"
        },
        {
          "internalType": "address",
          "name": "account",
          "type": "address"
        }
      ],
      "name": "renounceRole",
      "outputs": [],
      "stateMutability": "nonpayable",
      "type": "function"
    },
    {
      "inputs": [
        {
          "internalType": "bytes32",
          "name": "role",
          "type": "bytes32"
        },
        {
          "internalType": "address",
          "name": "account",
          "type": "address"
        }
      ],
      "name": "revokeRole",
      "outputs": [],
      "stateMutability": "nonpayable",
      "type": "function"
    },
    {
      "inputs": [
        {
          "internalType": "address",
          "name": "from",
          "type": "address"
        },
        {
          "internalType": "address",
          "name": "to",
          "type": "address"
        },
        {
          "internalType": "uint256[]",
          "name": "ids",
          "type": "uint256[]"
        },
        {
          "internalType": "uint256[]",
          "name": "amounts",
          "type": "uint256[]"
        },
        {
          "internalType": "bytes",
          "name": "data",
          "type": "bytes"
        }
      ],
      "name": "safeBatchTransferFrom",
      "outputs": [],
      "stateMutability": "nonpayable",
      "type": "function"
    },
    {
      "inputs": [
        {
          "internalType": "address",
          "name": "from",
          "type": "address"
        },
        {
          "internalType": "address",
          "name": "to",
          "type": "address"
        },
        {
          "internalType": "uint256",
          "name": "id",
          "type": "uint256"
        },
        {
          "internalType": "uint256",
          "name": "amount",
          "type": "uint256"
        },
        {
          "internalType": "bytes",
          "name": "data",
          "type": "bytes"
        }
      ],
      "name": "safeTransferFrom",
      "outputs": [],
      "stateMutability": "nonpayable",
      "type": "function"
    },
    {
      "inputs": [
        {
          "internalType": "address",
          "name": "operator",
          "type": "address"
        },
        {
          "internalType": "bool",
          "name": "approved",
          "type": "bool"
        }
      ],
      "name": "setApprovalForAll",
      "outputs": [],
      "stateMutability": "nonpayable",
      "type": "function"
    },
    {
      "inputs": [
        {
          "internalType": "string",
          "name": "_uri",
          "type": "string"
        }
      ],
      "name": "setContractURI",
      "outputs": [],
      "stateMutability": "nonpayable",
      "type": "function"
    },
    {
      "inputs": [
        {
          "internalType": "address",
          "name": "_newOwner",
          "type": "address"
        }
      ],
      "name": "setOwner",
      "outputs": [],
      "stateMutability": "nonpayable",
      "type": "function"
    },
    {
      "inputs": [
        {
          "internalType": "uint256",
          "name": "_tokenId",
          "type": "uint256"
        },
        {
          "internalType": "string",
          "name": "_tokenURI",
          "type": "string"
        }
      ],
      "name": "setTokenURI",
      "outputs": [],
      "stateMutability": "nonpayable",
      "type": "function"
    },
    {
      "inputs": [
        {
          "internalType": "bytes4",
          "name": "interfaceId",
          "type": "bytes4"
        }
      ],
      "name": "supportsInterface",
      "outputs": [
        {
          "internalType": "bool",
          "name": "",
          "type": "bool"
        }
      ],
      "stateMutability": "view",
      "type": "function"
    },
    {
      "inputs": [],
      "name": "symbol",
      "outputs": [
        {
          "internalType": "string",
          "name": "",
          "type": "string"
        }
      ],
      "stateMutability": "view",
      "type": "function"
    },
    {
      "inputs": [
        {
          "internalType": "uint256",
          "name": "",
          "type": "uint256"
        }
      ],
      "name": "totalSupply",
      "outputs": [
        {
          "internalType": "uint256",
          "name": "",
          "type": "uint256"
        }
      ],
      "stateMutability": "view",
      "type": "function"
    },
    {
      "inputs": [
        {
          "internalType": "address",
          "name": "newImplementation",
          "type": "address"
        }
      ],
      "name": "upgradeTo",
      "outputs": [],
      "stateMutability": "nonpayable",
      "type": "function"
    },
    {
      "inputs": [
        {
          "internalType": "address",
          "name": "newImplementation",
          "type": "address"
        },
        {
          "internalType": "bytes",
          "name": "data",
          "type": "bytes"
        }
      ],
      "name": "upgradeToAndCall",
      "outputs": [],
      "stateMutability": "payable",
      "type": "function"
    },
    {
      "inputs": [
        {
          "internalType": "uint256",
          "name": "_tokenId",
          "type": "uint256"
        }
      ],
      "name": "uri",
      "outputs": [
        {
          "internalType": "string",
          "name": "",
          "type": "string"
        }
      ],
      "stateMutability": "view",
      "type": "function"
    },
    {
      "inputs": [
        {
          "components": [
            {
              "internalType": "address",
              "name": "to",
              "type": "address"
            },
            {
              "internalType": "address",
              "name": "royaltyRecipient",
              "type": "address"
            },
            {
              "internalType": "uint256",
              "name": "royaltyBps",
              "type": "uint256"
            },
            {
              "internalType": "address",
              "name": "primarySaleRecipient",
              "type": "address"
            },
            {
              "internalType": "uint256",
              "name": "tokenId",
              "type": "uint256"
            },
            {
              "internalType": "string",
              "name": "uri",
              "type": "string"
            },
            {
              "internalType": "uint256",
              "name": "quantity",
              "type": "uint256"
            },
            {
              "internalType": "uint256",
              "name": "pricePerToken",
              "type": "uint256"
            },
            {
              "internalType": "address",
              "name": "currency",
              "type": "address"
            },
            {
              "internalType": "uint128",
              "name": "validityStartTimestamp",
              "type": "uint128"
            },
            {
              "internalType": "uint128",
              "name": "validityEndTimestamp",
              "type": "uint128"
            },
            {
              "internalType": "bytes32",
              "name": "uid",
              "type": "bytes32"
            }
          ],
          "internalType": "struct ISignatureMintERC1155.MintRequest",
          "name": "_req",
          "type": "tuple"
        },
        {
          "internalType": "bytes",
          "name": "_signature",
          "type": "bytes"
        }
      ],
      "name": "verify",
      "outputs": [
        {
          "internalType": "bool",
          "name": "success",
          "type": "bool"
        },
        {
          "internalType": "address",
          "name": "signer",
          "type": "address"
        }
      ],
      "stateMutability": "view",
      "type": "function"
    }
  ],
  "bytecode": "0x61016060405230610140523480156200001757600080fd5b506040518060400160405280601481526020017f5369676e61747572654d696e7445524331313535000000000000000000000000815250604051806040016040528060018152602001603160f81b81525060405180602001604052806000815250604051806020016040528060008152508160009080519060200190620000a0929190620001ab565b508051620000b6906001906020840190620001ab565b5050825160209384012082519284019290922060e08390526101008190524660a0818152604080517f8b73c3c69bb8fe3d512ecc4cf759cc79239f7b179b0ffacaa9a75d522b39400f818901819052818301979097526060810194909452608080850193909352308483018190528151808603909301835260c0948501909152815191909601209052929092526101205250620001533362000159565b6200028e565b600680546001600160a01b038381166001600160a01b0319831681179093556040519116919082907f8292fce18fa69edf4db7b94ea2e58241df0ae57f97e0a6c9b29067028bf92d7690600090a35050565b828054620001b99062000251565b90600052602060002090601f016020900481019282620001dd576000855562000228565b82601f10620001f857805160ff191683800117855562000228565b8280016001018555821562000228579182015b82811115620002285782518255916020019190600101906200020b565b50620002369291506200023a565b5090565b5b808211156200023657600081556001016200023b565b600181811c908216806200026657607f821691505b602082108114156200028857634e487b7160e01b600052602260045260246000fd5b50919050565b60805160a05160c05160e051610100516101205161014051615ab96200030560003960008181610dd101528181610e11015281816110a0015281816110e0015261115801526000613e8401526000613ed301526000613eae01526000613e0701526000613e3101526000613e5b0152615ab96000f3fe6080604052600436106102225760003560e01c8062fdd58e1461022757806301b26ad71461027257806301ffc9a7146102a257806306fdde03146102c25780630e89341c146102e457806313af403514610304578063162094c414610326578063188ec356146103465780632419f51b14610359578063248a9ca3146103795780632eb2c2d6146103a65780632f2ff15d146103c657806336568abe146103e65780633659cfe6146104065780633b1475a714610426578063442336131461043b5780634cd88b76146104685780634e1273f4146104885780634f1ef286146104b5578063510b5158146104c857806352d1902d1461051657806363b45e2d1461052b5780636b20c4541461054057806372ba67f714610560578063772906ac146105805780638da5cb5b146105a25780639010d07c146105b757806391d14854146105d7578063938e3d7b146105f757806393969fff14610617578063949c09f71461063757806395d89b411461065757806398a6e9931461066c578063a15ab08d1461067f578063a217fddf1461069f578063a22cb465146106b4578063a32fa5b3146106d4578063ac9650d8146106f4578063b03f452814610721578063b17cd86f14610741578063bd85b03914610780578063ca15c873146107ad578063d547741f146107cd578063e8a3d485146107ed578063e985e9c514610802578063f242432a1461083d578063f5298aca1461085d578063f6d2e2471461087d575b600080fd5b34801561023357600080fd5b5061025f61024236600461455e565b600260209081526000928352604080842090915290825290205481565b6040519081526020015b60405180910390f35b34801561027e57600080fd5b5061029261028d366004614681565b61089d565b6040519015158152602001610269565b3480156102ae57600080fd5b506102926102bd366004614706565b6108b6565b3480156102ce57600080fd5b506102d7610908565b604051610269919061477b565b3480156102f057600080fd5b506102d76102ff36600461478e565b610996565b34801561031057600080fd5b5061032461031f3660046147a7565b610a84565b005b34801561033257600080fd5b50610324610341366004614803565b610abd565b34801561035257600080fd5b504261025f565b34801561036557600080fd5b5061025f61037436600461478e565b610bf5565b34801561038557600080fd5b5061025f61039436600461478e565b6000908152600c602052604090205490565b3480156103b257600080fd5b506103246103c13660046148e2565b610c63565b3480156103d257600080fd5b506103246103e136600461498b565b610ccd565b3480156103f257600080fd5b5061032461040136600461498b565b610d67565b34801561041257600080fd5b506103246104213660046147a7565b610dc6565b34801561043257600080fd5b50600e5461025f565b34801561044757600080fd5b5061025f61045636600461478e565b60126020526000908152604090205481565b34801561047457600080fd5b506103246104833660046149b7565b610e8c565b34801561049457600080fd5b506104a86104a3366004614a1a565b610f81565b6040516102699190614b15565b6103246104c3366004614b28565b611095565b3480156104d457600080fd5b506104fe6104e336600461478e565b6000908152601060205260409020546001600160a01b031690565b6040516001600160a01b039091168152602001610269565b34801561052257600080fd5b5061025f61114b565b34801561053757600080fd5b5060075461025f565b34801561054c57600080fd5b5061032461055b366004614b78565b6111fa565b34801561056c57600080fd5b5061032461057b366004614beb565b611348565b34801561058c57600080fd5b5061025f6000805160206159fd83398151915281565b3480156105ae57600080fd5b506104fe61148c565b3480156105c357600080fd5b506104fe6105d2366004614c77565b61149b565b3480156105e357600080fd5b506102926105f236600461498b565b61158a565b34801561060357600080fd5b50610324610612366004614c99565b6115b5565b34801561062357600080fd5b50610324610632366004614c77565b6115e2565b34801561064357600080fd5b50610324610652366004614ccd565b61164b565b34801561066357600080fd5b506102d76117d7565b6104fe61067a366004614d65565b6117e4565b34801561068b57600080fd5b5061032461069a366004614b28565b6119cb565b3480156106ab57600080fd5b5061025f600081565b3480156106c057600080fd5b506103246106cf366004614dd7565b611aad565b3480156106e057600080fd5b506102926106ef36600461498b565b611b65565b34801561070057600080fd5b5061071461070f366004614e0e565b611bbb565b6040516102699190614e4f565b34801561072d57600080fd5b5061032461073c366004614eb1565b611caf565b34801561074d57600080fd5b5061076161075c366004614d65565b611d55565b6040805192151583526001600160a01b03909116602083015201610269565b34801561078c57600080fd5b5061025f61079b36600461478e565b600f6020526000908152604090205481565b3480156107b957600080fd5b5061025f6107c836600461478e565b611d99565b3480156107d957600080fd5b506103246107e836600461498b565b611e22565b3480156107f957600080fd5b506102d7611e3b565b34801561080e57600080fd5b5061029261081d366004614f0f565b600360209081526000928352604080842090915290825290205460ff1681565b34801561084957600080fd5b50610324610858366004614f39565b611e48565b34801561086957600080fd5b50610324610878366004614f9d565b611eab565b34801561088957600080fd5b50610324610898366004614fd0565b611f52565b60006108ab8585858561202a565b90505b949350505050565b6000636cdb3d1360e11b6001600160e01b0319831614806108e757506303a24d0760e21b6001600160e01b03198316145b8061090257506001600160e01b0319821663152a902d60e11b145b92915050565b600080546109159061504d565b80601f01602080910402602001604051908101604052809291908181526020018280546109419061504d565b801561098e5780601f106109635761010080835404028352916020019161098e565b820191906000526020600020905b81548152906001019060200180831161097157829003601f168201915b505050505081565b6000818152600460205260408120805460609291906109b49061504d565b80601f01602080910402602001604051908101604052809291908181526020018280546109e09061504d565b8015610a2d5780601f10610a0257610100808354040283529160200191610a2d565b820191906000526020600020905b815481529060010190602001808311610a1057829003601f168201915b50505050509050600081511115610a445792915050565b6000610a4f846120f7565b905080610a5b85612293565b604051602001610a6c929190615082565b60405160208183030381529060405292505050919050565b610a8c612390565b610ab15760405162461bcd60e51b8152600401610aa8906150b1565b60405180910390fd5b610aba816123b3565b50565b60008381526010602052604090205483906001600160a01b03163314610b375760405162461bcd60e51b815260206004820152602960248201527f4e7573614e46542363726561746f724f6e6c793a204f4e4c595f43524541544f6044820152681497d0531313d5d15160ba1b6064820152608401610aa8565b610b65604051806040016040528060048152602001636970667360e01b815250610b6086610996565b612405565b15610baf5760405162461bcd60e51b815260206004820152601a60248201527936b2ba30b230ba309034b99030b63932b0b23c90333937bd32b760311b6044820152606401610aa8565b610bef8484848080601f0160208091040260200160405190810160405280939291908181526020018383808284376000920191909152506124da92505050565b50505050565b6000610c0060075490565b8210610c3e5760405162461bcd60e51b815260206004820152600d60248201526c092dcecc2d8d2c840d2dcc8caf609b1b6044820152606401610aa8565b60078281548110610c5157610c516150d9565b90600052602060002001549050919050565b6001600160a01b038516331480610c9d57506001600160a01b038516600090815260036020908152604080832033845290915290205460ff165b610cb95760405162461bcd60e51b8152600401610aa8906150ef565b610cc685858585856124f9565b5050505050565b6000828152600c6020526040902054610ce6903361269a565b6000828152600b602090815260408083206001600160a01b038516845290915290205460ff1615610d595760405162461bcd60e51b815260206004820152601d60248201527f43616e206f6e6c79206772616e7420746f206e6f6e20686f6c646572730000006044820152606401610aa8565b610d63828261271a565b5050565b336001600160a01b03821614610dbc5760405162461bcd60e51b815260206004820152601a60248201527921b0b71037b7363c903932b737bab731b2903337b91039b2b63360311b6044820152606401610aa8565b610d63828261272e565b306001600160a01b037f0000000000000000000000000000000000000000000000000000000000000000161415610e0f5760405162461bcd60e51b8152600401610aa89061511b565b7f00000000000000000000000000000000000000000000000000000000000000006001600160a01b0316610e41612785565b6001600160a01b031614610e675760405162461bcd60e51b8152600401610aa890615155565b610e70816127a1565b60408051600080825260208201909252610aba918391906127d7565b600a54610100900460ff1615808015610eac5750600a54600160ff909116105b80610ecd5750610ebb30612942565b158015610ecd5750600a5460ff166001145b610ee95760405162461bcd60e51b8152600401610aa89061518f565b600a805460ff191660011790558015610f0c57600a805461ff0019166101001790555b8251610f1f9060009060208601906144a9565b508151610f339060019060208501906144a9565b50610f3d336123b3565b610f4860003361271a565b8015610f7c57600a805461ff001916905560405160018152600080516020615a3d8339815191529060200160405180910390a15b505050565b60608151835114610fa45760405162461bcd60e51b8152600401610aa8906151dd565b600083516001600160401b03811115610fbf57610fbf614588565b604051908082528060200260200182016040528015610fe8578160200160208202803683370190505b50905060005b845181101561108d576002600086838151811061100d5761100d6150d9565b60200260200101516001600160a01b03166001600160a01b031681526020019081526020016000206000858381518110611049576110496150d9565b6020026020010151815260200190815260200160002054828281518110611072576110726150d9565b60209081029190910101526110868161521c565b9050610fee565b509392505050565b306001600160a01b037f00000000000000000000000000000000000000000000000000000000000000001614156110de5760405162461bcd60e51b8152600401610aa89061511b565b7f00000000000000000000000000000000000000000000000000000000000000006001600160a01b0316611110612785565b6001600160a01b0316146111365760405162461bcd60e51b8152600401610aa890615155565b61113f826127a1565b610d63828260016127d7565b6000306001600160a01b037f000000000000000000000000000000000000000000000000000000000000000016146111e65760405162461bcd60e51b815260206004820152603860248201527f555550535570677261646561626c653a206d757374206e6f742062652063616c6044820152771b1959081d1a1c9bdd59da0819195b1959d85d1958d85b1b60421b6064820152608401610aa8565b50600080516020615a1d8339815191525b90565b336001600160a01b03841681148061123757506001600160a01b0380851660009081526003602090815260408083209385168352929052205460ff165b6112535760405162461bcd60e51b8152600401610aa890615237565b81518351146112965760405162461bcd60e51b815260206004820152600f60248201526e098cadccee8d040dad2e6dac2e8c6d608b1b6044820152606401610aa8565b60005b835181101561133c578281815181106112b4576112b46150d9565b602002602001015160026000876001600160a01b03166001600160a01b0316815260200190815260200160002060008684815181106112f5576112f56150d9565b6020026020010151815260200190815260200160002054101561132a5760405162461bcd60e51b8152600401610aa890615262565b611335600182615293565b9050611299565b50610bef848484612951565b6113606000805160206159fd8339815191523361158a565b80611383575061136e61148c565b6001600160a01b0316336001600160a01b0316145b61139f5760405162461bcd60e51b8152600401610aa8906152ab565b6113e386868080601f01602080910402602001604051908101604052809392919081815260200183838082843760009201919091525088925086915085905061202a565b6114235760405162461bcd60e51b8152602060048201526011602482015270159bdd58da195c881b9bdd081d985b1a59607a1b6044820152606401610aa8565b61143f8385604051806020016040528060008152506001611caf565b60008686604051602001611454929190615304565b60408051601f198184030181529181528151602092830120600090815260119092529020805460ff1916600117905550505050505050565b6006546001600160a01b031690565b6000828152600d602052604081205481805b82811015611581576000868152600d602090815260408083208484526001019091529020546001600160a01b03161561152a5784821415611518576000868152600d602090815260408083209383526001909301905220546001600160a01b03169250610902915050565b611523600183615293565b915061156f565b61153586600061158a565b801561155c57506000868152600d6020908152604080832083805260020190915290205481145b1561156f5761156c600183615293565b91505b61157a600182615293565b90506114ad565b50505092915050565b6000918252600b602090815260408084206001600160a01b0393909316845291905290205460ff1690565b6115bd612390565b6115d95760405162461bcd60e51b8152600401610aa8906150b1565b610aba81612ad3565b6115fa6000805160206159fd8339815191523361158a565b8061161d575061160861148c565b6001600160a01b0316336001600160a01b0316145b6116395760405162461bcd60e51b8152600401610aa8906152ab565b60009182526012602052604090912055565b600082511161166c5760405162461bcd60e51b8152600401610aa890615314565b81518351146116b05760405162461bcd60e51b815260206004820152601060248201526f2632b733ba341036b4b9b6b0ba31b41760811b6044820152606401610aa8565b60006116bb600e5490565b9050806000805b8651811015611797576000198782815181106116e0576116e06150d9565b6020026020010151141561174d5783878281518110611701576117016150d9565b602090810291909101810191909152600085815260109091526040902080546001600160a01b03191633179055611739600185615293565b9350611746600183615293565b9150611785565b83878281518110611760576117606150d9565b6020026020010151106117855760405162461bcd60e51b8152600401610aa890615342565b611790600182615293565b90506116c2565b5080156117ac576117a9828286612bb5565b50505b82600e819055506117ce87878760405180602001604052806000815250612c22565b50505050505050565b600180546109159061504d565b6000808460c00135116118095760405162461bcd60e51b8152600401610aa890615314565b600080611815600e5490565b9050600019866080013514156118805790508061183560208701876147a7565b600083815260106020526040812080546001600160a01b0319166001600160a01b039390931692909217909155600e805460019290611875908490615293565b909155506118ab9050565b808660800135106118a35760405162461bcd60e51b8152600401610aa890615342565b856080013591505b6118b6868686612d6b565b925060006118c760208801886147a7565b90506118fd6118dc6080890160608a016147a7565b60c08901356118f36101208b016101008c016147a7565b8a60e00135612efe565b60001987608001351415611956576119568361191c60a08a018a615366565b8080601f0160208091040260200160405190810160405280939291908181526020018383808284376000920191909152506124da92505050565b61197581848960c0013560405180602001604052806000815250612f90565b82816001600160a01b0316856001600160a01b03167f0b35afaf155daeef41cc46df86f058df2855c57d30ab134647a6b587e7cc8c398a6040516119b9919061543e565b60405180910390a45050509392505050565b6119e36000805160206159fd8339815191523361158a565b80611a0657506119f161148c565b6001600160a01b0316336001600160a01b0316145b611a225760405162461bcd60e51b8152600401610aa8906152ab565b600080611a2e600e5490565b90508091506001600e6000828254611a469190615293565b9091555050600081815260106020526040902080546001600160a01b0319166001600160a01b038616179055611a7c82846124da565b60405182907f5871761b381266e7e47309f0821d5b396364ebb6371d878871cac5393cb93ea890600090a250505050565b336001600160a01b038316811415611af85760405162461bcd60e51b815260206004820152600e60248201526d20a8282927ab24a723afa9a2a62360911b6044820152606401610aa8565b6001600160a01b03818116600081815260036020908152604080832094881680845294825291829020805460ff191687151590811790915591519182527f17307eab39ab6107e8899845ad3d59bd9653f200f220920489ca2b5937696c31910160405180910390a3505050565b6000828152600b6020908152604080832083805290915281205460ff16611bb257506000828152600b602090815260408083206001600160a01b038516845290915290205460ff16610902565b50600192915050565b6060816001600160401b03811115611bd557611bd5614588565b604051908082528060200260200182016040528015611c0857816020015b6060815260200190600190039081611bf35790505b50905060005b82811015611ca857611c7830858584818110611c2c57611c2c6150d9565b9050602002810190611c3e9190615366565b8080601f01602080910402602001604051908101604052809392919081815260200183838082843760009201919091525061305792505050565b828281518110611c8a57611c8a6150d9565b60200260200101819052508080611ca09061521c565b915050611c0e565b5092915050565b600080611cbb600e5490565b9050600019851415611d0f578091506001600e6000828254611cdd9190615293565b9091555050600081815260106020526040902080546001600160a01b03191633179055611d0a81856124da565b611d32565b808510611d2e5760405162461bcd60e51b8152600401610aa890615342565b8491505b611d4d86838560405180602001604052806000815250612f90565b505050505050565b600080611d63858585613083565b61016086013560009081526009602052604090205490915060ff16158015611d8f5750611d8f816130df565b9150935093915050565b6000818152600d6020526040812054815b81811015611dfd576000848152600d602090815260408083208484526001019091529020546001600160a01b031615611deb57611de8600184615293565b92505b611df6600182615293565b9050611daa565b50611e0983600061158a565b15611e1c57611e19600183615293565b91505b50919050565b6000828152600c6020526040902054610dbc903361269a565b600580546109159061504d565b6001600160a01b038516331480611e8257506001600160a01b038516600090815260036020908152604080832033845290915290205460ff165b611e9e5760405162461bcd60e51b8152600401610aa8906150ef565b610cc68585858585613104565b336001600160a01b038416811480611ee857506001600160a01b0380851660009081526003602090815260408083209385168352929052205460ff165b611f045760405162461bcd60e51b8152600401610aa890615237565b6001600160a01b0384166000908152600260209081526040808320868452909152902054821115611f475760405162461bcd60e51b8152600401610aa890615262565b610bef848484613218565b6006546001600160a01b03163314611f7c5760405162461bcd60e51b8152600401610aa8906150b1565b600a548190610100900460ff16158015611f9d5750600a5460ff8083169116105b611fb95760405162461bcd60e51b8152600401610aa89061518f565b600a805461ffff191660ff8316176101001790558351611fe09060009060208701906144a9565b508251611ff49060019060208601906144a9565b50600a805461ff001916905560405160ff82168152600080516020615a3d8339815191529060200160405180910390a150505050565b6000838152601060205260408120546001600160a01b031661204e575060006108ae565b6000856040516020016120619190615549565b60408051601f1981840301815291815281516020928301206000818152601190935291205490915060ff161561209b5760009150506108ae565b60005b838110156120dc576120c8828686848181106120bc576120bc6150d9565b9050602002013561330a565b9150806120d48161521c565b91505061209e565b50600085815260126020526040902054149050949350505050565b6060600061210460075490565b90506000600780548060200260200160405190810160405280929190818152602001828054801561215457602002820191906000526020600020905b815481526020019060010190808311612140575b5050505050905060005b8281101561225857818181518110612178576121786150d9565b6020026020010151851015612246576008600083838151811061219d5761219d6150d9565b6020026020010151815260200190815260200160002080546121be9061504d565b80601f01602080910402602001604051908101604052809291908181526020018280546121ea9061504d565b80156122375780601f1061220c57610100808354040283529160200191612237565b820191906000526020600020905b81548152906001019060200180831161221a57829003601f168201915b50505050509350505050919050565b612251600182615293565b905061215e565b5060405162461bcd60e51b815260206004820152600f60248201526e125b9d985b1a59081d1bdad95b9259608a1b6044820152606401610aa8565b6060816122b75750506040805180820190915260018152600360fc1b602082015290565b8160005b81156122e157806122cb8161521c565b91506122da9050600a8361557b565b91506122bb565b6000816001600160401b038111156122fb576122fb614588565b6040519080825280601f01601f191660200182016040528015612325576020820181803683370190505b5090505b84156108ae5761233a60018361558f565b9150612347600a866155a6565b612352906030615293565b60f81b818381518110612367576123676150d9565b60200101906001600160f81b031916908160001a905350612389600a8661557b565b9450612329565b600061239a61148c565b6001600160a01b0316336001600160a01b031614905090565b600680546001600160a01b038381166001600160a01b0319831681179093556040519116919082907f8292fce18fa69edf4db7b94ea2e58241df0ae57f97e0a6c9b29067028bf92d7690600090a35050565b8151815160009184918491111561241b57600080fd5b6000805b8351835161242d919061558f565b81116124d057600160005b85518110156124ac57858181518110612453576124536150d9565b01602001516001600160f81b0319168561246d8386615293565b8151811061247d5761247d6150d9565b01602001516001600160f81b0319161461249a57600091506124ac565b806124a48161521c565b915050612438565b5080156124bd5760019250506124d0565b50806124c88161521c565b91505061241f565b5095945050505050565b60008281526004602090815260409091208251610f7c928401906144a9565b815183511461251a5760405162461bcd60e51b8152600401610aa8906151dd565b6001600160a01b0384166125405760405162461bcd60e51b8152600401610aa8906155ba565b3361254f818787878787613339565b60005b845181101561264657600085828151811061256f5761256f6150d9565b60200260200101519050600085838151811061258d5761258d6150d9565b6020908102919091018101516001600160a01b038b1660009081526002835260408082208683529093529190912054909150818110156125df5760405162461bcd60e51b8152600401610aa8906155e0565b6001600160a01b03808b16600090815260026020818152604080842088855282528084208787039055938d1683529081528282208683529052908120805484929061262b908490615293565b925050819055505050508061263f9061521c565b9050612552565b50846001600160a01b0316866001600160a01b0316826001600160a01b031660008051602061599d833981519152878760405161268492919061560a565b60405180910390a4611d4d818787878787613445565b6000828152600b602090815260408083206001600160a01b038516845290915290205460ff16610d63576126d8816001600160a01b03166014613577565b6126e3836020613577565b6040516020016126f4929190615638565b60408051601f198184030181529082905262461bcd60e51b8252610aa89160040161477b565b6127248282613712565b610d63828261376d565b61273882826137da565b6000828152600d602090815260408083206001600160a01b03851680855260028201808552838620805487526001909301855292852080546001600160a01b031916905584529152555050565b600080516020615a1d833981519152546001600160a01b031690565b6127a961148c565b6001600160a01b0316336001600160a01b031614806127ce57506127ce60003361158a565b610aba57600080fd5b7f4910fdfa16fed3260ed0e7147f7cc6da11a60208b5b9406d12a635614ffd91435460ff161561280a57610f7c8361383c565b826001600160a01b03166352d1902d6040518163ffffffff1660e01b8152600401602060405180830381865afa925050508015612864575060408051601f3d908101601f19168201909252612861918101906156a5565b60015b6128c75760405162461bcd60e51b815260206004820152602e60248201527f45524331393637557067726164653a206e657720696d706c656d656e7461746960448201526d6f6e206973206e6f74205555505360901b6064820152608401610aa8565b600080516020615a1d83398151915281146129365760405162461bcd60e51b815260206004820152602960248201527f45524331393637557067726164653a20756e737570706f727465642070726f786044820152681a58589b195555525160ba1b6064820152608401610aa8565b50610f7c8383836138d6565b6001600160a01b03163b151590565b6001600160a01b0383166129775760405162461bcd60e51b8152600401610aa8906156be565b80518251146129985760405162461bcd60e51b8152600401610aa8906151dd565b60003390506129bb81856000868660405180602001604052806000815250613339565b60005b8351811015612a865760008482815181106129db576129db6150d9565b6020026020010151905060008483815181106129f9576129f96150d9565b6020908102919091018101516001600160a01b0389166000908152600283526040808220868352909352919091205490915081811015612a4b5760405162461bcd60e51b8152600401610aa8906155e0565b6001600160a01b0388166000908152600260209081526040808320958352949052929092209103905580612a7e8161521c565b9150506129be565b5060006001600160a01b0316846001600160a01b0316826001600160a01b031660008051602061599d8339815191528686604051612ac592919061560a565b60405180910390a450505050565b600060058054612ae29061504d565b80601f0160208091040260200160405190810160405280929190818152602001828054612b0e9061504d565b8015612b5b5780601f10612b3057610100808354040283529160200191612b5b565b820191906000526020600020905b815481529060010190602001808311612b3e57829003601f168201915b50508551939450612b77936005935060208701925090506144a9565b507fc9c7c3fe08b88b4df9d4d47ef47d2c43d55c025a0ba88ca442580ed9e7348a168183604051612ba99291906156e6565b60405180910390a15050565b600080612bc28486615293565b60078054600181019091557fa66cc928b5edb82af9bd49922954155ab7b0942694bea4ce44661d9a8736c6880181905560008181526008602090815260409091208551929450849350612c199290918601906144a9565b50935093915050565b6001600160a01b038416612c485760405162461bcd60e51b8152600401610aa8906155ba565b8151835114612c695760405162461bcd60e51b8152600401610aa8906151dd565b33612c7981600087878787613339565b60005b8451811015612d1557838181518110612c9757612c976150d9565b602002602001015160026000886001600160a01b03166001600160a01b031681526020019081526020016000206000878481518110612cd857612cd86150d9565b602002602001015181526020019081526020016000206000828254612cfd9190615293565b90915550819050612d0d8161521c565b915050612c7c565b50846001600160a01b031660006001600160a01b0316826001600160a01b031660008051602061599d8339815191528787604051612d5492919061560a565b60405180910390a4610cc681600087878787613445565b600080612d79858585611d55565b9250905080612dbc5760405162461bcd60e51b815260206004820152600f60248201526e125b9d985b1a59081c995c5d595cdd608a1b6044820152606401610aa8565b42612dcf6101408701610120880161570b565b6001600160801b031611158015612e005750612df36101608601610140870161570b565b6001600160801b03164211155b612e3e5760405162461bcd60e51b815260206004820152600f60248201526e14995c5d595cdd08195e1c1a5c9959608a1b6044820152606401610aa8565b6000612e4d60208701876147a7565b6001600160a01b03161415612e9a5760405162461bcd60e51b81526020600482015260136024820152721c9958da5c1a595b9d081d5b9919599a5b9959606a1b6044820152606401610aa8565b60008560c0013511612ed65760405162461bcd60e51b8152602060048201526005602482015264302071747960d81b6044820152606401610aa8565b50610160909301356000908152600960205260409020805460ff191660011790555090919050565b80612f0857610bef565b6000612f148285615726565b90506001600160a01b03831673eeeeeeeeeeeeeeeeeeeeeeeeeeeeeeeeeeeeeeee1415612f8357803414612f835760405162461bcd60e51b815260206004820152601660248201527526bab9ba1039b2b732103a37ba30b610383934b1b29760511b6044820152606401610aa8565b84611d4d843383856138fb565b6001600160a01b038416612fb65760405162461bcd60e51b8152600401610aa8906155ba565b33612fd681600087612fc788613945565b612fd088613945565b87613339565b6001600160a01b038516600090815260026020908152604080832087845290915281208054859290613009908490615293565b909155505060408051858152602081018590526001600160a01b0380881692600092918516916000805160206159bd833981519152910160405180910390a4610cc681600087878787613990565b606061307c8383604051806060016040528060278152602001615a5d60279139613a4b565b9392505050565b60006108ae83838080601f0160208091040260200160405190810160405280939291908181526020018383808284376000920191909152506130d992506130cd9150889050613b26565b80519060200120613c1c565b90613c6a565b60006130e961148c565b6001600160a01b0316826001600160a01b0316149050919050565b6001600160a01b03841661312a5760405162461bcd60e51b8152600401610aa8906155ba565b3361313a818787612fc788613945565b6001600160a01b03861660009081526002602090815260408083208784529091529020548381101561317e5760405162461bcd60e51b8152600401610aa8906155e0565b6001600160a01b0380881660009081526002602081815260408084208a855282528084208987039055938a168352908152828220888352905290812080548692906131ca908490615293565b909155505060408051868152602081018690526001600160a01b03808916928a821692918616916000805160206159bd833981519152910160405180910390a46117ce828888888888613990565b6001600160a01b03831661323e5760405162461bcd60e51b8152600401610aa8906156be565b3361326d8185600061324f87613945565b61325887613945565b60405180602001604052806000815250613339565b6001600160a01b0384166000908152600260209081526040808320868452909152902054828110156132b15760405162461bcd60e51b8152600401610aa8906155e0565b6001600160a01b03858116600081815260026020908152604080832089845282528083208887039055805189815291820188905291938616916000805160206159bd833981519152910160405180910390a45050505050565b600081831061332657600082815260208490526040902061307c565b600083815260208390526040902061307c565b6001600160a01b0385166133c05760005b83518110156133be57828181518110613365576133656150d9565b6020026020010151600f6000868481518110613383576133836150d9565b6020026020010151815260200190815260200160002060008282546133a89190615293565b909155506133b790508161521c565b905061334a565b505b6001600160a01b038416611d4d5760005b83518110156117ce578281815181106133ec576133ec6150d9565b6020026020010151600f600086848151811061340a5761340a6150d9565b60200260200101518152602001908152602001600020600082825461342f919061558f565b9091555061343e90508161521c565b90506133d1565b6001600160a01b0384163b15611d4d5760405163bc197c8160e01b81526001600160a01b0385169063bc197c81906134899089908990889088908890600401615745565b6020604051808303816000875af19250505080156134c4575060408051601f3d908101601f191682019092526134c1918101906157a3565b60015b613547576134d06157c0565b806308c379a0141561350a57506134e56157db565b806134f0575061350c565b8060405162461bcd60e51b8152600401610aa8919061477b565b505b60405162461bcd60e51b815260206004820152601060248201526f10a2a92198989a9aa922a1a2a4ab22a960811b6044820152606401610aa8565b6001600160e01b0319811663bc197c8160e01b146117ce5760405162461bcd60e51b8152600401610aa890615864565b60606000613586836002615726565b613591906002615293565b6001600160401b038111156135a8576135a8614588565b6040519080825280601f01601f1916602001820160405280156135d2576020820181803683370190505b509050600360fc1b816000815181106135ed576135ed6150d9565b60200101906001600160f81b031916908160001a905350600f60fb1b8160018151811061361c5761361c6150d9565b60200101906001600160f81b031916908160001a9053506000613640846002615726565b61364b906001615293565b90505b60018111156136c3576f181899199a1a9b1b9c1cb0b131b232b360811b85600f166010811061367f5761367f6150d9565b1a60f81b828281518110613695576136956150d9565b60200101906001600160f81b031916908160001a90535060049490941c936136bc8161588d565b905061364e565b50831561307c5760405162461bcd60e51b815260206004820181905260248201527f537472696e67733a20686578206c656e67746820696e73756666696369656e746044820152606401610aa8565b6000828152600b602090815260408083206001600160a01b0385168085529252808320805460ff1916600117905551339285917f2f8788117e7eff1d82e926ec794901d17c78024a50270940304540a733656f0d9190a45050565b6000828152600d602052604081208054916001919061378c8385615293565b90915550506000928352600d6020908152604080852083865260018101835281862080546001600160a01b039096166001600160a01b03199096168617905593855260029093019052912055565b6137e4828261269a565b6000828152600b602090815260408083206001600160a01b0385168085529252808320805460ff1916905551339285917ff6391f5c32d9c69d2a47ea670b442974b53935d1edc7fd64eb21e047a839171b9190a45050565b61384581612942565b6138a75760405162461bcd60e51b815260206004820152602d60248201527f455243313936373a206e657720696d706c656d656e746174696f6e206973206e60448201526c1bdd08184818dbdb9d1c9858dd609a1b6064820152608401610aa8565b600080516020615a1d83398151915280546001600160a01b0319166001600160a01b0392909216919091179055565b6138df83613c86565b6000825111806138ec5750805b15610f7c57610bef8383613057565b8061390557610bef565b6001600160a01b03841673eeeeeeeeeeeeeeeeeeeeeeeeeeeeeeeeeeeeeeee1415613939576139348282613cc6565b610bef565b610bef84848484613d68565b6040805160018082528183019092526060916000919060208083019080368337019050509050828160008151811061397f5761397f6150d9565b602090810291909101015292915050565b6001600160a01b0384163b15611d4d5760405163f23a6e6160e01b81526001600160a01b0385169063f23a6e61906139d490899089908890889088906004016158a4565b6020604051808303816000875af1925050508015613a0f575060408051601f3d908101601f19168201909252613a0c918101906157a3565b60015b613a1b576134d06157c0565b6001600160e01b0319811663f23a6e6160e01b146117ce5760405162461bcd60e51b8152600401610aa890615864565b6060613a5684612942565b613ab15760405162461bcd60e51b815260206004820152602660248201527f416464726573733a2064656c65676174652063616c6c20746f206e6f6e2d636f6044820152651b9d1c9858dd60d21b6064820152608401610aa8565b600080856001600160a01b031685604051613acc9190615549565b600060405180830381855af49150503d8060008114613b07576040519150601f19603f3d011682016040523d82523d6000602084013e613b0c565b606091505b5091509150613b1c828286613dc1565b9695505050505050565b60607fc7a95ef88f83fa833ccfce325157b7111633b181b6a27181b86415d8d501134d613b5660208401846147a7565b613b6660408501602086016147a7565b6040850135613b7b60808701606088016147a7565b6080870135613b8d60a0890189615366565b604051613b9b929190615304565b60405190819003902060c089013560e08a0135613bc06101208c016101008d016147a7565b613bd26101408d016101208e0161570b565b613be46101608e016101408f0161570b565b8d6101600135604051602001613c069d9c9b9a999897969594939291906158de565b6040516020818303038152906040529050919050565b6000610902613c29613dfa565b8360405161190160f01b6020820152602281018390526042810182905260009060620160405160208183030381529060405280519060200120905092915050565b6000806000613c798585613f21565b9150915061108d81613f91565b613c8f8161383c565b6040516001600160a01b038216907fbc7cd75a20ee27fd9adebab32041f755214dbc6bffa90cc0225b39da2e5c2d3b90600090a250565b6000826001600160a01b03168260405160006040518083038185875af1925050503d8060008114613d13576040519150601f19603f3d011682016040523d82523d6000602084013e613d18565b606091505b5050905080610f7c5760405162461bcd60e51b815260206004820152601c60248201527b1b985d1a5d99481d1bdad95b881d1c985b9cd9995c8819985a5b195960221b6044820152606401610aa8565b816001600160a01b0316836001600160a01b03161415613d8757610bef565b6001600160a01b038316301415613dac576139346001600160a01b0385168383614147565b610bef6001600160a01b0385168484846141aa565b60608315613dd057508161307c565b825115613de05782518084602001fd5b8160405162461bcd60e51b8152600401610aa8919061477b565b6000306001600160a01b037f000000000000000000000000000000000000000000000000000000000000000016148015613e5357507f000000000000000000000000000000000000000000000000000000000000000046145b15613e7d57507f000000000000000000000000000000000000000000000000000000000000000090565b50604080517f00000000000000000000000000000000000000000000000000000000000000006020808301919091527f0000000000000000000000000000000000000000000000000000000000000000828401527f000000000000000000000000000000000000000000000000000000000000000060608301524660808301523060a0808401919091528351808403909101815260c0909201909252805191012090565b600080825160411415613f585760208301516040840151606085015160001a613f4c878285856141e2565b94509450505050613f8a565b825160401415613f825760208301516040840151613f778683836142c5565b935093505050613f8a565b506000905060025b9250929050565b6000816004811115613fa557613fa5615969565b1415613fae5750565b6001816004811115613fc257613fc2615969565b141561400b5760405162461bcd60e51b815260206004820152601860248201527745434453413a20696e76616c6964207369676e617475726560401b6044820152606401610aa8565b600281600481111561401f5761401f615969565b141561406d5760405162461bcd60e51b815260206004820152601f60248201527f45434453413a20696e76616c6964207369676e6174757265206c656e677468006044820152606401610aa8565b600381600481111561408157614081615969565b14156140da5760405162461bcd60e51b815260206004820152602260248201527f45434453413a20696e76616c6964207369676e6174757265202773272076616c604482015261756560f01b6064820152608401610aa8565b60048160048111156140ee576140ee615969565b1415610aba5760405162461bcd60e51b815260206004820152602260248201527f45434453413a20696e76616c6964207369676e6174757265202776272076616c604482015261756560f01b6064820152608401610aa8565b6040516001600160a01b038316602482015260448101829052610f7c90849063a9059cbb60e01b906064015b60408051601f198184030181529190526020810180516001600160e01b03166001600160e01b0319909316929092179091526142fe565b6040516001600160a01b0380851660248301528316604482015260648101829052610bef9085906323b872dd60e01b90608401614173565b6000806fa2a8918ca85bafe22016d0b997e4df60600160ff1b0383111561420f57506000905060036142bc565b8460ff16601b1415801561422757508460ff16601c14155b1561423857506000905060046142bc565b6040805160008082526020820180845289905260ff881692820192909252606081018690526080810185905260019060a0016020604051602081039080840390855afa15801561428c573d6000803e3d6000fd5b5050604051601f1901519150506001600160a01b0381166142b5576000600192509250506142bc565b9150600090505b94509492505050565b6000806001600160ff1b038316816142e260ff86901c601b615293565b90506142f0878288856141e2565b935093505050935093915050565b6000614353826040518060400160405280602081526020017f5361666545524332303a206c6f772d6c6576656c2063616c6c206661696c6564815250856001600160a01b03166143d09092919063ffffffff16565b805190915015610f7c5780806020019051810190614371919061597f565b610f7c5760405162461bcd60e51b815260206004820152602a60248201527f5361666545524332303a204552433230206f7065726174696f6e20646964206e6044820152691bdd081cdd58d8d9595960b21b6064820152608401610aa8565b60606108ae8484600085856143e485612942565b6144305760405162461bcd60e51b815260206004820152601d60248201527f416464726573733a2063616c6c20746f206e6f6e2d636f6e74726163740000006044820152606401610aa8565b600080866001600160a01b0316858760405161444c9190615549565b60006040518083038185875af1925050503d8060008114614489576040519150601f19603f3d011682016040523d82523d6000602084013e61448e565b606091505b509150915061449e828286613dc1565b979650505050505050565b8280546144b59061504d565b90600052602060002090601f0160209004810192826144d7576000855561451d565b82601f106144f057805160ff191683800117855561451d565b8280016001018555821561451d579182015b8281111561451d578251825591602001919060010190614502565b5061452992915061452d565b5090565b5b80821115614529576000815560010161452e565b80356001600160a01b038116811461455957600080fd5b919050565b6000806040838503121561457157600080fd5b61457a83614542565b946020939093013593505050565b634e487b7160e01b600052604160045260246000fd5b601f8201601f191681016001600160401b03811182821017156145c3576145c3614588565b6040525050565b600082601f8301126145db57600080fd5b81356001600160401b038111156145f4576145f4614588565b60405161460b601f8301601f19166020018261459e565b81815284602083860101111561462057600080fd5b816020850160208301376000918101602001919091529392505050565b60008083601f84011261464f57600080fd5b5081356001600160401b0381111561466657600080fd5b6020830191508360208260051b8501011115613f8a57600080fd5b6000806000806060858703121561469757600080fd5b84356001600160401b03808211156146ae57600080fd5b6146ba888389016145ca565b95506020870135945060408701359150808211156146d757600080fd5b506146e48782880161463d565b95989497509550505050565b6001600160e01b031981168114610aba57600080fd5b60006020828403121561471857600080fd5b813561307c816146f0565b60005b8381101561473e578181015183820152602001614726565b83811115610bef5750506000910152565b60008151808452614767816020860160208601614723565b601f01601f19169290920160200192915050565b60208152600061307c602083018461474f565b6000602082840312156147a057600080fd5b5035919050565b6000602082840312156147b957600080fd5b61307c82614542565b60008083601f8401126147d457600080fd5b5081356001600160401b038111156147eb57600080fd5b602083019150836020828501011115613f8a57600080fd5b60008060006040848603121561481857600080fd5b8335925060208401356001600160401b0381111561483557600080fd5b614841868287016147c2565b9497909650939450505050565b60006001600160401b0382111561486757614867614588565b5060051b60200190565b600082601f83011261488257600080fd5b8135602061488f8261484e565b60405161489c828261459e565b83815260059390931b85018201928281019150868411156148bc57600080fd5b8286015b848110156148d757803583529183019183016148c0565b509695505050505050565b600080600080600060a086880312156148fa57600080fd5b61490386614542565b945061491160208701614542565b935060408601356001600160401b038082111561492d57600080fd5b61493989838a01614871565b9450606088013591508082111561494f57600080fd5b61495b89838a01614871565b9350608088013591508082111561497157600080fd5b5061497e888289016145ca565b9150509295509295909350565b6000806040838503121561499e57600080fd5b823591506149ae60208401614542565b90509250929050565b600080604083850312156149ca57600080fd5b82356001600160401b03808211156149e157600080fd5b6149ed868387016145ca565b93506020850135915080821115614a0357600080fd5b50614a10858286016145ca565b9150509250929050565b60008060408385031215614a2d57600080fd5b82356001600160401b0380821115614a4457600080fd5b818501915085601f830112614a5857600080fd5b81356020614a658261484e565b604051614a72828261459e565b83815260059390931b8501820192828101915089841115614a9257600080fd5b948201945b83861015614ab757614aa886614542565b82529482019490820190614a97565b96505086013592505080821115614acd57600080fd5b50614a1085828601614871565b600081518084526020808501945080840160005b83811015614b0a57815187529582019590820190600101614aee565b509495945050505050565b60208152600061307c6020830184614ada565b60008060408385031215614b3b57600080fd5b614b4483614542565b915060208301356001600160401b03811115614b5f57600080fd5b614a10858286016145ca565b6001600160a01b03169052565b600080600060608486031215614b8d57600080fd5b614b9684614542565b925060208401356001600160401b0380821115614bb257600080fd5b614bbe87838801614871565b93506040860135915080821115614bd457600080fd5b50614be186828701614871565b9150509250925092565b60008060008060008060808789031215614c0457600080fd5b86356001600160401b0380821115614c1b57600080fd5b614c278a838b016147c2565b909850965060208901359550869150614c4260408a01614542565b94506060890135915080821115614c5857600080fd5b50614c6589828a0161463d565b979a9699509497509295939492505050565b60008060408385031215614c8a57600080fd5b50508035926020909101359150565b600060208284031215614cab57600080fd5b81356001600160401b03811115614cc157600080fd5b6108ae848285016145ca565b60008060008060808587031215614ce357600080fd5b614cec85614542565b935060208501356001600160401b0380821115614d0857600080fd5b614d1488838901614871565b94506040870135915080821115614d2a57600080fd5b614d3688838901614871565b93506060870135915080821115614d4c57600080fd5b50614d59878288016145ca565b91505092959194509250565b600080600060408486031215614d7a57600080fd5b83356001600160401b0380821115614d9157600080fd5b908501906101808288031215614da657600080fd5b90935060208501359080821115614dbc57600080fd5b50614841868287016147c2565b8015158114610aba57600080fd5b60008060408385031215614dea57600080fd5b614df383614542565b91506020830135614e0381614dc9565b809150509250929050565b60008060208385031215614e2157600080fd5b82356001600160401b03811115614e3757600080fd5b614e438582860161463d565b90969095509350505050565b6000602080830181845280855180835260408601915060408160051b870101925083870160005b82811015614ea457603f19888603018452614e9285835161474f565b94509285019290850190600101614e76565b5092979650505050505050565b60008060008060808587031215614ec757600080fd5b614ed085614542565b93506020850135925060408501356001600160401b03811115614ef257600080fd5b614efe878288016145ca565b949793965093946060013593505050565b60008060408385031215614f2257600080fd5b614f2b83614542565b91506149ae60208401614542565b600080600080600060a08688031215614f5157600080fd5b614f5a86614542565b9450614f6860208701614542565b9350604086013592506060860135915060808601356001600160401b03811115614f9157600080fd5b61497e888289016145ca565b600080600060608486031215614fb257600080fd5b614fbb84614542565b95602085013595506040909401359392505050565b600080600060608486031215614fe557600080fd5b83356001600160401b0380821115614ffc57600080fd5b615008878388016145ca565b9450602086013591508082111561501e57600080fd5b5061502b868287016145ca565b925050604084013560ff8116811461504257600080fd5b809150509250925092565b600181811c9082168061506157607f821691505b60208210811415611e1c57634e487b7160e01b600052602260045260246000fd5b60008351615094818460208801614723565b8351908301906150a8818360208801614723565b01949350505050565b6020808252600e908201526d139bdd08185d5d1a1bdc9a5e995960921b604082015260600190565b634e487b7160e01b600052603260045260246000fd5b6020808252601290820152710853d5d3915497d3d497d054141493d5915160721b604082015260600190565b6020808252602c908201526000805160206159dd83398151915260408201526b19195b1959d85d1958d85b1b60a21b606082015260800190565b6020808252602c908201526000805160206159dd83398151915260408201526b6163746976652070726f787960a01b606082015260800190565b6020808252602e908201527f496e697469616c697a61626c653a20636f6e747261637420697320616c72656160408201526d191e481a5b9a5d1a585b1a5e995960921b606082015260800190565b6020808252600f908201526e0988a9c8ea890be9a92a69a82a8869608b1b604082015260600190565b634e487b7160e01b600052601160045260246000fd5b600060001982141561523057615230615206565b5060010190565b6020808252601190820152702ab730b8383937bb32b21031b0b63632b960791b604082015260600190565b602080825260179082015276139bdd08195b9bdd59da081d1bdad95b9cc81bdddb9959604a1b604082015260600190565b600082198211156152a6576152a6615206565b500190565b60208082526039908201527f4e7573614e46543a6d696e746572734f724f776e65724f6e6c793a204f4e4c5960408201527817d3525395115494d7d3d497d3d5d3915497d0531313d5d151603a1b606082015260800190565b8183823760009101908152919050565b60208082526014908201527326b4b73a34b733903d32b937903a37b5b2b7399760611b604082015260600190565b6020808252600a90820152691a5b9d985b1a59081a5960b21b604082015260600190565b6000808335601e1984360301811261537d57600080fd5b8301803591506001600160401b0382111561539757600080fd5b602001915036819003821315613f8a57600080fd5b6000808335601e198436030181126153c357600080fd5b83016020810192503590506001600160401b038111156153e257600080fd5b803603831315613f8a57600080fd5b81835281816020850137506000828201602090810191909152601f909101601f19169091010190565b80356001600160801b038116811461455957600080fd5b6001600160801b03169052565b602081526154576020820161545284614542565b614b6b565b600061546560208401614542565b6154726040840182614b6b565b506040830135606083015261548960608401614542565b6154966080840182614b6b565b50608083013560a08301526154ae60a08401846153ac565b6101808060c08601526154c66101a0860183856153f1565b925060c086013560e0860152610100915060e0860135828601526154eb828701614542565b91506101206154fc81870184614b6b565b61550781880161541a565b92505061014061551981870184615431565b61552481880161541a565b92505061016061553681870184615431565b9590950135939094019290925250919050565b6000825161555b818460208701614723565b9190910192915050565b634e487b7160e01b600052601260045260246000fd5b60008261558a5761558a615565565b500490565b6000828210156155a1576155a1615206565b500390565b6000826155b5576155b5615565565b500690565b6020808252600c908201526b2a27afad22a927afa0a2222960a11b604082015260600190565b60208082526010908201526f125394d551919250d251539517d0905360821b604082015260600190565b60408152600061561d6040830185614ada565b828103602084015261562f8185614ada565b95945050505050565b7402832b936b4b9b9b4b7b7399d1030b1b1b7bab73a1605d1b815260008351615668816015850160208801614723565b7001034b99036b4b9b9b4b733903937b6329607d1b6015918401918201528351615699816026840160208801614723565b01602601949350505050565b6000602082840312156156b757600080fd5b5051919050565b6020808252600e908201526d232927a6afad22a927afa0a2222960911b604082015260600190565b6040815260006156f9604083018561474f565b828103602084015261562f818561474f565b60006020828403121561571d57600080fd5b61307c8261541a565b600081600019048311821515161561574057615740615206565b500290565b6001600160a01b0386811682528516602082015260a06040820181905260009061577190830186614ada565b82810360608401526157838186614ada565b90508281036080840152615797818561474f565b98975050505050505050565b6000602082840312156157b557600080fd5b815161307c816146f0565b600060033d11156111f75760046000803e5060005160e01c90565b600060443d10156157e95790565b6040516003193d81016004833e81513d6001600160401b03808311602484018310171561581857505050505090565b82850191508151818111156158305750505050505090565b843d870101602082850101111561584a5750505050505090565b6158596020828601018761459e565b509095945050505050565b6020808252600f908201526e1513d2d15394d7d491529150d51151608a1b604082015260600190565b60008161589c5761589c615206565b506000190190565b6001600160a01b03868116825285166020820152604081018490526060810183905260a06080820181905260009061449e9083018461474f565b8d81526001600160a01b038d811660208301528c81166040830152606082018c90528a8116608083015260a082018a905260c0820189905260e08201889052610100820187905285166101208201526001600160801b0384166101408201526101a08101615950610160830185615431565b826101808301529e9d5050505050505050505050505050565b634e487b7160e01b600052602160045260246000fd5b60006020828403121561599157600080fd5b815161307c81614dc956fe4a39dc06d4c0dbc64b70af90fd698a233a518aa5d07e595d983b8c0526c8f7fbc3d58168c5ae7397731d063d5bbf3d657854427343f4c083240f7aacaa2d0f6246756e6374696f6e206d7573742062652063616c6c6564207468726f75676820be6a453fdd049461aaa0af9a3f749ab4b8f74b99e5f20df66f381f07e8a3cf5b360894a13ba1a3210667c828492db98dca3e2076cc3735a920a3ca505d382bbc7f26b83ff96e1f2b6a682f133852f6798a09c465da95921460cefb3847402498416464726573733a206c6f772d6c6576656c2064656c65676174652063616c6c206661696c6564a2646970667358221220bcd80fdf920246c7127423539ac22907df36474ff977d191cb662adc2be732e964736f6c634300080b0033",
  "linkReferences": {},
  "deployedLinkReferences": {}
}