{
    "_format": "hh-sol-artifact-1",
    "contractName": "TadPole",
    "sourceName": "contracts/TadPole.sol",
    "abi": [
        {
            "inputs": [
                {
                    "internalType": "string",
                    "name": "_name",
                    "type": "string"
                },
                {
                    "internalType": "string",
                    "name": "_symbol",
                    "type": "string"
                },
                {
                    "internalType": "address",
                    "name": "_proxyRegistryAddress",
                    "type": "address"
                },
                {
                    "internalType": "string",
                    "name": "_baseUri",
                    "type": "string"
                }
            ],
            "stateMutability": "nonpayable",
            "type": "constructor"
        },
        {
            "anonymous": false,
            "inputs": [
                {
                    "indexed": true,
                    "internalType": "address",
                    "name": "account",
                    "type": "address"
                },
                {
                    "indexed": true,
                    "internalType": "address",
                    "name": "operator",
                    "type": "address"
                },
                {
                    "indexed": false,
                    "internalType": "bool",
                    "name": "approved",
                    "type": "bool"
                }
            ],
            "name": "ApprovalForAll",
            "type": "event"
        },
        {
            "anonymous": false,
            "inputs": [
                {
                    "indexed": false,
                    "internalType": "address",
                    "name": "userAddress",
                    "type": "address"
                },
                {
                    "indexed": false,
                    "internalType": "address payable",
                    "name": "relayerAddress",
                    "type": "address"
                },
                {
                    "indexed": false,
                    "internalType": "bytes",
                    "name": "functionSignature",
                    "type": "bytes"
                }
            ],
            "name": "MetaTransactionExecuted",
            "type": "event"
        },
        {
            "anonymous": false,
            "inputs": [
                {
                    "indexed": true,
                    "internalType": "address",
                    "name": "previousOwner",
                    "type": "address"
                },
                {
                    "indexed": true,
                    "internalType": "address",
                    "name": "newOwner",
                    "type": "address"
                }
            ],
            "name": "OwnershipTransferred",
            "type": "event"
        },
        {
            "anonymous": false,
            "inputs": [
                {
                    "indexed": true,
                    "internalType": "address",
                    "name": "operator",
                    "type": "address"
                },
                {
                    "indexed": true,
                    "internalType": "address",
                    "name": "from",
                    "type": "address"
                },
                {
                    "indexed": true,
                    "internalType": "address",
                    "name": "to",
                    "type": "address"
                },
                {
                    "indexed": false,
                    "internalType": "uint256[]",
                    "name": "ids",
                    "type": "uint256[]"
                },
                {
                    "indexed": false,
                    "internalType": "uint256[]",
                    "name": "values",
                    "type": "uint256[]"
                }
            ],
            "name": "TransferBatch",
            "type": "event"
        },
        {
            "anonymous": false,
            "inputs": [
                {
                    "indexed": true,
                    "internalType": "address",
                    "name": "operator",
                    "type": "address"
                },
                {
                    "indexed": true,
                    "internalType": "address",
                    "name": "from",
                    "type": "address"
                },
                {
                    "indexed": true,
                    "internalType": "address",
                    "name": "to",
                    "type": "address"
                },
                {
                    "indexed": false,
                    "internalType": "uint256",
                    "name": "id",
                    "type": "uint256"
                },
                {
                    "indexed": false,
                    "internalType": "uint256",
                    "name": "value",
                    "type": "uint256"
                }
            ],
            "name": "TransferSingle",
            "type": "event"
        },
        {
            "anonymous": false,
            "inputs": [
                {
                    "indexed": false,
                    "internalType": "string",
                    "name": "value",
                    "type": "string"
                },
                {
                    "indexed": true,
                    "internalType": "uint256",
                    "name": "id",
                    "type": "uint256"
                }
            ],
            "name": "URI",
            "type": "event"
        },
        {
            "inputs": [],
            "name": "ERC712_VERSION",
            "outputs": [
                {
                    "internalType": "string",
                    "name": "",
                    "type": "string"
                }
            ],
            "stateMutability": "view",
            "type": "function"
        },
        {
            "inputs": [
                {
                    "internalType": "address",
                    "name": "account",
                    "type": "address"
                },
                {
                    "internalType": "uint256",
                    "name": "id",
                    "type": "uint256"
                }
            ],
            "name": "balanceOf",
            "outputs": [
                {
                    "internalType": "uint256",
                    "name": "",
                    "type": "uint256"
                }
            ],
            "stateMutability": "view",
            "type": "function"
        },
        {
            "inputs": [
                {
                    "internalType": "address[]",
                    "name": "accounts",
                    "type": "address[]"
                },
                {
                    "internalType": "uint256[]",
                    "name": "ids",
                    "type": "uint256[]"
                }
            ],
            "name": "balanceOfBatch",
            "outputs": [
                {
                    "internalType": "uint256[]",
                    "name": "",
                    "type": "uint256[]"
                }
            ],
            "stateMutability": "view",
            "type": "function"
        },
        {
            "inputs": [
                {
                    "internalType": "address",
                    "name": "_to",
                    "type": "address"
                },
                {
                    "internalType": "uint256[]",
                    "name": "_ids",
                    "type": "uint256[]"
                },
                {
                    "internalType": "uint256[]",
                    "name": "_quantities",
                    "type": "uint256[]"
                },
                {
                    "internalType": "bytes",
                    "name": "_data",
                    "type": "bytes"
                }
            ],
            "name": "batchMint",
            "outputs": [],
            "stateMutability": "nonpayable",
            "type": "function"
        },
        {
            "inputs": [
                {
                    "internalType": "uint256",
                    "name": "_initialSupply",
                    "type": "uint256"
                },
                {
                    "internalType": "string",
                    "name": "_uri",
                    "type": "string"
                },
                {
                    "internalType": "bytes",
                    "name": "_data",
                    "type": "bytes"
                },
                {
                    "internalType": "uint256",
                    "name": "_timestamp",
                    "type": "uint256"
                },
                {
                    "internalType": "uint8",
                    "name": "v",
                    "type": "uint8"
                },
                {
                    "internalType": "bytes32",
                    "name": "r",
                    "type": "bytes32"
                },
                {
                    "internalType": "bytes32",
                    "name": "s",
                    "type": "bytes32"
                }
            ],
            "name": "create",
            "outputs": [
                {
                    "internalType": "uint256",
                    "name": "",
                    "type": "uint256"
                }
            ],
            "stateMutability": "nonpayable",
            "type": "function"
        },
        {
            "inputs": [
                {
                    "internalType": "address",
                    "name": "_initialOwner",
                    "type": "address"
                },
                {
                    "internalType": "uint256",
                    "name": "_initialSupply",
                    "type": "uint256"
                },
                {
                    "internalType": "string",
                    "name": "_uri",
                    "type": "string"
                },
                {
                    "internalType": "bytes",
                    "name": "_data",
                    "type": "bytes"
                }
            ],
            "name": "create",
            "outputs": [
                {
                    "internalType": "uint256",
                    "name": "",
                    "type": "uint256"
                }
            ],
            "stateMutability": "nonpayable",
            "type": "function"
        },
        {
            "inputs": [
                {
                    "internalType": "uint256",
                    "name": "",
                    "type": "uint256"
                }
            ],
            "name": "creators",
            "outputs": [
                {
                    "internalType": "address",
                    "name": "",
                    "type": "address"
                }
            ],
            "stateMutability": "view",
            "type": "function"
        },
        {
            "inputs": [
                {
                    "internalType": "address",
                    "name": "userAddress",
                    "type": "address"
                },
                {
                    "internalType": "bytes",
                    "name": "functionSignature",
                    "type": "bytes"
                },
                {
                    "internalType": "bytes32",
                    "name": "sigR",
                    "type": "bytes32"
                },
                {
                    "internalType": "bytes32",
                    "name": "sigS",
                    "type": "bytes32"
                },
                {
                    "internalType": "uint8",
                    "name": "sigV",
                    "type": "uint8"
                }
            ],
            "name": "executeMetaTransaction",
            "outputs": [
                {
                    "internalType": "bytes",
                    "name": "",
                    "type": "bytes"
                }
            ],
            "stateMutability": "payable",
            "type": "function"
        },
        {
            "inputs": [],
            "name": "getChainId",
            "outputs": [
                {
                    "internalType": "uint256",
                    "name": "",
                    "type": "uint256"
                }
            ],
            "stateMutability": "view",
            "type": "function"
        },
        {
            "inputs": [],
            "name": "getDomainSeperator",
            "outputs": [
                {
                    "internalType": "bytes32",
                    "name": "",
                    "type": "bytes32"
                }
            ],
            "stateMutability": "view",
            "type": "function"
        },
        {
            "inputs": [
                {
                    "internalType": "address",
                    "name": "user",
                    "type": "address"
                }
            ],
            "name": "getNonce",
            "outputs": [
                {
                    "internalType": "uint256",
                    "name": "nonce",
                    "type": "uint256"
                }
            ],
            "stateMutability": "view",
            "type": "function"
        },
        {
            "inputs": [],
            "name": "getTimestamp",
            "outputs": [
                {
                    "internalType": "uint256",
                    "name": "",
                    "type": "uint256"
                }
            ],
            "stateMutability": "view",
            "type": "function"
        },
        {
            "inputs": [
                {
                    "internalType": "address",
                    "name": "_owner",
                    "type": "address"
                },
                {
                    "internalType": "address",
                    "name": "_operator",
                    "type": "address"
                }
            ],
            "name": "isApprovedForAll",
            "outputs": [
                {
                    "internalType": "bool",
                    "name": "isOperator",
                    "type": "bool"
                }
            ],
            "stateMutability": "view",
            "type": "function"
        },
        {
            "inputs": [
                {
                    "internalType": "address",
                    "name": "_to",
                    "type": "address"
                },
                {
                    "internalType": "uint256",
                    "name": "_id",
                    "type": "uint256"
                },
                {
                    "internalType": "uint256",
                    "name": "_quantity",
                    "type": "uint256"
                },
                {
                    "internalType": "bytes",
                    "name": "_data",
                    "type": "bytes"
                }
            ],
            "name": "mint",
            "outputs": [],
            "stateMutability": "nonpayable",
            "type": "function"
        },
        {
            "inputs": [],
            "name": "name",
            "outputs": [
                {
                    "internalType": "string",
                    "name": "",
                    "type": "string"
                }
            ],
            "stateMutability": "view",
            "type": "function"
        },
        {
            "inputs": [],
            "name": "owner",
            "outputs": [
                {
                    "internalType": "address",
                    "name": "",
                    "type": "address"
                }
            ],
            "stateMutability": "view",
            "type": "function"
        },
        {
            "inputs": [],
            "name": "renounceOwnership",
            "outputs": [],
            "stateMutability": "nonpayable",
            "type": "function"
        },
        {
            "inputs": [
                {
                    "internalType": "address",
                    "name": "from",
                    "type": "address"
                },
                {
                    "internalType": "address",
                    "name": "to",
                    "type": "address"
                },
                {
                    "internalType": "uint256[]",
                    "name": "ids",
                    "type": "uint256[]"
                },
                {
                    "internalType": "uint256[]",
                    "name": "amounts",
                    "type": "uint256[]"
                },
                {
                    "internalType": "bytes",
                    "name": "data",
                    "type": "bytes"
                }
            ],
            "name": "safeBatchTransferFrom",
            "outputs": [],
            "stateMutability": "nonpayable",
            "type": "function"
        },
        {
            "inputs": [
                {
                    "internalType": "address",
                    "name": "from",
                    "type": "address"
                },
                {
                    "internalType": "address",
                    "name": "to",
                    "type": "address"
                },
                {
                    "internalType": "uint256",
                    "name": "id",
                    "type": "uint256"
                },
                {
                    "internalType": "uint256",
                    "name": "amount",
                    "type": "uint256"
                },
                {
                    "internalType": "bytes",
                    "name": "data",
                    "type": "bytes"
                }
            ],
            "name": "safeTransferFrom",
            "outputs": [],
            "stateMutability": "nonpayable",
            "type": "function"
        },
        {
            "inputs": [
                {
                    "internalType": "address",
                    "name": "operator",
                    "type": "address"
                },
                {
                    "internalType": "bool",
                    "name": "approved",
                    "type": "bool"
                }
            ],
            "name": "setApprovalForAll",
            "outputs": [],
            "stateMutability": "nonpayable",
            "type": "function"
        },
        {
            "inputs": [
                {
                    "internalType": "string",
                    "name": "_newBaseMetadataURI",
                    "type": "string"
                }
            ],
            "name": "setBaseMetadataURI",
            "outputs": [],
            "stateMutability": "nonpayable",
            "type": "function"
        },
        {
            "inputs": [
                {
                    "internalType": "address",
                    "name": "_to",
                    "type": "address"
                },
                {
                    "internalType": "uint256[]",
                    "name": "_ids",
                    "type": "uint256[]"
                }
            ],
            "name": "setCreator",
            "outputs": [],
            "stateMutability": "nonpayable",
            "type": "function"
        },
        {
            "inputs": [
                {
                    "internalType": "address",
                    "name": "_proxyRegistryAddress",
                    "type": "address"
                }
            ],
            "name": "setProxyRegistryAddress",
            "outputs": [],
            "stateMutability": "nonpayable",
            "type": "function"
        },
        {
            "inputs": [
                {
                    "internalType": "bytes4",
                    "name": "interfaceId",
                    "type": "bytes4"
                }
            ],
            "name": "supportsInterface",
            "outputs": [
                {
                    "internalType": "bool",
                    "name": "",
                    "type": "bool"
                }
            ],
            "stateMutability": "view",
            "type": "function"
        },
        {
            "inputs": [],
            "name": "symbol",
            "outputs": [
                {
                    "internalType": "string",
                    "name": "",
                    "type": "string"
                }
            ],
            "stateMutability": "view",
            "type": "function"
        },
        {
            "inputs": [
                {
                    "internalType": "uint256",
                    "name": "",
                    "type": "uint256"
                }
            ],
            "name": "tokenSupply",
            "outputs": [
                {
                    "internalType": "uint256",
                    "name": "",
                    "type": "uint256"
                }
            ],
            "stateMutability": "view",
            "type": "function"
        },
        {
            "inputs": [
                {
                    "internalType": "uint256",
                    "name": "_tokenId",
                    "type": "uint256"
                }
            ],
            "name": "tokenURI",
            "outputs": [
                {
                    "internalType": "string",
                    "name": "",
                    "type": "string"
                }
            ],
            "stateMutability": "view",
            "type": "function"
        },
        {
            "inputs": [
                {
                    "internalType": "uint256",
                    "name": "_id",
                    "type": "uint256"
                }
            ],
            "name": "totalSupply",
            "outputs": [
                {
                    "internalType": "uint256",
                    "name": "",
                    "type": "uint256"
                }
            ],
            "stateMutability": "view",
            "type": "function"
        },
        {
            "inputs": [
                {
                    "internalType": "address",
                    "name": "newOwner",
                    "type": "address"
                }
            ],
            "name": "transferOwnership",
            "outputs": [],
            "stateMutability": "nonpayable",
            "type": "function"
        },
        {
            "inputs": [
                {
                    "internalType": "uint256",
                    "name": "_id",
                    "type": "uint256"
                }
            ],
            "name": "uri",
            "outputs": [
                {
                    "internalType": "string",
                    "name": "",
                    "type": "string"
                }
            ],
            "stateMutability": "view",
            "type": "function"
        }
    ],
    "bytecode": "0x60806040526003805460ff60a01b1916905560006008553480156200002357600080fd5b50604051620036ff380380620036ff8339810160408190526200004691620002fc565b806200005281620000bd565b506200006762000061620000d6565b620000f3565b83516200007c90600c906020870190620001a3565b5082516200009290600d906020860190620001a3565b5050600780546001600160a01b0319166001600160a01b039290921691909117905550620003fd9050565b8051620000d2906002906020840190620001a3565b5050565b6000620000ed6200014560201b620011881760201c565b90505b90565b600380546001600160a01b038381166001600160a01b0319831681179093556040519116919082907f8be0079c531659141344cd1fd0a4f28419497f9722a3daafe3b4186f6b6457e090600090a35050565b6000333014156200019e57600080368080601f0160208091040260200160405190810160405280939291908181526020018383808284376000920191909152505050503601516001600160a01b03169150620000f09050565b503390565b828054620001b190620003aa565b90600052602060002090601f016020900481019282620001d5576000855562000220565b82601f10620001f057805160ff191683800117855562000220565b8280016001018555821562000220579182015b828111156200022057825182559160200191906001019062000203565b506200022e92915062000232565b5090565b5b808211156200022e576000815560010162000233565b600082601f8301126200025a578081fd5b81516001600160401b0380821115620002775762000277620003e7565b604051601f8301601f19908116603f01168101908282118183101715620002a257620002a2620003e7565b81604052838152602092508683858801011115620002be578485fd5b8491505b83821015620002e15785820183015181830184015290820190620002c2565b83821115620002f257848385830101525b9695505050505050565b6000806000806080858703121562000312578384fd5b84516001600160401b038082111562000329578586fd5b620003378883890162000249565b955060208701519150808211156200034d578485fd5b6200035b8883890162000249565b604088015190955091506001600160a01b03821682146200037a578384fd5b6060870151919350808211156200038f578283fd5b506200039e8782880162000249565b91505092959194509250565b600281046001821680620003bf57607f821691505b60208210811415620003e157634e487b7160e01b600052602260045260246000fd5b50919050565b634e487b7160e01b600052604160045260246000fd5b6132f2806200040d6000396000f3fe6080604052600436106101cc5760003560e01c80637e518ec8116100f7578063c87b56dd11610095578063e38e3b2411610064578063e38e3b24146104f8578063e985e9c514610518578063f242432a14610538578063f2fde38b14610558576101cc565b8063c87b56dd14610478578063cd53d08e14610498578063d26ea6c0146104b8578063d2a6b51a146104d8576101cc565b806395d89b41116100d157806395d89b4114610403578063a22cb46514610418578063b48ab8b614610438578063bd85b03914610458576101cc565b80637e518ec8146103a15780637f38819e146103c15780638da5cb5b146103e1576101cc565b806320379ee51161016f5780633408e4701161013e5780633408e4701461032a5780634e1273f41461033f578063715018a61461036c578063731133e914610381576101cc565b806320379ee5146102b35780632693ebf2146102c85780632d0335ab146102e85780632eb2c2d614610308576101cc565b80630c53c51c116101ab5780630c53c51c146102565780630e89341c146102695780630f7e597014610289578063188ec3561461029e576101cc565b8062fdd58e146101d157806301ffc9a71461020757806306fdde0314610234575b600080fd5b3480156101dd57600080fd5b506101f16101ec366004612414565b610578565b6040516101fe91906129a9565b60405180910390f35b34801561021357600080fd5b506102276102223660046125db565b6105d2565b6040516101fe919061299e565b34801561024057600080fd5b5061024961061a565b6040516101fe91906129f4565b6102496102643660046123a3565b6106a8565b34801561027557600080fd5b50610249610284366004612674565b61082a565b34801561029557600080fd5b5061024961094c565b3480156102aa57600080fd5b506101f1610969565b3480156102bf57600080fd5b506101f161096e565b3480156102d457600080fd5b506101f16102e3366004612674565b610974565b3480156102f457600080fd5b506101f161030336600461212c565b610986565b34801561031457600080fd5b50610328610323366004612180565b6109a1565b005b34801561033657600080fd5b506101f16109ff565b34801561034b57600080fd5b5061035f61035a36600461251b565b610a03565b6040516101fe9190612966565b34801561037857600080fd5b50610328610b22565b34801561038d57600080fd5b5061032861039c3660046124c7565b610b36565b3480156103ad57600080fd5b506103286103bc36600461262f565b610bac565b3480156103cd57600080fd5b506101f16103dc36600461268c565b610bc0565b3480156103ed57600080fd5b506103f6610cff565b6040516101fe9190612883565b34801561040f57600080fd5b50610249610d0e565b34801561042457600080fd5b50610328610433366004612372565b610d1b565b34801561044457600080fd5b506103286104533660046122dc565b610d31565b34801561046457600080fd5b506101f1610473366004612674565b610e51565b34801561048457600080fd5b50610249610493366004612674565b610e63565b3480156104a457600080fd5b506103f66104b3366004612674565b610e6e565b3480156104c457600080fd5b506103286104d336600461212c565b610e89565b3480156104e457600080fd5b506103286104f336600461228f565b610eb3565b34801561050457600080fd5b506101f161051336600461243f565b610f33565b34801561052457600080fd5b50610227610533366004612148565b61104e565b34801561054457600080fd5b50610328610553366004612229565b6110fa565b34801561056457600080fd5b5061032861057336600461212c565b611151565b60006001600160a01b0383166105a95760405162461bcd60e51b81526004016105a090612bed565b60405180910390fd5b506000818152602081815260408083206001600160a01b03861684529091529020545b92915050565b60006001600160e01b03198216636cdb3d1360e11b148061060357506001600160e01b031982166303a24d0760e21b145b806106125750610612826111e4565b90505b919050565b600c8054610627906130f8565b80601f0160208091040260200160405190810160405280929190818152602001828054610653906130f8565b80156106a05780601f10610675576101008083540402835291602001916106a0565b820191906000526020600020905b81548152906001019060200180831161068357829003601f168201915b505050505081565b60408051606081810183526001600160a01b038816600081815260056020908152908590205484528301529181018690526106e687828787876111fd565b6107025760405162461bcd60e51b81526004016105a090612e73565b6001600160a01b0387166000908152600560205260409020546107269060016112a3565b6001600160a01b0388166000908152600560205260409081902091909155517f5845892132946850460bff5a0083f71031bc5bf9aadcd40f1de79423eac9b10b9061077690899033908a90612897565b60405180910390a1600080306001600160a01b0316888a60405160200161079e9291906127d1565b60408051601f19818403018152908290526107b8916127b5565b6000604051808303816000865af19150503d80600081146107f5576040519150601f19603f3d011682016040523d82523d6000602084013e6107fa565b606091505b50915091508161081c5760405162461bcd60e51b81526004016105a090612bb6565b925050505b95945050505050565b6060610835826112b6565b6108515760405162461bcd60e51b81526004016105a090612dae565b6000828152600960205260408120805461086a906130f8565b80601f0160208091040260200160405190810160405280929190818152602001828054610896906130f8565b80156108e35780601f106108b8576101008083540402835291602001916108e3565b820191906000526020600020905b8154815290600101906020018083116108c657829003601f168201915b5050505050905060006108f5846112d3565b905080516000141561090957509050610615565b81511561093b578082604051602001610923929190612808565b60405160208183030381529060405292505050610615565b610944846112d3565b949350505050565b604051806040016040528060018152602001603160f81b81525081565b425b90565b60045490565b600b6020526000908152604090205481565b6001600160a01b031660009081526005602052604090205490565b6109a9611367565b6001600160a01b0316856001600160a01b031614806109cf57506109cf85610533611367565b6109eb5760405162461bcd60e51b81526004016105a090612a8a565b6109f88585858585611376565b5050505050565b4690565b60608151835114610a265760405162461bcd60e51b81526004016105a090612f49565b600083516001600160401b03811115610a4f57634e487b7160e01b600052604160045260246000fd5b604051908082528060200260200182016040528015610a78578160200160208202803683370190505b50905060005b8451811015610b1a57610adf858281518110610aaa57634e487b7160e01b600052603260045260246000fd5b6020026020010151858381518110610ad257634e487b7160e01b600052603260045260246000fd5b6020026020010151610578565b828281518110610aff57634e487b7160e01b600052603260045260246000fd5b6020908102919091010152610b138161315f565b9050610a7e565b509392505050565b610b2a611555565b610b346000611594565b565b6000838152600a602052604090205483906001600160a01b03163314610b6e5760405162461bcd60e51b81526004016105a09061301b565b610b7a858585856115e6565b6000848152600b6020526040902054610b9390846112a3565b6000948552600b60205260409094209390935550505050565b610bb4611555565b610bbd816116f7565b50565b6000610bcf338686868661170a565b610beb5760405162461bcd60e51b81526004016105a090612c7c565b6000610bf56117d2565b9050610bff6117e3565b6000818152600a6020526040902080546001600160a01b031916331790558815610c9d57807f6bb7ff708619ba0610cba295a58592e0451dee2622938c8755667688daf3529b8b8b604051610c55929190612a07565b60405180910390a2610c9d818b8b8080601f0160208091040260200160405190810160405280939291908181526020018383808284376000920191909152506117fa92505050565b610cdf33828d8b8b8080601f0160208091040260200160405190810160405280939291908181526020018383808284376000920191909152506115e692505050565b6000818152600b602052604090208b905590509998505050505050505050565b6003546001600160a01b031690565b600d8054610627906130f8565b610d2d610d26611367565b838361183e565b5050565b8151835114610d525760405162461bcd60e51b81526004016105a090612d0b565b60005b8351811015610e3e576000848281518110610d8057634e487b7160e01b600052603260045260246000fd5b6020908102919091018101516000818152600a9092526040909120549091506001600160a01b03163314610dc65760405162461bcd60e51b81526004016105a090612b21565b6000848381518110610de857634e487b7160e01b600052603260045260246000fd5b60200260200101519050610e1881600b6000858152602001908152602001600020546112a390919063ffffffff16565b6000928352600b6020526040909220919091555080610e368161315f565b915050610d55565b50610e4b848484846118e1565b50505050565b6000908152600b602052604090205490565b60606106128261082a565b600a602052600090815260409020546001600160a01b031681565b610e91611555565b600780546001600160a01b0319166001600160a01b0392909216919091179055565b6001600160a01b038216610ed95760405162461bcd60e51b81526004016105a090612eb4565b60005b8151811015610f2e576000828281518110610f0757634e487b7160e01b600052603260045260246000fd5b60200260200101519050610f1b8482611a71565b5080610f268161315f565b915050610edc565b505050565b6000610f3d611555565b6000610f476117d2565b9050610f516117e3565b6000818152600a6020526040902080546001600160a01b031916331790558415610fef57807f6bb7ff708619ba0610cba295a58592e0451dee2622938c8755667688daf3529b8787604051610fa7929190612a07565b60405180910390a2610fef8187878080601f0160208091040260200160405190810160405280939291908181526020018383808284376000920191909152506117fa92505050565b61103188828987878080601f0160208091040260200160405190810160405280939291908181526020018383808284376000920191909152506115e692505050565b6000818152600b6020526040902087905590509695505050505050565b60075460405163c455279160e01b81526000916001600160a01b039081169190841690829063c455279190611087908890600401612883565b60206040518083038186803b15801561109f57600080fd5b505afa1580156110b3573d6000803e3d6000fd5b505050506040513d601f19601f820116820180604052508101906110d79190612613565b6001600160a01b031614156110f05760019150506105cc565b6109448484611ad8565b611102611367565b6001600160a01b0316856001600160a01b03161480611128575061112885610533611367565b6111445760405162461bcd60e51b81526004016105a090612a8a565b6109f88585858585611b06565b611159611555565b6001600160a01b03811661117f5760405162461bcd60e51b81526004016105a090612b70565b610bbd81611594565b6000333014156111df57600080368080601f0160208091040260200160405190810160405280939291908181526020018383808284376000920191909152505050503601516001600160a01b0316915061096b9050565b503390565b6001600160e01b031981166301ffc9a760e01b14919050565b60006001600160a01b0386166112255760405162461bcd60e51b81526004016105a090612cc6565b600161123861123387611c63565b611cc1565b8386866040516000815260200160405260405161125894939291906129d6565b6020604051602081039080840390855afa15801561127a573d6000803e3d6000fd5b505050602060405103516001600160a01b0316866001600160a01b031614905095945050505050565b60006112af828461309d565b9392505050565b6000908152600a60205260409020546001600160a01b0316151590565b6060600280546112e2906130f8565b80601f016020809104026020016040519081016040528092919081815260200182805461130e906130f8565b801561135b5780601f106113305761010080835404028352916020019161135b565b820191906000526020600020905b81548152906001019060200180831161133e57829003601f168201915b50505050509050919050565b6000611371611188565b905090565b81518351146113975760405162461bcd60e51b81526004016105a090612f92565b6001600160a01b0384166113bd5760405162461bcd60e51b81526004016105a090612d69565b60006113c7611367565b90506113d781878787878761154d565b60005b84518110156114d957600085828151811061140557634e487b7160e01b600052603260045260246000fd5b60200260200101519050600085838151811061143157634e487b7160e01b600052603260045260246000fd5b602090810291909101810151600084815280835260408082206001600160a01b038e1683529093529190912054909150818110156114815760405162461bcd60e51b81526004016105a090612df4565b6000838152602081815260408083206001600160a01b038e8116855292528083208585039055908b168252812080548492906114be90849061309d565b92505081905550505050806114d29061315f565b90506113da565b50846001600160a01b0316866001600160a01b0316826001600160a01b03167f4a39dc06d4c0dbc64b70af90fd698a233a518aa5d07e595d983b8c0526c8f7fb8787604051611529929190612979565b60405180910390a461153f81878787878761154d565b61154d818787878787611cdd565b505050505050565b61155d611367565b6001600160a01b031661156e610cff565b6001600160a01b031614610b345760405162461bcd60e51b81526004016105a090612e3e565b600380546001600160a01b038381166001600160a01b0319831681179093556040519116919082907f8be0079c531659141344cd1fd0a4f28419497f9722a3daafe3b4186f6b6457e090600090a35050565b6001600160a01b03841661160c5760405162461bcd60e51b81526004016105a090612fda565b6000611616611367565b9050600061162385611e02565b9050600061163085611e02565b90506116418360008985858961154d565b6000868152602081815260408083206001600160a01b038b1684529091528120805487929061167190849061309d565b92505081905550866001600160a01b031660006001600160a01b0316846001600160a01b03167fc3d58168c5ae7397731d063d5bbf3d657854427343f4c083240f7aacaa2d0f6289896040516116c892919061306c565b60405180910390a46116df8360008985858961154d565b6116ee83600089898989611e5b565b50505050505050565b8051610d2d906002906020840190611f4e565b6000610e1061171986426130b5565b111561172757506000610821565b600061175a878760405160200161173f929190612793565b60405160208183030381529060405280519060200120611f2c565b9050611764610cff565b6001600160a01b03166001828787876040516000815260200160405260405161179094939291906129d6565b6020604051602081039080840390855afa1580156117b2573d6000803e3d6000fd5b505050602060405103516001600160a01b03161491505095945050505050565b6008546000906113719060016112a3565b600880549060006117f38361315f565b9190505550565b611803826112b6565b61181f5760405162461bcd60e51b81526004016105a090612c37565b60008281526009602090815260409091208251610f2e92840190611f4e565b816001600160a01b0316836001600160a01b031614156118705760405162461bcd60e51b81526004016105a090612f00565b6001600160a01b0383811660008181526001602090815260408083209487168084529490915290819020805460ff1916851515179055517f17307eab39ab6107e8899845ad3d59bd9653f200f220920489ca2b5937696c31906118d490859061299e565b60405180910390a3505050565b6001600160a01b0384166119075760405162461bcd60e51b81526004016105a090612fda565b81518351146119285760405162461bcd60e51b81526004016105a090612f92565b6000611932611367565b90506119438160008787878761154d565b60005b84518110156119fa5783818151811061196f57634e487b7160e01b600052603260045260246000fd5b602002602001015160008087848151811061199a57634e487b7160e01b600052603260045260246000fd5b602002602001015181526020019081526020016000206000886001600160a01b03166001600160a01b0316815260200190815260200160002060008282546119e2919061309d565b909155508190506119f28161315f565b915050611946565b50846001600160a01b031660006001600160a01b0316826001600160a01b03167f4a39dc06d4c0dbc64b70af90fd698a233a518aa5d07e595d983b8c0526c8f7fb8787604051611a4b929190612979565b60405180910390a4611a628160008787878761154d565b6109f881600087878787611cdd565b6000818152600a602052604090205481906001600160a01b03163314611aa95760405162461bcd60e51b81526004016105a09061301b565b506000908152600a6020526040902080546001600160a01b0319166001600160a01b0392909216919091179055565b6001600160a01b03918216600090815260016020908152604080832093909416825291909152205460ff1690565b6001600160a01b038416611b2c5760405162461bcd60e51b81526004016105a090612d69565b6000611b36611367565b90506000611b4385611e02565b90506000611b5085611e02565b9050611b6083898985858961154d565b6000868152602081815260408083206001600160a01b038c16845290915290205485811015611ba15760405162461bcd60e51b81526004016105a090612df4565b6000878152602081815260408083206001600160a01b038d8116855292528083208985039055908a16825281208054889290611bde90849061309d565b92505081905550876001600160a01b0316896001600160a01b0316856001600160a01b03167fc3d58168c5ae7397731d063d5bbf3d657854427343f4c083240f7aacaa2d0f628a8a604051611c3492919061306c565b60405180910390a4611c4a848a8a86868a61154d565b611c58848a8a8a8a8a611e5b565b505050505050505050565b600060405180608001604052806043815260200161327a6043913980516020918201208351848301516040808701518051908601209051611ca495016129b2565b604051602081830303815290604052805190602001209050919050565b6000611ccb61096e565b82604051602001611ca4929190612868565b611cef846001600160a01b0316611f3f565b1561154d5760405163bc197c8160e01b81526001600160a01b0385169063bc197c8190611d2890899089908890889088906004016128c3565b602060405180830381600087803b158015611d4257600080fd5b505af1925050508015611d72575060408051601f3d908101601f19168201909252611d6f918101906125f7565b60015b611dd257611d7e6131a6565b806308c379a01415611db85750611d936131bd565b80611d9e5750611dba565b8060405162461bcd60e51b81526004016105a091906129f4565b505b60405162461bcd60e51b81526004016105a090612a36565b6001600160e01b0319811663bc197c8160e01b146116ee5760405162461bcd60e51b81526004016105a090612ad9565b60408051600180825281830190925260609160009190602080830190803683370190505090508281600081518110611e4a57634e487b7160e01b600052603260045260246000fd5b602090810291909101015292915050565b611e6d846001600160a01b0316611f3f565b1561154d5760405163f23a6e6160e01b81526001600160a01b0385169063f23a6e6190611ea69089908990889088908890600401612921565b602060405180830381600087803b158015611ec057600080fd5b505af1925050508015611ef0575060408051601f3d908101601f19168201909252611eed918101906125f7565b60015b611efc57611d7e6131a6565b6001600160e01b0319811663f23a6e6160e01b146116ee5760405162461bcd60e51b81526004016105a090612ad9565b600081604051602001611ca49190612837565b6001600160a01b03163b151590565b828054611f5a906130f8565b90600052602060002090601f016020900481019282611f7c5760008555611fc2565b82601f10611f9557805160ff1916838001178555611fc2565b82800160010185558215611fc2579182015b82811115611fc2578251825591602001919060010190611fa7565b50611fce929150611fd2565b5090565b5b80821115611fce5760008155600101611fd3565b60006001600160401b0383111561200057612000613190565b604051612017601f8501601f191660200182613133565b80915083815284848401111561202c57600080fd5b83836020830137600060208583010152509392505050565b600082601f830112612054578081fd5b813560206120618261307a565b60405161206e8282613133565b83815282810191508583018385028701840188101561208b578586fd5b855b858110156120a95781358452928401929084019060010161208d565b5090979650505050505050565b60008083601f8401126120c7578182fd5b5081356001600160401b038111156120dd578182fd5b6020830191508360208285010111156120f557600080fd5b9250929050565b600082601f83011261210c578081fd5b6112af83833560208501611fe7565b803560ff8116811461061557600080fd5b60006020828403121561213d578081fd5b81356112af8161324e565b6000806040838503121561215a578081fd5b82356121658161324e565b915060208301356121758161324e565b809150509250929050565b600080600080600060a08688031215612197578081fd5b85356121a28161324e565b945060208601356121b28161324e565b935060408601356001600160401b03808211156121cd578283fd5b6121d989838a01612044565b945060608801359150808211156121ee578283fd5b6121fa89838a01612044565b9350608088013591508082111561220f578283fd5b5061221c888289016120fc565b9150509295509295909350565b600080600080600060a08688031215612240578081fd5b853561224b8161324e565b9450602086013561225b8161324e565b9350604086013592506060860135915060808601356001600160401b03811115612283578182fd5b61221c888289016120fc565b600080604083850312156122a1578182fd5b82356122ac8161324e565b915060208301356001600160401b038111156122c6578182fd5b6122d285828601612044565b9150509250929050565b600080600080608085870312156122f1578182fd5b84356122fc8161324e565b935060208501356001600160401b0380821115612317578384fd5b61232388838901612044565b94506040870135915080821115612338578384fd5b61234488838901612044565b93506060870135915080821115612359578283fd5b50612366878288016120fc565b91505092959194509250565b60008060408385031215612384578182fd5b823561238f8161324e565b915060208301358015158114612175578182fd5b600080600080600060a086880312156123ba578283fd5b85356123c58161324e565b945060208601356001600160401b038111156123df578384fd5b6123eb888289016120fc565b94505060408601359250606086013591506124086080870161211b565b90509295509295909350565b60008060408385031215612426578182fd5b82356124318161324e565b946020939093013593505050565b60008060008060008060808789031215612457578384fd5b86356124628161324e565b95506020870135945060408701356001600160401b0380821115612484578586fd5b6124908a838b016120b6565b909650945060608901359150808211156124a8578283fd5b506124b589828a016120b6565b979a9699509497509295939492505050565b600080600080608085870312156124dc578182fd5b84356124e78161324e565b9350602085013592506040850135915060608501356001600160401b0381111561250f578182fd5b612366878288016120fc565b6000806040838503121561252d578182fd5b82356001600160401b0380821115612543578384fd5b818501915085601f830112612556578384fd5b813560206125638261307a565b6040516125708282613133565b8381528281019150858301838502870184018b101561258d578889fd5b8896505b848710156125b85780356125a48161324e565b835260019690960195918301918301612591565b50965050860135925050808211156125ce578283fd5b506122d285828601612044565b6000602082840312156125ec578081fd5b81356112af81613263565b600060208284031215612608578081fd5b81516112af81613263565b600060208284031215612624578081fd5b81516112af8161324e565b600060208284031215612640578081fd5b81356001600160401b03811115612655578182fd5b8201601f81018413612665578182fd5b61094484823560208401611fe7565b600060208284031215612685578081fd5b5035919050565b600080600080600080600080600060e08a8c0312156126a9578687fd5b8935985060208a01356001600160401b03808211156126c6578889fd5b6126d28d838e016120b6565b909a50985060408c01359150808211156126ea578485fd5b506126f78c828d016120b6565b90975095505060608a0135935061271060808b0161211b565b925060a08a0135915060c08a013590509295985092959850929598565b6000815180845260208085019450808401835b8381101561275c57815187529582019590820190600101612740565b509495945050505050565b6000815180845261277f8160208601602086016130cc565b601f01601f19169290920160200192915050565b60609290921b6bffffffffffffffffffffffff19168252601482015260340190565b600082516127c78184602087016130cc565b9190910192915050565b600083516127e38184602088016130cc565b60609390931b6bffffffffffffffffffffffff19169190920190815260140192915050565b6000835161281a8184602088016130cc565b83519083019061282e8183602088016130cc565b01949350505050565b7f19457468657265756d205369676e6564204d6573736167653a0a3332000000008152601c810191909152603c0190565b61190160f01b81526002810192909252602282015260420190565b6001600160a01b0391909116815260200190565b6001600160a01b0384811682528316602082015260606040820181905260009061082190830184612767565b6001600160a01b0386811682528516602082015260a0604082018190526000906128ef9083018661272d565b8281036060840152612901818661272d565b905082810360808401526129158185612767565b98975050505050505050565b6001600160a01b03868116825285166020820152604081018490526060810183905260a06080820181905260009061295b90830184612767565b979650505050505050565b6000602082526112af602083018461272d565b60006040825261298c604083018561272d565b8281036020840152610821818561272d565b901515815260200190565b90815260200190565b93845260208401929092526001600160a01b03166040830152606082015260800190565b93845260ff9290921660208401526040830152606082015260800190565b6000602082526112af6020830184612767565b60006020825282602083015282846040840137818301604090810191909152601f909201601f19160101919050565b60208082526034908201527f455243313135353a207472616e7366657220746f206e6f6e20455243313135356040820152732932b1b2b4bb32b91034b6b83632b6b2b73a32b960611b606082015260800190565b6020808252602f908201527f455243313135353a2063616c6c6572206973206e6f7420746f6b656e206f776e60408201526e195c881b9bdc88185c1c1c9bdd9959608a1b606082015260800190565b60208082526028908201527f455243313135353a204552433131353552656365697665722072656a656374656040820152676420746f6b656e7360c01b606082015260800190565b6020808252602f908201527f455243313135355472616461626c652362617463684d696e743a204f4e4c595f60408201526e10d491505513d497d0531313d5d151608a1b606082015260800190565b60208082526026908201527f4f776e61626c653a206e6577206f776e657220697320746865207a65726f206160408201526564647265737360d01b606082015260800190565b6020808252601c908201527f46756e6374696f6e2063616c6c206e6f74207375636365737366756c00000000604082015260600190565b6020808252602a908201527f455243313135353a2061646472657373207a65726f206973206e6f742061207660408201526930b634b21037bbb732b960b11b606082015260800190565b60208082526025908201527f455243313135353a2055524920736574206f66206e6f6e6578697374656e74206040820152643a37b5b2b760d91b606082015260800190565b6020808252602a908201527f53656c6173617245524331313535236372656174653a207369676e6174757265604082015269081b9bdd081d985b1a5960b21b606082015260800190565b60208082526025908201527f4e61746976654d6574615472616e73616374696f6e3a20494e56414c49445f5360408201526424a3a722a960d91b606082015260800190565b602080825260409082018190527f455243313135355472616461626c652362617463684d696e743a205f69647320908201527f616e64205f7175616e746974696573206e6f74206d61746368206c656e677468606082015260800190565b60208082526025908201527f455243313135353a207472616e7366657220746f20746865207a65726f206164604082015264647265737360d81b606082015260800190565b60208082526026908201527f455243313135355472616461626c65237572693a204e4f4e4558495354454e546040820152652faa27a5a2a760d11b606082015260800190565b6020808252602a908201527f455243313135353a20696e73756666696369656e742062616c616e636520666f60408201526939103a3930b739b332b960b11b606082015260800190565b6020808252818101527f4f776e61626c653a2063616c6c6572206973206e6f7420746865206f776e6572604082015260600190565b60208082526021908201527f5369676e657220616e64207369676e617475726520646f206e6f74206d6174636040820152600d60fb1b606082015260800190565b6020808252602c908201527f455243313135355472616461626c652373657443726561746f723a20494e564160408201526b2624a22fa0a2222922a9a99760a11b606082015260800190565b60208082526029908201527f455243313135353a2073657474696e6720617070726f76616c20737461747573604082015268103337b91039b2b63360b91b606082015260800190565b60208082526029908201527f455243313135353a206163636f756e747320616e6420696473206c656e677468604082015268040dad2e6dac2e8c6d60bb1b606082015260800190565b60208082526028908201527f455243313135353a2069647320616e6420616d6f756e7473206c656e677468206040820152670dad2e6dac2e8c6d60c31b606082015260800190565b60208082526021908201527f455243313135353a206d696e7420746f20746865207a65726f206164647265736040820152607360f81b606082015260800190565b60208082526031908201527f455243313135355472616461626c652363726561746f724f6e6c793a204f4e4c6040820152701657d0d491505513d497d0531313d5d151607a1b606082015260800190565b918252602082015260400190565b60006001600160401b0382111561309357613093613190565b5060209081020190565b600082198211156130b0576130b061317a565b500190565b6000828210156130c7576130c761317a565b500390565b60005b838110156130e75781810151838201526020016130cf565b83811115610e4b5750506000910152565b60028104600182168061310c57607f821691505b6020821081141561312d57634e487b7160e01b600052602260045260246000fd5b50919050565b601f8201601f191681016001600160401b038111828210171561315857613158613190565b6040525050565b60006000198214156131735761317361317a565b5060010190565b634e487b7160e01b600052601160045260246000fd5b634e487b7160e01b600052604160045260246000fd5b600060033d111561096b57600481823e5160e01c90565b600060443d10156131cd5761096b565b6040516003193d81016004833e81513d6001600160401b0381602484011181841117156131fe57505050505061096b565b82850191508151818111156132185750505050505061096b565b843d87010160208285010111156132345750505050505061096b565b61324360208286010187613133565b509094505050505090565b6001600160a01b0381168114610bbd57600080fd5b6001600160e01b031981168114610bbd57600080fdfe4d6574615472616e73616374696f6e2875696e74323536206e6f6e63652c616464726573732066726f6d2c62797465732066756e6374696f6e5369676e617475726529a2646970667358221220fdb48e4c5c33a7b80c0def6eb81cbd3e1e27a0b65ed225c4b58f81d0230918b764736f6c63430008010033",
    "linkReferences": {},
    "deployedLinkReferences": {}
}