{
  "_format": "hh-sol-artifact-1",
  "contractName": "NusaRoyaltyDistributor",
  "sourceName": "contracts/NusaRoyaltyDistributor.sol",
  "abi": [
    {
      "anonymous": false,
      "inputs": [
        {
          "indexed": true,
          "internalType": "address",
          "name": "previousOwner",
          "type": "address"
        },
        {
          "indexed": true,
          "internalType": "address",
          "name": "newOwner",
          "type": "address"
        }
      ],
      "name": "OwnershipTransferred",
      "type": "event"
    },
    {
      "anonymous": false,
      "inputs": [
        {
          "indexed": true,
          "internalType": "uint256",
          "name": "listingId",
          "type": "uint256"
        },
        {
          "indexed": false,
          "internalType": "address[]",
          "name": "recipients",
          "type": "address[]"
        },
        {
          "indexed": false,
          "internalType": "uint64[]",
          "name": "bpsPerRecipients",
          "type": "uint64[]"
        },
        {
          "indexed": false,
          "internalType": "uint256",
          "name": "totalPayout",
          "type": "uint256"
        }
      ],
      "name": "RoyaltyPaid",
      "type": "event"
    },
    {
      "inputs": [
        {
          "internalType": "uint256",
          "name": "_listingId",
          "type": "uint256"
        },
        {
          "internalType": "address",
          "name": "_payer",
          "type": "address"
        },
        {
          "internalType": "uint256",
          "name": "_totalPayoutAmount",
          "type": "uint256"
        },
        {
          "internalType": "address",
          "name": "_currency",
          "type": "address"
        },
        {
          "internalType": "address",
          "name": "_nativeTokenWrapper",
          "type": "address"
        },
        {
          "internalType": "uint64",
          "name": "MAX_BPS",
          "type": "uint64"
        }
      ],
      "name": "distributeRoyalty",
      "outputs": [],
      "stateMutability": "payable",
      "type": "function"
    },
    {
      "inputs": [
        {
          "internalType": "uint256",
          "name": "listingId",
          "type": "uint256"
        }
      ],
      "name": "getListingRoyalty",
      "outputs": [
        {
          "components": [
            {
              "internalType": "uint256",
              "name": "listingId",
              "type": "uint256"
            },
            {
              "internalType": "address[]",
              "name": "recipients",
              "type": "address[]"
            },
            {
              "internalType": "uint64[]",
              "name": "bpsPerRecipients",
              "type": "uint64[]"
            }
          ],
          "internalType": "struct INusaRoyaltyDistributor.ListingRoyalty",
          "name": "",
          "type": "tuple"
        }
      ],
      "stateMutability": "view",
      "type": "function"
    },
    {
      "inputs": [
        {
          "internalType": "uint256",
          "name": "_listingId",
          "type": "uint256"
        },
        {
          "internalType": "uint256",
          "name": "_totalPayoutAmount",
          "type": "uint256"
        },
        {
          "internalType": "uint64",
          "name": "MAX_BPS",
          "type": "uint64"
        }
      ],
      "name": "getTotalRoyaltyAmount",
      "outputs": [
        {
          "internalType": "uint256",
          "name": "",
          "type": "uint256"
        }
      ],
      "stateMutability": "view",
      "type": "function"
    },
    {
      "inputs": [
        {
          "internalType": "uint256",
          "name": "",
          "type": "uint256"
        }
      ],
      "name": "listingRoyalties",
      "outputs": [
        {
          "internalType": "uint256",
          "name": "listingId",
          "type": "uint256"
        }
      ],
      "stateMutability": "view",
      "type": "function"
    },
    {
      "inputs": [],
      "name": "marketplace",
      "outputs": [
        {
          "internalType": "address",
          "name": "",
          "type": "address"
        }
      ],
      "stateMutability": "view",
      "type": "function"
    },
    {
      "inputs": [],
      "name": "owner",
      "outputs": [
        {
          "internalType": "address",
          "name": "",
          "type": "address"
        }
      ],
      "stateMutability": "view",
      "type": "function"
    },
    {
      "inputs": [],
      "name": "renounceOwnership",
      "outputs": [],
      "stateMutability": "nonpayable",
      "type": "function"
    },
    {
      "inputs": [
        {
          "internalType": "uint256",
          "name": "_listingId",
          "type": "uint256"
        },
        {
          "internalType": "address[]",
          "name": "_recipients",
          "type": "address[]"
        },
        {
          "internalType": "uint64[]",
          "name": "_bpsPerRecipients",
          "type": "uint64[]"
        }
      ],
      "name": "setListingRoyalty",
      "outputs": [],
      "stateMutability": "nonpayable",
      "type": "function"
    },
    {
      "inputs": [
        {
          "internalType": "address",
          "name": "_marketplace",
          "type": "address"
        }
      ],
      "name": "setMarketplace",
      "outputs": [],
      "stateMutability": "nonpayable",
      "type": "function"
    },
    {
      "inputs": [
        {
          "internalType": "address",
          "name": "newOwner",
          "type": "address"
        }
      ],
      "name": "transferOwnership",
      "outputs": [],
      "stateMutability": "nonpayable",
      "type": "function"
    }
  ],
  "bytecode": "0x608060405234801561001057600080fd5b5061001a3361001f565b61006f565b600080546001600160a01b038381166001600160a01b0319831681178455604051919092169283917f8be0079c531659141344cd1fd0a4f28419497f9722a3daafe3b4186f6b6457e09190a35050565b6114cc8061007e6000396000f3fe6080604052600436106100815760003560e01c80631d33134a1461008657806347ee121f146100c65780636c4d3ecf146100e8578063715018a61461011557806373ad6c2d1461012a5780638da5cb5b1461014a578063abc8c7af14610177578063c212fc5714610197578063e725f277146101b7578063f2fde38b146101ca575b600080fd5b34801561009257600080fd5b506100b36100a136600461100f565b60026020526000908152604090205481565b6040519081526020015b60405180910390f35b3480156100d257600080fd5b506100e66100e1366004611073565b6101ea565b005b3480156100f457600080fd5b5061010861010336600461100f565b6102f7565b6040516100bd91906110ec565b34801561012157600080fd5b506100e661042b565b34801561013657600080fd5b506100e66101453660046111b9565b61043f565b34801561015657600080fd5b5061015f610469565b6040516001600160a01b0390911681526020016100bd565b34801561018357600080fd5b5060015461015f906001600160a01b031681565b3480156101a357600080fd5b506100b36101b23660046111eb565b610478565b6100e66101c5366004611220565b610608565b3480156101d657600080fd5b506100e66101e53660046111b9565b61082b565b6001546001600160a01b0316336001600160a01b0316146102265760405162461bcd60e51b815260040161021d90611286565b60405180910390fd5b604051806060016040528086815260200185858080602002602001604051908101604052809392919081815260200183836020028082843760009201919091525050509082525060408051602085810282810182019093528582529283019290918691869182918501908490808284376000920182905250939094525050878152600260209081526040909120835181558382015180519193506102d1926001850192910190610ee6565b50604082015180516102ed916002840191602090910190610f4b565b5050505050505050565b61031b60405180606001604052806000815260200160608152602001606081525090565b6000828152600260209081526040918290208251606081018452815481526001820180548551818602810186019096528086529194929385810193929083018282801561039157602002820191906000526020600020905b81546001600160a01b03168152600190910190602001808311610373575b505050505081526020016002820180548060200260200160405190810160405280929190818152602001828054801561041b57602002820191906000526020600020906000905b82829054906101000a90046001600160401b03166001600160401b0316815260200190600801906020826007010492830192600103820291508084116103d85790505b5050505050815250509050919050565b6104336108a4565b61043d6000610903565b565b6104476108a4565b600180546001600160a01b0319166001600160a01b0392909216919091179055565b6000546001600160a01b031690565b60008381526002602090815260408083208151606081018352815481526001820180548451818702810187019095528085528695929485840193909291908301828280156104ef57602002820191906000526020600020905b81546001600160a01b031681526001909101906020018083116104d1575b505050505081526020016002820180548060200260200160405190810160405280929190818152602001828054801561057957602002820191906000526020600020906000905b82829054906101000a90046001600160401b03166001600160401b0316815260200190600801906020826007010492830192600103820291508084116105365790505b50505050508152505090506000805b8260200151518110156105d257826040015181815181106105ab576105ab6112b0565b6020026020010151826105be91906112dc565b9150806105ca81611307565b915050610588565b50836001600160401b0316816001600160401b0316866105f29190611322565b6105fc9190611341565b925050505b9392505050565b6001546001600160a01b0316336001600160a01b03161461063b5760405162461bcd60e51b815260040161021d90611286565b600086815260026020908152604080832081516060810183528154815260018201805484518187028101870190955280855291949293858401939092908301828280156106b157602002820191906000526020600020905b81546001600160a01b03168152600190910190602001808311610693575b505050505081526020016002820180548060200260200160405190810160405280929190818152602001828054801561073b57602002820191906000526020600020906000905b82829054906101000a90046001600160401b03166001600160401b0316815260200190600801906020826007010492830192600103820291508084116106f85790505b505050505081525050905060005b8160200151518110156107dd576000836001600160401b031683604001518381518110610778576107786112b0565b60200260200101516001600160401b0316886107949190611322565b61079e9190611341565b90506107ca8689856020015185815181106107bb576107bb6112b0565b60200260200101518489610953565b50806107d581611307565b915050610749565b50867f67cb04229d5b3d43e0aee49fc64b180e5fd62e22a1ddb6d208d5befcf65e29c6826020015183604001518860405161081a93929190611363565b60405180910390a250505050505050565b6108336108a4565b6001600160a01b0381166108985760405162461bcd60e51b815260206004820152602660248201527f4f776e61626c653a206e6577206f776e657220697320746865207a65726f206160448201526564647265737360d01b606482015260840161021d565b6108a181610903565b50565b336108ad610469565b6001600160a01b03161461043d5760405162461bcd60e51b815260206004820181905260248201527f4f776e61626c653a2063616c6c6572206973206e6f7420746865206f776e6572604482015260640161021d565b600080546001600160a01b038381166001600160a01b0319831681178455604051919092169283917f8be0079c531659141344cd1fd0a4f28419497f9722a3daafe3b4186f6b6457e09190a35050565b8161095d57610ac3565b6001600160a01b03851673eeeeeeeeeeeeeeeeeeeeeeeeeeeeeeeeeeeeeeee1415610ab7576001600160a01b0384163014156109fd57604051632e1a7d4d60e01b8152600481018390526001600160a01b03821690632e1a7d4d90602401600060405180830381600087803b1580156109d557600080fd5b505af11580156109e9573d6000803e3d6000fd5b505050506109f8838383610aca565b610ac3565b6001600160a01b038316301415610aac57348214610a535760405162461bcd60e51b81526020600482015260136024820152721b5cd9cb9d985b1d5948084f48185b5bdd5b9d606a1b604482015260640161021d565b806001600160a01b031663d0e30db0836040518263ffffffff1660e01b81526004016000604051808303818588803b158015610a8e57600080fd5b505af1158015610aa2573d6000803e3d6000fd5b5050505050610ac3565b6109f8838383610aca565b610ac385858585610b95565b5050505050565b6000836001600160a01b03168360405160006040518083038185875af1925050503d8060008114610b17576040519150601f19603f3d011682016040523d82523d6000602084013e610b1c565b606091505b5050905080610b8f57816001600160a01b031663d0e30db0846040518263ffffffff1660e01b81526004016000604051808303818588803b158015610b6057600080fd5b505af1158015610b74573d6000803e3d6000fd5b50610b8f935050506001600160a01b03841690508585610bf3565b50505050565b816001600160a01b0316836001600160a01b03161415610bb457610b8f565b6001600160a01b038316301415610bde57610bd96001600160a01b0385168383610bf3565b610b8f565b610b8f6001600160a01b038516848484610c5b565b6040516001600160a01b038316602482015260448101829052610c5690849063a9059cbb60e01b906064015b60408051601f198184030181529190526020810180516001600160e01b03166001600160e01b031990931692909217909152610c93565b505050565b6040516001600160a01b0380851660248301528316604482015260648101829052610b8f9085906323b872dd60e01b90608401610c1f565b6000610ce8826040518060400160405280602081526020017f5361666545524332303a206c6f772d6c6576656c2063616c6c206661696c6564815250856001600160a01b0316610d659092919063ffffffff16565b805190915015610c565780806020019051810190610d0691906113f9565b610c565760405162461bcd60e51b815260206004820152602a60248201527f5361666545524332303a204552433230206f7065726174696f6e20646964206e6044820152691bdd081cdd58d8d9595960b21b606482015260840161021d565b6060610d748484600085610d7c565b949350505050565b606082471015610ddd5760405162461bcd60e51b815260206004820152602660248201527f416464726573733a20696e73756666696369656e742062616c616e636520666f6044820152651c8818d85b1b60d21b606482015260840161021d565b6001600160a01b0385163b610e345760405162461bcd60e51b815260206004820152601d60248201527f416464726573733a2063616c6c20746f206e6f6e2d636f6e7472616374000000604482015260640161021d565b600080866001600160a01b03168587604051610e509190611447565b60006040518083038185875af1925050503d8060008114610e8d576040519150601f19603f3d011682016040523d82523d6000602084013e610e92565b606091505b5091509150610ea2828286610ead565b979650505050505050565b60608315610ebc575081610601565b825115610ecc5782518084602001fd5b8160405162461bcd60e51b815260040161021d9190611463565b828054828255906000526020600020908101928215610f3b579160200282015b82811115610f3b57825182546001600160a01b0319166001600160a01b03909116178255602090920191600190910190610f06565b50610f47929150610ffa565b5090565b82805482825590600052602060002090600301600490048101928215610f3b5791602002820160005b83821115610fbe57835183826101000a8154816001600160401b0302191690836001600160401b031602179055509260200192600801602081600701049283019260010302610f74565b8015610ff15782816101000a8154906001600160401b030219169055600801602081600701049283019260010302610fbe565b5050610f479291505b5b80821115610f475760008155600101610ffb565b60006020828403121561102157600080fd5b5035919050565b60008083601f84011261103a57600080fd5b5081356001600160401b0381111561105157600080fd5b6020830191508360208260051b850101111561106c57600080fd5b9250929050565b60008060008060006060868803121561108b57600080fd5b8535945060208601356001600160401b03808211156110a957600080fd5b6110b589838a01611028565b909650945060408801359150808211156110ce57600080fd5b506110db88828901611028565b969995985093965092949392505050565b6020808252825182820152828101516060604084015280516080840181905260009291820190839060a08601905b808310156111435783516001600160a01b0316825292840192600192909201919084019061111a565b506040870151868203601f190160608801528051808352908501935090840191506000905b808210156111915783516001600160401b03168352928401929184019160019190910190611168565b50909695505050505050565b80356001600160a01b03811681146111b457600080fd5b919050565b6000602082840312156111cb57600080fd5b6106018261119d565b80356001600160401b03811681146111b457600080fd5b60008060006060848603121561120057600080fd5b8335925060208401359150611217604085016111d4565b90509250925092565b60008060008060008060c0878903121561123957600080fd5b863595506112496020880161119d565b94506040870135935061125e6060880161119d565b925061126c6080880161119d565b915061127a60a088016111d4565b90509295509295509295565b60208082526010908201526f6f6e6c79206d61726b6574706c61636560801b604082015260600190565b634e487b7160e01b600052603260045260246000fd5b634e487b7160e01b600052601160045260246000fd5b60006001600160401b038281168482168083038211156112fe576112fe6112c6565b01949350505050565b600060001982141561131b5761131b6112c6565b5060010190565b600081600019048311821515161561133c5761133c6112c6565b500290565b60008261135e57634e487b7160e01b600052601260045260246000fd5b500490565b606080825284519082018190526000906020906080840190828801845b828110156113a55781516001600160a01b031684529284019290840190600101611380565b5050508381038285015285518082528683019183019060005b818110156113e35783516001600160401b0316835292840192918401916001016113be565b5050809350505050826040830152949350505050565b60006020828403121561140b57600080fd5b8151801515811461060157600080fd5b60005b8381101561143657818101518382015260200161141e565b83811115610b8f5750506000910152565b6000825161145981846020870161141b565b9190910192915050565b602081526000825180602084015261148281604085016020870161141b565b601f01601f1916919091016040019291505056fea26469706673582212201229ec350ddf5013e78e6ef1c7f41918e93c3beb62144485eb856f679adffd7464736f6c634300080b0033",
  "linkReferences": {},
  "deployedLinkReferences": {}
}